:020000040800F2
:1000000058CD00209D0100080D2D0008052B00088B
:10001000092D0008410A0008D94700080000000027
:10002000000000000000000000000000F13F000898
:10003000C32800080000000003020008C5410008B2
:10004000B7010008B7010008B7010008B7010008B0
:10005000B7010008B7010008B7010008B7010008A0
:10006000B7010008B7010008B7010008B701000890
:10007000B7010008B7010008B7010008B701000880
:10008000B7010008B7010008B7010008B701000870
:10009000450A0008B7010008B7010008B7010008C9
:1000A000B7010008B7010008B7010008B701000850
:1000B00061420008B7010008B7010008B701000855
:1000C000B7010008B7010008B7010008B701000830
:1000D000B701000831440008B7010008B701000863
:1000E000B7010008B7010008B7010008B701000810
:1000F000B7010008B7010008B7010008B701000800
:10010000B7010008B7010008B7010008B7010008EF
:10011000B7010008B7010008B7010008B7010008DF
:10012000B7010008B7010008B7010008B7010008CF
:10013000B7010008B7010008B7010008B7010008BF
:10014000B7010008B7010008B7010008B7010008AF
:10015000B7010008B7010008D5250008B70100085D
:10016000B7010008B7010008B7010008B70100088F
:10017000B7010008B7010008B7010008B70100087F
:10018000B7010008B7010008DFF80CD000F0ACFBA5
:1001900000480047B556000858CD00200648804763
:1001A00006480047FEE7FEE7FEE7FEE7FEE7FEE75C
:1001B000FEE7FEE7FEE7FEE7F941000889010008D7
:1001C000EFF3108072B6704780F3108870472048B4
:1001D0004FF0FF010170002080F309881D480121C4
:1001E00001701D484FF08051016062B6FEE71A4869
:1001F0004FF080510160704717484FF08051016007
:10020000704772B6EFF3098040B1403880EC108A35
:10021000203880E8F00F11490968086000B51048DF
:1002200080475DF804EB0F480F490A7802700B48CD
:100230000E490A680260106890E8F00F203090ECD8
:10024000108A403080F309884EF0040E62B6704781
:1002500022ED00E0FA17002004ED00E00018002075
:1002600091330008EF170020F01700200818002035
:100270002DE9FE4F804681EA0300C00F0C46009036
:1002800021F0004123F00045B8EB0200A94105D25E
:100290004046214690461C460B46024623F000404D
:1002A000104347D0270DC7F30A00C3F30A51029049
:1002B000401A019040286BDAC3F3130040F4801B0E
:1002C0000098924620B10023D2EB030A63EB0B0B9C
:1002D00001985946C0F14002504600F0EFF9064639
:1002E0000D4650465946019A00F007FA10EB0800F7
:1002F0006141002487EA115284EAE7731A4340D02F
:10030000009A62B3019A012A4FEA075215DC001BDA
:1003100061EB02014FF0004202EA0752CDE90042D0
:10032000001C41F5801132462B4600F03EFA03B026
:10033000BDE8F08F40462146F9E7001B61EB020162
:10034000001C41F5801300185B412018A2F500172E
:1003500047EB030140EAD570B6196D4111E06D0815
:100360004FEA360645EAC0754FEA0752001B61EBBB
:100370000201001C41F5801149084FEA30000019C4
:10038000514132462B4603B0BDE8F04F00F0FEB9B4
:100390000098012240000023D0EB020263EBE073DF
:1003A000009821464FEAE074B8EB000061EB0401CD
:1003B000E9E783F000435BE781F0004158E72DE96E
:1003C000FE4F81EA030404F0004421F00041009450
:1003D0004FF0000B23F0004350EA01045ED052EAD4
:1003E00003045BD0C3F30A54C1F30A552C44A4F2AE
:1003F000F3340194A0FB0254C1F3130141F48011C2
:10040000C3F3130343F4801301FB024400FB034EC8
:10041000840A970A44EA815447EA8357A4FB076891
:1004200002958D0A05FB07854FEA932C04FB0C54BB
:100430002705029D4FEA065847EA1637B5EB08052F
:100440006EEB070C870E920E47EA811742EA831281
:10045000A7FB0201B6EB0B0164EB00042B0D43EA92
:100460000C335E1844EB1C50DA465146E7FB0201A0
:10047000C5F313044FEA0B3343EA14534FEA043233
:10048000019C43EA0603A4F10C040294009CCDE90C
:1004900000B400F08AF903B0BDE8F08F00200146F7
:1004A000F9E72DE9F04D81EA030404F0004B21F057
:1004B000004514464FF0000A23F0004150EA0502BF
:1004C00020D054EA01021DD0C5F30A570246C5F3F5
:1004D0001303C1F31300C1F30A5640F4801543F42B
:1004E0008013A7EB0608101BD64608F2FD3873EB05
:1004F000050002D308F1010801E092185B41B8F150
:10050000000F03DA00200146BDE8F08D00204FF413
:100510008011064684460EE0171B73EB050705D3D2
:10052000121B63EB050306434CEA010C49084FEA32
:10053000300092185B4150EA0107EDD152EA030006
:1005400012D082EA040083EA0501084305D0101B9B
:10055000AB4106D20122002306E000224FF0004307
:1005600002E06FF0010253101AEB06004CEB085149
:1005700010EB0A0041EB0B01BDE8F04D00F006B9AD
:100580000EB5C10F80EAE0700844CA07002140F2AE
:1005900033438DE80E000A460B4600F006F903B01F
:1005A00000BD0EB540F2334102910021CDE90011AA
:1005B0000A460B4600F0F9F803B000BD70B5C1F370
:1005C0000A5201F000450024C1F3130140F2FF3349
:1005D00041F480119A4201DA002070BD40F23343A9
:1005E0009A42A2F2334203DC524200F076F800E075
:1005F00090402C43F1D0404270BDC1F30A5210B577
:10060000C1F3130140F2FF3341F480119A4201DA41
:10061000002010BD40F233439A42A2F2334203DC81
:10062000524200F05AF810BD904010BD00F0004258
:1006300030F000400AD0C10D01F56071C0F3160022
:1006400042EA0151C20840071143704700200146A9
:100650007047000030B5041E71F1000404DB4FF058
:100660000044404264EB0101141E73F1000405DBF9
:100670001C464FF00043524263EB0403994208BF0B
:10068000904230BD01F0004330B421F0004150EA07
:10069000010206D00A0DA2F56072C1F31301002A0F
:1006A00002DC30BC00207047440F44EAC104C100A2
:1006B000E01830BC00EBC25000F031B8202A04DB57
:1006C000203A00FA02F1002070479140C2F1200365
:1006D00020FA03F3194390407047202A04DB203AA4
:1006E00021FA02F00021704721FA02F3D040C2F152
:1006F00020029140084319467047202A06DBCB1799
:10070000203A41FA02F043EAE07306E041FA02F3CC
:10071000D040C2F120029140084319467047002999
:10072000A8BF7047401C490008BF20F00100704777
:1007300010B4B0FA80FC00FA0CF050EA010404BFD7
:1007400010BC704749B1CCF1200421FA04F411FA2D
:100750000CF118BF012121430843A3EB0C01CB1D71
:100760004FEA00614FEA102042BF002010BC7047E2
:1007700000EBC35010440029A4BF10BC7047401CBC
:10078000490008BF20F0010010BC704710B5141ECE
:1007900073F1000408DA401C41F1000192185B413A
:1007A0001A4301D120F0010010BD2DE9F04D924611
:1007B0009B4611B1B1FA81F202E0B0FA80F2203228
:1007C0009046FFF77BFF04460F4640EA0A0041EAE5
:1007D0000B0153465A46084313D0114653EA010011
:1007E00019D0C8F140025046FFF777FF05460E4684
:1007F000504659464246FFF761FF084305D00120A5
:1008000004E020463946BDE8F08D0020054346EA65
:10081000E0762C4337430A986305E40AA0EB08000E
:100820000022FD0A44EA47540A3002D5002001465E
:10083000E9E7010510196941DDE908450019694139
:10084000BDE8F04DA2E72DE9F04D00231A461B1A32
:100850008A4103DB00200146BDE8F08DC1F30A5256
:10086000C1F3130141F480154FF0000BD10702D101
:1008700000186D41521E0027044640F2FF11384611
:1008800001EB620A3E468046024600204FF480118A
:10089000FFF723FFC2197141BB1846EB0100B4EB0F
:1008A000030C75EB000C04D3E41A65EB0005174646
:1008B0000E46241908F101006D4180463428E3DD1D
:1008C000F91946EB0600091BA84103D24FF0FF328D
:1008D000134601E0002213461BEB070046EB0A51CA
:1008E000BDE8F04DFFF752BF064C074D06E0E0684B
:1008F00040F0010394E8070098471034AC42F6D367
:10090000FFF746FCA85E0008C85E000870B58D18A9
:1009100010F8014B14F0030201D110F8012B231140
:1009200006D110F8013B03E010F8016B01F8016BF0
:10093000521EF9D1ABB110F8012B04F00C048A1A45
:100940000C2C03D0A2EB84129B1C08E010F8014B86
:10095000A2EB0422F8E712F8014B01F8014B5B1EF1
:10096000F9D5A942D4D3002070BD04E000F0A0FF67
:10097000012002F00FFDF9E700B52DED028B85B0E7
:10098000B0EE408A1748019004208DF80A0000203C
:100990008DF8090004208DF8080041208DF80B0027
:1009A00041218DF80C10B2EE040A28EE000ABDEECB
:1009B000C00A10EE100AC1B28DF80D10B2EE040A92
:1009C00028EE000ABDEEC00A10EE100A010A8DF8EA
:1009D0000E106946044800F0CEFE05B0BDEC028B57
:1009E00000BD000001010200006400402DE9F04359
:1009F00085B004460D4616461F46DDE90C890E48B3
:100A0000019000208DF8090004208DF80800E0B264
:100A10008DF80A008DF80B508DF80C608DF80D7074
:100A20008DF80E808DF80F906946044800F0A3FE03
:100A300005B0BDE8F0830000010102000064004041
:100A400000BFFEE700B595B00221FE4800F0E8FCCB
:100A5000002876D00221FB4800F0EEFB0FAA00210F
:100A6000F84800F000FE1098B0F5803F6AD19DF87C
:100A7000470000287DD10FA8007B432802D05228D0
:100A80006CD126E09DF84600052818D10FA8407BC0
:100A900057280AD15520482157234322CDE9001079
:100AA00040210520FFF7A2FF12E00020009003463E
:100AB00004227F2101900220FFF798FF08E0002028
:100AC0000090034602227F2101901046FFF78EFF1F
:100AD0004EE09DF84600042836D10FA8407B5228EE
:100AE00025D10FA8807B532821D19FEDD70AD74865
:100AF00080ED000A9FEDD40A80ED010A9FEDD20A35
:100B000080ED020A9FEDD00AD14880ED000A9FEDEA
:100B1000CE0A80ED010A9FEDCC0A80ED020A012089
:100B2000CC49088001F0B0FF03F040FA15E0002046
:100B30000090034604227F2101900220FFF756FF18
:100B40000BE0A1E01EE014E000200090034602222A
:100B50007F2101901046FFF749FF09E00020009037
:100B6000034601227F2101900220FFF73FFF00BFD3
:100B700008E000200090034602467F2101900220F9
:100B8000FFF734FF1098B0F5813F7DD19DF8470005
:100B900001287AD10FA8007B562877D006DC41289F
:100BA00075D04C2874D0522873D104E0582871D0E5
:100BB0005928F9D19BE19DF8460008286BD10FA870
:100BC000417C807C41EA002000B20790FFF7D8FC0E
:100BD0009FEDA10B53EC102BCDE908019DED080B07
:100BE00051EC100BFFF7EBFBCDE90A019DED0A0B71
:100BF00051EC100BFFF746FD94498860084690EDD4
:100C0000020ADFED970A20EE200ADFED960A80EE59
:100C1000201A954890ED000A31EE000A8DED0E0A7B
:100C20000E98FFF703FDCDE908019DED080B03F0D9
:100C3000EFFD8DED0A0B9DED0A0B51EC100BFFF74C
:100C400021FD0C900E98FFF7F1FCCDE908019DED18
:100C5000080B03F04DFE8DED0A0B9DED0A0B51ECD8
:100C6000100BFFF70FFD0D908048D0ED000A9DEDB1
:100C70000C0A20EE800A8DED050A0598FFF7D6FCD8
:100C8000CDE908010FA807E0BEE2BEE24DE28BE22B
:100C9000B4E1AFE288E07DE0417B807B41EA002067
:100CA00000B20190FFF76CFC9FED6B0B53EC102B27
:100CB000CDE902019DED020B51EC100BFFF77FFB1C
:100CC0009FED6B0B53EC102BCDE904019DED040B54
:100CD00051EC100BFFF7E5FBCDE906019DED080B8C
:100CE00053EC102B9DED060B51EC100BFFF7C0FAE7
:100CF000CDE90A019DED0A0B51EC100BFFF7C2FC88
:100D0000524908605948D0ED000A9DED0D0A20EEC9
:100D1000800A8DED050A0598FFF788FCCDE90801EA
:100D20000FA8C17B007C41EA002000B20190FFF7D0
:100D300027FC9FED490B53EC102BCDE902019DEDF3
:100D4000020B51EC100BFFF73AFB9FED490B53ECF4
:100D5000102BCDE904019DED040B51EC100BFFF7B6
:100D6000A0FBCDE906019DED080B53EC102B9DED8A
:100D7000060B51EC100BFFF77BFACDE90A019DED54
:100D80000A0B51EC100BFFF77DFC3049486003F073
:100D9000E1F808E000200090034602227F21019044
:100DA0001046FFF723FE2FE29DF8460004287CD171
:100DB000264890ED020ADFED2A0A20EE200A9FED78
:100DC000291AC0EE010A284890ED000A30EE800A88
:100DD0008DED0E0A0E98FFF729FCCDE908019DED77
:100DE000080B03F015FD8DED0A0B9DED0A0B51EC80
:100DF000100BFFF747FC0D901C48D0ED000A9DED4D
:100E00000D0A20EE800A8DED050A0598FFF70EFC0D
:100E1000CDE908010FA8417B807B41EA002000B2A8
:100E20000190FFF7ADFB9FED0C0B53EC102BCDE9C0
:100E300002019DED020B51EC100BFFF7C0FA9FED84
:100E40000C0B19E000640040000000005800002076
:100E5000706B0020320000209A9999999999B93FB6
:100E6000DB0F494000003443BC000020B4000020E8
:100E7000000000000000F03F53EC102BCDE904010E
:100E80009DED040B51EC100BFFF70BFBCDE90601B8
:100E90009DED080B53EC102B9DED060B51EC100B48
:100EA000FFF7E6F9CDE90A0100E016E09DED0A0B37
:100EB00051EC100BFFF7E6FBD949086000210FA8A1
:100EC000807BCDE900010FA8407B034658224121D9
:100ED0000C900420FFF78AFD08E0002000900346F4
:100EE00002227F2101901046FFF780FD8CE19DF8E2
:100EF0004600042878D1CA4890ED020A5FED280A1E
:100F000020EE200A1FED291AC0EE010AC54890ED17
:100F1000000A30EE800A8DED0E0A0E98FFF786FB70
:100F2000CDE908019DED080B03F0E2FC8DED0A0B05
:100F30009DED0A0B51EC100BFFF7A4FB0D90BA4886
:100F4000D0ED000A9DED0D0A20EE800A8DED050A18
:100F50000598FFF76BFBCDE908010FA8417B807B6B
:100F600041EA002000B20190FFF70AFB1FED460B9B
:100F700053EC102BCDE902019DED020B51EC100B4F
:100F8000FFF71DFA1FED460B53EC102BCDE90401C2
:100F90009DED040B51EC100BFFF783FACDE9060130
:100FA0009DED080B53EC102B9DED060B51EC100B37
:100FB000FFF75EF9CDE90A019DED0A0B51EC100B2C
:100FC000FFF760FB9649486000210FA8807BCDE9C0
:100FD00000010FA8407B0346592241210C900420B8
:100FE000FFF704FD09E0FFE700200090034602221E
:100FF0007F2101901046FFF7F9FC05E19DF84600BE
:1010000006287DD10FA8C17B007C41EA002000B2F8
:101010000990FFF7B5FACDE90A019DED0A0B51ECF5
:10102000100BFFF72FFB7E498860084690ED020AFF
:101030007E48D0ED000A30EE200A5FED770A60EEC0
:10104000200A1FED781A80EE810A8DED0E0A0E98A7
:10105000FFF7ECFACDE908019DED080B03F0D8FB92
:101060008DED0A0B9DED0A0B51EC100BFFF70AFBFF
:101070000D906D48D0ED000A9DED0D0A20EE800A1E
:101080008DED050A0598FFF7D1FACDE908010FA803
:10109000417B807B41EA002000B20190FFF770FAAB
:1010A0001FED930B53EC102BCDE902019DED020BCC
:1010B00051EC100BFFF783F91FED930B53EC102B42
:1010C000CDE904019DED040B51EC100BFFF7E9F99C
:1010D000CDE906019DED080B53EC102B9DED060BA1
:1010E00051EC100BFFF7C4F8CDE90A019DED0A0B96
:1010F00051EC100BFFF7C6FA49490860002000E0E8
:1011000009E053210B465222CDE900104121042071
:10111000FFF76CFC08E000200090034602227F21CC
:1011200001901046FFF762FC6EE09DF8460004282F
:1011300030D10FA8417B807B41EA002000B20990AA
:10114000FFF71EFA1FEDBC0B53EC102BCDE90A0183
:101150009DED0A0B51EC100BFFF731F9CDE90C01B5
:101160009DED0C0B51EC100BFFF78CFA00EE100A02
:101170002F4880ED000A00210FA8807BCDE90001F7
:101180000FA8407B0346562241210E900420FFF712
:101190002DFC08E000200090034602227F210190F0
:1011A0001046FFF723FC2FE09DF84600042817D1D6
:1011B0000FA8407B432809D10FA8807B432805D185
:1011C0001C4890ED000AFFF7D7FB12E000200090CA
:1011D000034604227F2101900220FFF707FC08E06C
:1011E00000200090034602227F2101901046FFF765
:1011F000FDFB09E000200090034601227F210190C1
:101200000220FFF7F3FB00BF08E000200090034638
:1012100002467F2101900220FFF7E8FB15B000BDD8
:1012200058000020BC000020B4000020B8000020BE
:1012300000170020DC160020B1F5007F3AD00FDC4B
:10124000202928D006DC01291CD004291DD008291A
:1012500040D11DE0402921D0B1F5807F3AD126E070
:10126000B1F5004F31D006DCB1F5806F25D0B1F576
:10127000006F2FD124E0B1F5803F12D0B1F5003FCF
:1012800028D111E0154A826025E00822C26022E0E0
:101290001022C2601FE0082202611CE010220261DD
:1012A00019E00822426016E01022426013E0042296
:1012B000426010E0042242600DE0042242600AE035
:1012C000002282610422426005E000228261042241
:1012D000426000E000BF00BF704700000101010054
:1012E00010B504460B48844209D10121480602F09A
:1012F0009DFD00214FF0007002F098FD08E00121F3
:10130000880602F093FD00214FF0806002F08EFD10
:1013100010BD00000064004010B50021837A012256
:1013200002FA03F13D4A126842F001023B4B1A6097
:101330003A4A1C3212688A43384B1C331A60027BCB
:10134000CAB9364A0C3212688A43344B0C331A60DD
:101350004288C38842EA0343304A4032847A42F8E2
:1013600034300288838842EA03432C4A4032847A2C
:1013700002EBC4025360027B012A19D1274A0C32C6
:1013800012680A43254B0C331A604288038842EAEC
:101390000343224A4032847A42F83430C288838838
:1013A00042EA03431D4A4032847A02EBC40253608E
:1013B000C27A3AB9194A121D12688A43174B1B1D8B
:1013C0001A6006E0154A121D12680A43134B1B1DD2
:1013D0001A60028932B9114A143212688A430F4BDB
:1013E00014331A600289012A06D10C4A1432126899
:1013F0000A430A4B14331A60427B012A06D1074A7A
:101400001C3212680A43054B1C331A60034A1268E7
:1014100022F00102014B1A6010BD0000006600407E
:1014200070B504460D46002660692840002871D03A
:10143000B5F5807F5CD010DC082D35D006DC012DA1
:1014400020D0022D24D0042D72D127E0102D31D0D0
:10145000202D35D0402D6BD138E0B5F5004F60D050
:1014600009DCB5F5007F49D0B5F5806F4CD0B5F5F6
:10147000006F5DD14FE0B5F5803F2DD0B5F5003F51
:1014800056D12FE0A0682D4900F008FA064651E039
:10149000E068032100F002FA06464BE0E06808210C
:1014A00000F0FCF9064645E0E068102100F0F6F98E
:1014B00006463FE02069032100F0F0F9064639E0D6
:1014C0002069082100F0EAF9064633E0206910217E
:1014D00000F0E4F906462DE06068082100F0DEF92E
:1014E000064627E06068102100F0D8F9064621E0A2
:1014F000A069012100F0D2F906461BE0A069022193
:1015000000F0CCF9064615E0A069042100F0C6F908
:1015100006460FE00FE0A069702100F0BFF9064613
:1015200008E06068042100F0B9F9064602E0FFE730
:10153000002600BF00E00026304670BD010101001A
:101540001AB143690B43436102E043698B43436132
:10155000704730B5024600200023146824F00204CE
:101560001460146844F00104146000E05B1C5468CB
:1015700004F001041CB94FF6FF74A342F6D154687D
:1015800004F001040CB900206CE08C79012C04D12A
:10159000146844F08004146003E0146824F08004AC
:1015A0001460CC79012C04D1146844F04004146018
:1015B00003E0146824F0400414600C7A012C04D178
:1015C000146844F02004146003E0146824F020043C
:1015D00014604C7A012C04D1146844F01004146097
:1015E00003E0146824F0100414608C7A012C04D1F8
:1015F000146844F00804146003E0146824F008043C
:101600001460CC7A012C04D1146844F004041460F2
:1016100003E0146824F0040414608C78A407CD78E7
:1016200044EA05640D7944EA05444D7944EA0554D9
:101630000D886D1E2C43D461146824F001041460DD
:10164000002300E05B1C546804F001041CB14FF659
:10165000FF74A342F6D1546804F001040CB10020D9
:1016600000E0012030BD10B500F5D87303EB011385
:101670001B6803F004031372137A53B900F5D8738F
:1016800003EB01131B6840F2FF7404EA5353136029
:1016900009E000F5D87303EB01131B686FF0604499
:1016A00004EAD303536000F5D87303EB01131B68FE
:1016B00003F00203537200F5D87303EB01135B6868
:1016C00003F00F03937200F5D87303EB01135B680B
:1016D0001B0AD37400F5D87303EB01139B68D37214
:1016E00000F5D87303EB01139B681C0A147300F513
:1016F000D87303EB01139B681C0C547300F5D8736B
:1017000003EB01139B681B0E937300F5D87303EB77
:101710000113DB68D37300F5D87303EB0113DB68A7
:101720001C0A147400F5D87303EB0113DB681C0C5E
:10173000547400F5D87303EB0113DB681B0E93742C
:1017400021B9C36843F02003C36003E0036943F099
:101750002003036110BD00218171C17101724172CA
:101760008172C1728170C1700321017102214171C6
:1017700001210180704710B502460020936803F0F4
:101780008063B3F1806F00D110E0936803F00063D1
:10179000B3F1006F01D1012008E0936803F080539A
:1017A000B3F1805F01D1022000E00420042874D04E
:1017B00002F5C07303EB00131B6803F0010402F58C
:1017C000C07303EB00131C600B7A7BB94B7A0C8857
:1017D00043EA445302F5C07404EB00142468234325
:1017E00002F5C07404EB0014236010E00B7A4C681F
:1017F00043EAC4034C7A234302F5C07404EB00149B
:101800002468234302F5C07404EB001423608B7A30
:1018100003F00F038B7202F5C07303EB00135B68D8
:1018200023F00F0402F5C07303EB00135C6002F5B4
:10183000C07303EB00135B688C7A234302F5C0741A
:1018400004EB001463608B7B1C064B7B44EA03446F
:101850000B7B44EA0323CC7A234302F5C07404EBE8
:101860000014A3608B7C1C064B7C44EA03440B7C75
:1018700044EA0323CC7B234302F5C07404EB001439
:10188000E36002F5C07303EB00131B6843F001042F
:1018900002F5C07303EB00131C6010BD024600206C
:1018A00002EA01030BB1012000E0002070470000B4
:1018B00010B52DED088BFE48007E02287ED1FD4834
:1018C00090ED000B51EC100BFEF7DCFEFA490860BE
:1018D000084690ED000AF94803F064FEF84880EDF0
:1018E000000AF5480068FEF7A1FE41EC190BB0EEC6
:1018F000490AF0EE690AF349F34803F025FFB0EE18
:10190000408AF0EE608A51EC180BFEF7BBFEEF49FF
:101910000860EF480078002871D1EE48006840F276
:10192000CF7188422EDA4FF48071EB4801F0A3F8B2
:101930004FF40071E84801F0A0F8E1480068FEF7B4
:1019400075FEE64AE34B1B6802EBC30203C2E148A3
:1019500001680068401CDF4A1060E04800EBC100ED
:1019600090ED001BB0EE410AF0EE610A53EC102B33
:10197000DB4890ED001B51EC110BFEF779FCD84AC7
:1019800003C222E24FF48071D34801F076F80120BF
:10199000CF490870CA480068FEF748FECF4ACD4BD1
:1019A0001B6802EBC30203C2CC48CA49096800EBBA
:1019B000C10090ED001BB0EE410A00E00AE2F0EE3B
:1019C000610A53EC102BC64890ED001B51EC110B33
:1019D000FEF74EFCC24A03C29FEDC20B53EC102B24
:1019E000BF4890ED000B51EC100BFEF75AFD41EC97
:1019F000180BFEF747FEB1494862E6E1FFE7AF4842
:101A000090ED090AAE48D0ED000A30EEC00A10EEA3
:101A1000101A0846FEF70AFE41EC190BB0EE490A0F
:101A2000F0EE690A02F058FFB0EE408AF0EE608AEC
:101A300051EC180BFEF726FEAC490860084690ED05
:101A4000000ADFEDAB0AB4EEE00AF1EE10FA7DD247
:101A5000A0480068B0F5FA6F4CDAA0489D490968C3
:101A600000EBC10090ED001BB0EE410AF0EE610A00
:101A700053EC102B9A4890ED001B51EC110BFEF724
:101A800098FC974A03C28E480068FEF7CFFD934A40
:101A9000904B1B6802EBC30203C290488D49096852
:101AA00000EBC10090ED001BB0EE410AF0EE610AC0
:101AB00053EC102B8A4890ED001B51EC110BFEF7F4
:101AC000D7FB874A03C29FED870B53EC102B84484A
:101AD00090ED000B51EC100BFEF7E3FC41EC180B02
:101AE000FEF7D0FD754948627A480068401C794984
:101AF00008606AE10020774908607848096800EBCF
:101B0000C10090ED001BB0EE410AF0EE610A53EC0B
:101B1000102B734890ED001B51EC110BFEF749FCA4
:101B20006F4A03C266480068FEF780FD6B4A694B46
:101B30001B6802EBC30203C268486649096800EBF0
:101B4000C10090ED001BB0EE410A00E023E0F0EE92
:101B5000610A53EC102B624890ED001B51EC110B05
:101B6000FEF786FB5E4A03C29FED5E0B53EC102B23
:101B70005B4890ED000B51EC100BFEF792FC41EC32
:101B8000180BFEF77FFD4D49486252480068401C23
:101B90005049086019E1494890ED090A4B48D0EDD9
:101BA000000A30EEC00A10EE101A0846FEF73EFD9D
:101BB00041EC190B81F0004141EC180B9FED4D0BEE
:101BC00053EC102BFEF7FBFB4C4A03C24C48006859
:101BD000FEF72CFD41EC1A0B9FED460B53EC102B3E
:101BE000FEF7EDFB41EC190B53EC192B434890ED3C
:101BF000000B51EC100BFEF754FC41EC180BFEF7F8
:101C0000DDFC404908609FED400B53EC102B3B4836
:101C100090ED000B51EC100BFEF71CFD46D29FED32
:101C20003C0B53EC102B354890ED000B51EC100B96
:101C3000FEF7C5FB41EC1A0BFEF7C0FC364901EB81
:101C4000800090ED000A10EE104A2046FEF7EEFCF0
:101C500041EC180B9FED310B53EC102BFEF7AFFB53
:101C600041EC190BFEF70EFD2E490860084600688E
:101C7000FEF7DCFC41EC1B0B53EC1B2B1F4890EDDB
:101C8000000B51EC100BFEF70CFC41EC190B264835
:101C90000068FEF7CBFC41EC1A0B53EC192BFEF756
:101CA000E7FA41EC180BFEF7EDFC3FE041E00000E5
:101CB000B0180020A01700200800002028180020DD
:101CC0001000002080180020541800201800002068
:101CD000900000207000002000040240C06B002033
:101CE000780000200000000000409F401C00002001
:101CF0006027334208AF5DDA70581A3F8800002031
:101D000098000020E0160020000000000000000005
:101D10000000000000002440C4000020DB27918E5A
:101D2000BCFDEF3F94000020540000202B490860C8
:101D30004BE02B4890ED000B51EC100B81F0004173
:101D400041EC1B0B1FED0E0B53EC102BFEF737FB7A
:101D500041EC1A0BFEF732FC224901EB800090EDBA
:101D6000000A10EE104A2046FEF760FC41EC190B09
:101D70009FED1D0B53EC102BFEF721FB41EC180BD4
:101D8000FEF780FC1A49086008460068FEF74EFC22
:101D900041EC1B0B53EC1B2B114890ED000B51EC4D
:101DA000100BFEF77EFB41EC190B0C480068FEF7A8
:101DB0003DFC41EC1A0B53EC192BFEF759FA41ECA0
:101DC000180BFEF75FFC054908600A480068401CD4
:101DD00008490860BDEC088B10BD000054000020CD
:101DE00088000020C4000020813DCB9827FCEF3FF5
:101DF000980000203000002010B52DED108B8EB023
:101E00009FEDFE0AB0EE40AA9FEDFC0AF0EE40AA5C
:101E1000FB4890ED020ADFEDFB0A20EE200ADFED21
:101E2000FA0A80EE201AB0EE41FAF84890ED000A66
:101E3000DFEDF40A20EE200ADFEDF30A80EE201A2F
:101E4000B0EE418AEE4890ED020AF048D0ED000A6B
:101E500030EE200AEA4880ED020AED4890ED000AD3
:101E6000EA48D0ED000A30EE200AE94880ED000A89
:101E70009FEDE20AE54880ED000A00F065FDE548C7
:101E80000068002806DDE44890ED000AE34880ED94
:101E9000000A05E0E24890ED000AE04880ED000A03
:101EA000E0480068002806DDDF4890ED000ADF48C2
:101EB00080ED000A05E0DE4890ED000ADB4880ED89
:101EC000000AD648D0ED000AD24890ED000AB8EEDC
:101ED000C00A20EE800AB0EE40AAD448D0ED000A35
:101EE000D04890ED000AB8EEC00A20EE800AF0EE6D
:101EF00040AAC34890ED030AC848D0ED000A20EE7E
:101F0000200ACC4880ED000ABD4890ED040AC7487D
:101F1000D0ED000A20EE200AC74880ED000AB8483C
:101F2000D0ED030ABB4890ED000AB8EEC00A30EECF
:101F3000800AB34880ED030AD0ED040AB94890ED59
:101F4000000AB8EEC00A30EE800AAD4880ED040AFF
:101F5000BA4890ED000A70EE0F8A18EE900AFEF76C
:101F600065FBCDE90A019DED0A0B02F051FC8DEDF8
:101F70000C0B9DED0C0B51EC100BFEF783FB0CEEE4
:101F8000100A18EE900AFEF751FBCDE90A019DED0B
:101F90000A0B02F0ADFC8DED0C0B9DED0C0B51EC22
:101FA000100BFEF76FFB0CEE900AA44890ED000AB0
:101FB00030EE0F0AA248D0ED000A30EE209A19EE5A
:101FC000100AFEF733FBCDE90A019DED0A0B02F082
:101FD0008FFC8DED0C0B9DED0C0B51EC100BFEF7F7
:101FE00051FB0DEE100A19EE100AFEF71FFBCDE9AA
:101FF0000A019DED0A0B02F00BFC8DED0C0B9DED23
:102000000C0B51EC100BFEF73DFB09EE900AB5EE00
:10201000C08AF1EE10FA16D12AEE0C0A0AEECD0AA9
:102020008848D0ED000A30EE200A80ED000A2AEE42
:102030002C0A0AEEA90A8448D0ED000A30EE200AE4
:1020400080ED000A26E138EE88BA79EE08BA1BEE78
:10205000100AFEF7EBFACDE90A019DED0A0B02F03A
:1020600047FC8DED0C0B9DED0C0B51EC100BFEF7AE
:1020700009FB0EEE100A1BEE100AFEF7D7FACDE9A7
:102080000A019DED0A0B02F0C3FB8DED0C0B9DEDDB
:102090000C0B51EC100BFEF7F5FA0DEE900A1BEE4F
:1020A000900AFEF7C3FACDE90A019DED0A0B02F092
:1020B0001FFC8DED0C0B9DED0C0B51EC100BFEF786
:1020C000E1FA0FEE900A1BEE900AFEF7AFFACDE9A7
:1020D0000A019DED0A0B02F09BFB8DED0C0B9DEDB3
:1020E0000C0B51EC100BFEF7CDFA0EEE900AB0EE91
:1020F000000AC8EE000A10EE904A2046FEF796FA53
:10210000CDE900019DED000B02F0F2FB8DED020B1D
:102110009FED4E0B53EC102B9DED020B51EC100B71
:10212000FEF74DF93EEE6C0A20EE0A0A7EEEE90A51
:102130000AEEA00ACDE9060110EE101A0846FEF7D5
:1021400075FACDE904019DED060B53EC102B9DEDC6
:10215000040B51EC100BFEF7A4F9CDE90A01394844
:102160000068FEF763FACDE908019DED0A0B53EC18
:10217000102B9DED080B51EC100BFEF779F8CDE913
:102180000C019DED0C0B51EC100BFEF77BFA2D4969
:102190000860B0EE000AC8EE000A10EE904A204631
:1021A000FEF744FACDE900019DED000B02F0A0FB23
:1021B0008DED020B9FED250B53EC102B9DED020BCB
:1021C00051EC100BFEF7FBF83DEECC0AF1EE4A0A9B
:1021D00020EE200A7FEECD0A0AEEA00ACDE9060124
:1021E00010EE101A0846FEF721FACDE904019DED24
:1021F000060B53EC102B9DED040B2BE000000000B0
:1022000058000020DB0F49400000344354000020F8
:1022100050000020E41600209C000020AC000020AC
:10222000A4000020E8160020A0000020B00000203C
:10223000A8000020C0160020C4160020B80000200E
:10224000C0000020480000204C00002000000000DA
:102250000000004051EC100BFEF723F9CDE90A0114
:102260000E480068FEF7E2F9CDE908019DED0A0B82
:1022700053EC102B9DED080B51EC100BFDF7F8FF04
:10228000CDE90C019DED0C0B51EC100BFEF7FAF9AA
:10229000024908600EB0BDEC108B10BD4C00002050
:1022A00070B52DED0A8B01F0B1F800EE100AB8EE12
:1022B000400AB0EE40AA9FEDB00ACAEE000AAF484D
:1022C000C0ED000A90ED000AAD48D0ED000A30EEF6
:1022D000600AAC4880ED000AA84890ED000AA848C2
:1022E00080ED000AA84890ED000AA848D0ED000A49
:1022F00030EE200AA44880ED000A90ED010AA448BF
:10230000D0ED000A30EE200A9F4880ED010A90EDE2
:10231000020ADFEDA00A60EE200A9FED9F1A80EE10
:10232000810A9E48D0ED000A30EE200A10EE104AD5
:102330002046FEF77BF941EC1C0BB0EE4C0AF0EEA8
:102340006C0A02F065FAB0EE40BAF0EE60BA51ECF9
:102350001B0BFEF797F909EE900A2046FEF766F987
:1023600041EC1C0BB0EE4C0AF0EE6C0A02F0C0FA25
:10237000B0EE40BAF0EE60BA51EC1B0BFEF782F9FA
:1023800009EE100A864890ED000A864880ED000AA2
:10239000834890ED010A834880ED010A7A4890ED68
:1023A000000A8148D0ED000A00EEE90A7C4880ED81
:1023B000000A754890ED010A7B48D0ED000A00EE56
:1023C000C90A774880ED010A6F4890ED020A744807
:1023D00080ED020A90ED000A7248D0ED000A30EE5E
:1023E000600AB0EE408A6E4890ED010A6D48D0ED6B
:1023F000010A30EE600AF0EE408A624890ED000A71
:10240000C8EE000A10EE905A2846FEF70FF941EC8C
:102410001C0BB0EE4C0AF0EE6C0A644800F094FB22
:10242000B0EE40BAF0EE60BA51EC1B0BFEF72AF9A1
:102430005F490860534890ED000AC8EE800A10EE2C
:10244000905A2846FEF7F2F841EC1C0BB0EE4C0A0D
:10245000F0EE6C0A574800F077FBB0EE40BAF0EEB1
:1024600060BA51EC1B0BFEF70DF951494860524818
:1024700090ED000A4348D0ED000A80EE201A11EEDC
:10248000105A2846FEF7D2F841EC1C0BB0EE4C0A6D
:10249000F0EE6C0A494800F057FBB0EE40BAF0EE9F
:1024A00060BA51EC1B0BFEF7EDF841498860084615
:1024B00090ED000A20EE000AD0ED010A90ED011A1D
:1024C00000EE810A10EE101A0846FEF7AFF841EC54
:1024D0001C0BB0EE4C0AF0EE6C0A02F06DFAB0EE96
:1024E00040BAF0EE60BA51EC1B0BFEF7CBF8304966
:1024F000C860334890ED000A3248D0ED000A30EE53
:10250000600A2048D0ED000A80EE201A11EE105A21
:102510002846FEF78BF841EC1C0BB0EE4C0AF0EEAF
:102520006C0A294800F010FBB0EE40BAF0EE60BA39
:1025300051EC1B0BFEF7A6F824490860204890EDEB
:10254000000A204880ED000A194890ED030A1C4853
:1025500080ED000A9FED1E0A0C4880ED000A9FEDF9
:102560001C0A0B4880ED000A9FED190A124880ED05
:10257000000ABDEC0A8B70BD00401C46C816002046
:10258000CC160020D0160020580000204800002063
:102590004C000020DB0F494000003443BC00002009
:1025A000706B0020886B0020B400002070190020A0
:1025B000A06B0020B019002050000020F01900206E
:1025C000D4160020D8160020301A0020DC16002077
:1025D0000000000010B50649064800F0DFF828B1F9
:1025E0000349044800F008F802F0CAF810BD0000E2
:1025F00000800028B86402400246094B9A4201D28A
:10260000084801E00648103801F000531BB1064BA2
:102610000B40C36002E0044B0B4083607047000036
:1026200010640240006002407D0F7D0F21B10268FE
:1026300042F00102026003E0026822F0010202603F
:1026400070470000016821F0010101600021016074
:1026500041608160C1600161212141614A49884234
:1026600004D13D21484A103A91608CE04649183126
:10267000884205D14FF47461434A103A916082E078
:1026800041493031884205D14FF474113E4A103A25
:10269000916078E03C494831884205D14FF074613F
:1026A000394A103A91606EE037496031884204D16E
:1026B0003649354A103AD16065E03349783188426D
:1026C00004D13349304A103AD1605CE02E49903150
:1026D000884204D12F492C4A103AD16053E02A494C
:1026E000A831884205D14FF03D51274A103AD160B8
:1026F00049E02949884204D13D21274A083A11601E
:1027000041E025491831884205D14FF47461224ACD
:10271000083A116037E020493031884205D14FF442
:1027200074111D4A083A11602DE01B494831884256
:1027300005D14FF07461184A083A116023E0164938
:102740006031884204D11149134A121F11601AE006
:1027500011497831884204D10D490F4A121F116086
:1027600011E00D499031884204D10A490A4A121FEA
:10277000116008E00849A831884204D14FF03D516A
:10278000054A121F11607047106002403D00002092
:10279000400F002000003D201064024070B502464A
:1027A000002000240025124EB24201D2114B01E05C
:1027B0000F4B103B104E0E4036B11E2606EAD124B8
:1027C000166806EA040502E0566906F0800501F085
:1027D00000560EB15C6800E01C68084E344004EA04
:1027E000010616B10DB1012000E0002070BD00000F
:1027F00010640240006002403C0F3C0F7D0F7D0FD3
:1028000010B501F080034BB122B1436943F080035E
:10281000436103E0436923F08003436180290BD0C7
:102820002AB1036801F01E042343036004E0036837
:1028300001F01E04A343036010BD000010B5002288
:102840000268134B1A40CC680B6823434C6923433E
:102850008C692343CC6923430C6A23434C6A23438A
:102860008C6A23434C6B23438C6B23431A430260D3
:10287000426922F00702D1E90B3423431A43426133
:102880000B6943604B6883608B68C36010BD0000B8
:102890003F801CF04160704710B5D0E900239A4298
:1028A00000D110BD00F1080203689A5C0A7002684A
:1028B000521CC92392FBF3F403FB1422026000BFF5
:1028C000EFE7704770B52DED028B0446002501201F
:1028D00020606060B7EE000A84ED030A00BF0AE0E2
:1028E000144890ED000B51EC100BFDF786FE1249D9
:1028F00041F825006D1C052DF2DB0F481C3802F055
:1029000069FDB0EE408AF0EE608A51EC180BFDF7DD
:10291000B9FEE0619FED090A84ED050A9FED080A02
:1029200084ED040A9FED070A84ED0A0ABDEC028BD0
:1029300070BD0000A0170020CC1800205839343C8E
:10294000ACC52737000000000B48006847F6FF7150
:10295000081A0A49086047F6FF70074908600848E6
:102960000068A0F5FE40FF380649086047F6FF7092
:102970000349086070470000240C0040E416002062
:1029800024040040E816002047F6FF700249086062
:10299000024908607047000024040040240C0040F5
:1029A000F0B50A4600210023002400BF3DE00125C8
:1029B00005FA01F3156805EA03049C4234D1056861
:1029C0004F000326BE40B543056015794E00B54063
:1029D0000668354305601579012D02D01579022D61
:1029E00016D185684F000326BE40B54385605579F2
:1029F0004E00B540866835438560456801268E40A7
:102A0000B5434560456896798E40B6B2354345601A
:102A1000C5684F000326BE40B543C560D5794E005A
:102A2000B540C6683543C560491C1029BFD3F0BD09
:102A3000F0B5002300244D07ED0E02FA05F3CE1089
:102A400000F1200555F826504E07F70E0F26BE4020
:102A5000B543CF1000F1200646F82750CE1000F104
:102A6000200555F8265045EA0304CE1000F1200554
:102A700045F82640F0BD41837047018370474269A5
:102A80004A40426170470000012080F3138800BF74
:102A900000BF00BF00BF00BF00BFBFF34F8F00BF2C
:102AA00000BF00BF0948006800F4E060084908431F
:102AB000001D0649086000BF00BF00BFBFF34F8F75
:102AC00000BF00BF00BF00BF00BFFDE70CED00E08E
:102AD0000000FA050146D1E90020904204DD0879A2
:102AE0000A78801AC0B27047D1E90020904206DA15
:102AF000D1E90002801AC0F1C900C0B2F3E700209A
:102B0000F1E700000FE04FF480710748FFF7B3FFD3
:102B1000FA2002F0E9FC4FF480710348FFF7ADFFA3
:102B2000FA2002F0E1FCEEE7000402409FED040A07
:102B300080ED020A034991ED070A80ED000A704713
:102B400058FF7F3F2818002010B52DED088B044654
:102B5000B0EE408AF0EE608A94ED042BB0EE420AAB
:102B6000F0EE620A94ED0A2BB0EE421AF0EE621A11
:102B700053EC102B51EC110BFDF721FCC4E90401BF
:102B800094ED002BB0EE420AF0EE620A94ED062BB3
:102B9000B0EE421AF0EE621A53EC102B51EC110B0E
:102BA000FDF766FBC4E9060194ED022BB0EE420A84
:102BB000F0EE620A94ED062BB0EE421AF0EE621AC5
:102BC00053EC102B51EC110BFDF752FB41EC190BA0
:102BD00094ED061BB0EE410AF0EE610A53EC192B9E
:102BE00051EC100BFDF75DFCC4E9080194ED042BDA
:102BF000B0EE420AF0EE620A94ED0C2BB0EE421AEF
:102C0000F0EE621A53EC102B51EC110BFDF7D7FBD1
:102C100041EC1B0B53EC182BFDF7CEFB41EC1A0BD0
:102C200094ED081BB0EE410AF0EE610A53EC102B54
:102C3000FDF7C5FB41EC190B94ED041BB0EE410A06
:102C4000F0EE610A53EC102BFDF712FBC4E904010E
:102C500094ED081BB0EE410AF0EE610A53EC102B24
:102C60009FED0E1B51EC110BFDF7A3FB41EC190B73
:102C700094ED061BB0EE410AF0EE610A53EC102B06
:102C8000FDF79DFBC4E9060194ED040B84ED0E0BEA
:102C900094ED0E0BBDEC088B10BD00000000000091
:102CA0000000F03F26E01448008805281FDB0020C4
:102CB000114908801148007850B94FF4007110484C
:102CC000FFF7DDFE4FF480710D48FFF7D6FE0EE0F2
:102CD0004FF480710A48FFF7D2FE4FF400710848A4
:102CE000FFF7CBFE0748FEF7FBFA02F0CFFA012010
:102CF00000F050FBD7E7000036000020380000202D
:102D0000000402400064004000BFFEE7704700007E
:102D100070B5002100230F22C4781CB3174C24681F
:102D200004F4E064C4F5E064C4F30721C1F10404D1
:102D3000E3B20A4144789C40E1B2847814402143D4
:102D40000C07210E0E4C05786155047804F01F0520
:102D50000124AC4005786D11AD0005F1E025C5F802
:102D6000004109E0047804F01F050124AC40054D42
:102D70000678761145F8264070BD00000CED00E0A5
:102D800000E400E080E100E002490143024A1160F2
:102D9000704700000000FA050CED00E010B500F0EF
:102DA00015F800F03FFC00F067FC00F087FC00F035
:102DB0000FFC00F0E1FB00F01BFD00F045FD00F012
:102DC000BDFC00F0E3FC00F002F810BD7047704756
:102DD00010B500241A480078012830D1FDF7F0F929
:102DE00004461848007820B116480078401E15495E
:102DF000087014480078F8B913480078E0B900F07A
:102E000085FD12481249097850F8210011490860DF
:102E10000F4800781049097888420DD00D480068A5
:102E2000806B401C0B49096888630C480068401C93
:102E30000A490860FDF7E0F92046FDF7C5F910BD25
:102E4000FA170020ED170020EE170020D0B2002066
:102E5000F017002008180020EF170020D4170020DA
:102E600010B50B48007890B900F050FD0948007883
:102E70000949087009480749097850F821000849AC
:102E800008600846006807490860FDF7A0F910BD12
:102E9000FA170020F0170020EF170020D0B2002012
:102EA0000818002000180020704700002DE9FE4F90
:102EB00006460F4690461C464FF00009FDF780F984
:102EC00081461F48007828B14846FDF77DF93C202F
:102ED000BDE8FE8F1B4850F8240060BB0120194953
:102EE00041F824004846FDF76FF900234246394671
:102EF000304600F007F9824600200090019003461A
:102F0000024651460290204600F016FD054635B9AE
:102F10000D48007801280CD100F0BEFC09E0FDF757
:102F20004FF981460020074941F824004846FDF743
:102F30004BF92846CCE74846FDF746F92820C7E775
:102F4000ED170020D0B20020FA1700202DE9F04F35
:102F500085B081468A4693461C46DDE90F78129D6E
:102F600000200390FDF72CF903902348007830B13E
:102F70000398FDF729F93C2005B0BDE8F08F1F4804
:102F800050F8240088BB01201C4941F82400039814
:102F9000FDF71AF92A464146384600F0F1FD2B4666
:102FA0005A465146484600F0ADF804901198CDE9D4
:102FB000008002953A4620460E9B049900F0BCFC26
:102FC000064636B90E48007801280CD100F064FCA2
:102FD00009E0FDF7F5F803900020084941F82400C6
:102FE0000398FDF7F1F83046C6E7FFE70398FDF7D1
:102FF000EBF82820C0E70000ED170020D0B2002039
:10300000FA170020704770472DE9F04106460F4639
:1030100014464FF000081548007818B112202070AF
:10302000BDE8F081FDF7CCF88046FF2E03D11048B3
:10303000006890F832600F4850F826502DB940468D
:10304000FDF7C2F843202070EAE7012D05D1404684
:10305000FDF7BAF843202070E2E7EF644046FDF741
:10306000B3F80020207000BFDAE70000ED17002061
:1030700000180020D0B20020704700002DE9F04772
:1030800007460D464FF0000A002028606860FDF7F3
:1030900097F88246FF2F03D11848006890F83270E5
:1030A000174850F827402CB95046FDF78DF84320BB
:1030B000BDE8F087012C04D15046FDF785F8432088
:1030C000F6E7207C00F0010020B95046FDF77CF8BF
:1030D0004520EDE70026D4F80C90D4F8088050463F
:1030E000FDF772F800E0761C58F8041B0029FAD0AE
:1030F0002E60A9EB060068600020D9E700180020C8
:10310000D0B2002070B5044610460026051F2846A0
:103110002E60051F28462E604FF01536051F2846E5
:103120002E604FF01436051F28462E604FF01336E0
:10313000051F28462E604FF01236051F28462E60C8
:103140004FF01136051F28462E604FF01036051F30
:1031500028462E604FF00936051F28462E604FF096
:103160000836051F28462E604FF00736051F2846F3
:103170002E604FF00636051F28462E604FF00536AC
:10318000051F28462E604FF00436051F28462E6086
:103190004FF00336051F28462E604FF00236051FFC
:1031A00028462E607610051F28462E600026051F33
:1031B00028462E604FF080750560051F28462C605C
:1031C000B61E051F28462E604FF01236051F2846F2
:1031D0002E604FF00336051F28462E604FF0023652
:1031E000051F28462E607610051F28462E60051FF5
:1031F000284629604FF03136051F28462E604FF0D3
:103200003036051F28462E604FF02936051F284608
:103210002E604FF02836051F28462E604FF02736C7
:10322000051F28462E604FF02636051F28462E60C3
:103230004FF02536051F28462E604FF02436051F17
:1032400028462E604FF02336051F28462E604FF08B
:103250002236051F28462E604FF02136051F2846CE
:103260002E604FF02036051F28462E604FF019368D
:10327000051F28462E604FF01836051F28462E6081
:103280004FF01736051F28462E604FF01636051FE3
:1032900028462E604FF01136051F28462E604FF04D
:1032A0001036051F28462E604FF00936051F2846A8
:1032B0002E604FF00836051F28462E604FF0073667
:1032C000051F28462E604FF00636051F28462E6043
:1032D0004FF00536051F28462E604FF00436051FB7
:1032E00028462E6070BD00002DE9F04105464FF0E4
:1032F0000008FCF765FF8046FF2D05D120480068D7
:1033000090F83250012608E01D48006890F832001D
:10331000A84201D1012600E000261A4850F82540B5
:103320002CB94046FCF750FF4820BDE8F081012C45
:1033300004D14046FCF748FF4320F6E794F8347088
:103340001148C05D94F8351088430F49C8550846A8
:10335000C05D30B994F836100C48007888430B49AA
:10336000087094F8300040F0080084F830004046BF
:10337000FCF72AFF012E01D100F08EFA0020D4E7DD
:1033800000180020D0B20020F2170020F117002012
:103390007047000070B5054600261748007800B158
:1033A00070BD1648007800B1FAE71DB3FCF708FFBE
:1033B00006461348006890F834401248005D1049F2
:1033C000096891F8351088430E4908550846005D94
:1033D00040B90B48006890F836100B4800788843D5
:1033E0000949087006480068C5623046FCF7ECFEE3
:1033F00000F052FA00BFD3E7ED170020EE170020CF
:1034000000180020F2170020F117002070B50025E9
:10341000FCF7D6FE0546034804682846FCF7D4FEB0
:10342000204670BD1C18002070B5002600F072F810
:10343000FCF7C6FE064631480068401C2F4908606C
:103440003046FCF7C1FE2E480078012853D12D48A4
:10345000007820B1012804D0022809D103E0012519
:103460000BE0002509E0012501202649087004E051
:10347000012500202349087000BF00BF05B970BDB9
:103480002148046833E0FCF79BFE0646E06A50B32F
:10349000E06A401EE062E06A28BB94F8300000F069
:1034A000370040B114F8300F00F0C8002070012040
:1034B0006070303C02E0002084F8310094F8300065
:1034C00000F0080078B93434A0781049097808432E
:1034D0000E49087020780E49085C6178084314F89A
:1034E00034190B4A505464693046FCF76DFE94F869
:1034F00032003F28C7D100BFC1E700001C180020E0
:10350000FA170020101800200C180020F1170020D6
:10351000F2170020704700007FB5684600F0A6FC57
:1035200042F210720198B0FBF2F1481EB0F1807FB8
:1035300000D31BE0481E4FF0E022506150170F22CD
:10354000002807DA13071D0E094B00F00F04241F93
:103550001D5503E013071C0E064B1C5400BF002032
:103560004FF0E02290610720106100BF7FBD000096
:1035700018ED00E000E400E02DE9F0415021114891
:1035800000F02CF900250DE0681C86B20D4800EB18
:10359000051400EB06170020207067600AA0E060A9
:1035A000681C85B2042DEFD3064800EB05140020FB
:1035B0002070606004A0E060024804490860BDE833
:1035C000F081000080AC00203F000000DC170020EC
:1035D00070B54FF49671114800F000F900230FE028
:1035E000581C85B203EB83000C4901EB800405EB0A
:1035F000850001EB8006002020706660581C83B2B5
:103600000E2BEDD303EB8300044901EB8004002073
:103610002070606008460249086070BD54AB00200D
:10362000D817002000200A4908600A4908700A4992
:1036300008700A4908700A4908700A4908600A496E
:1036400008600A4908600A4908600A49087070471A
:103650001C180020ED170020EE170020FB1700209B
:10366000FA170020D4170020FC170020E8170020CC
:10367000E4170020EC17002000210A4A11700020F6
:1036800004E00021084A1154411CC8B20828F8D3AC
:103690000021064A1170064A1170064A1160064A56
:1036A00011607047F1170020F2170020EF1700207B
:1036B000F0170020081800200018002070B541F213
:1036C000AC41194800F08AF84FF48071174800F0B7
:1036D00085F8002413E0601CC5B2C4EBC40000EB05
:1036E0004000114901EB8003C5EBC50000EB400031
:1036F00001EB80065E610EA0D864601CC4B23E2C53
:10370000E9D3C4EBC40000EB4000074901EB8003A0
:103710000020586106A0D8640020064908600248CD
:103720000549086070BD0000D0B30020D0B2002071
:103730003F0000000C1800200418002000B587B0DE
:103740000320002180220A4BCDE90132CDE903108C
:103750004FF6FF703F23074A00900748FFF7F6FB3C
:1037600006AA06A13F20FFF74FFC07B000BD0000EE
:10377000D0B00020CCB20020793A000875432F4F1A
:10378000532D49492049646C6500000000B587B09D
:10379000032000214FF48072094BCDE90132CDE9BD
:1037A00003104FF6FE703E23064A00900648FFF7CE
:1037B000CDFB06AA05A13E20FFF726FC07B000BD01
:1037C000D0AC0020CCB00020A13A000875432F4FA8
:1037D000532D4949205374617400000004E0002215
:1037E00000F8012B4A1E91B20029F8D17047000061
:1037F00070B578211148FFF7F1FF00240EE004EBCB
:1038000044000E4901EBC005601C00EB400001EBD9
:10381000C00068600AA06861601C84B2042CEED30A
:1038200004EB4400054901EBC0050020686004A0DA
:10383000686108460349086070BD00007CC800202C
:103840003F000000141800202DE9F04160211048CD
:10385000FFF7C4FF00240DE0601C86B204EB4400B7
:103860000B4901EBC00506EB460001EBC0072F60DA
:10387000601C84B2032CEFD304EB4400044901EB39
:10388000C00500202860084602490860BDE8F081B4
:10389000F4C800201818002010B50024FCF790FC94
:1038A000044613480078F8B912480078E0B900F0EF
:1038B0002DF811481149097850F821001049086085
:1038C0000E4800780F49097888420DD00C480068EE
:1038D000806B401C0A49096888630B480068401CDB
:1038E00009490860FCF783FC2046FCF76DFC10BD1D
:1038F000ED170020EE170020D0B20020F0170020B6
:1039000008180020EF170020D41700200649074AA6
:103910001278885C0649095C034A515C01EBC001DE
:10392000044A117070470000885C0008F1170020FD
:10393000F2170020F01700202DE9F84F05460F463A
:1039400090469946DDE90AAB00200090FCF738FC70
:10395000009042480468002C7AD0183454F8040CC3
:103960003E4908600098FCF72FFC44F8187CA576C7
:10397000002020766076606144F814BC44F80CACFA
:1039800044F8108C0C9824F8080C24F8069C0020AD
:10399000E077E810207705F00700E076217F01202E
:1039A0008840A077E17E0120884060770020606039
:1039B000E060A0602062A0626062E062206328A0F4
:1039C0006063183C002606E0002104F1500040F836
:1039D0002610701CC6B2002EF6D02046FFF764FAFF
:1039E000FCF7EEFB00901F4840F825400098FCF7DC
:1039F000EBFB2046FFF706FBFCF7E2FB00901A48C2
:103A0000006860610020A0611748006810B1164886
:103A100000688461144804603434A078134909783C
:103A200008431249087020781149085C61780843FE
:103A300014F834190E4A50540E480078401C0D49B1
:103A400008700098FCF7C0FB0020BDE8F88FFFE786
:103A50000098FCF7B9FB4220F7E7000004180020AB
:103A60003F000000D0B200200C180020F117002009
:103A7000F2170020FB170020002400BF00BFFCF756
:103A80009FFB044605480068401C04490860204626
:103A9000FCF79AFBFFF7B7FAF1E70000FC170020EC
:103AA00000BF00BF03E04FF4FA60FFF773FC20484B
:103AB00000780028F7D01F4800686421B0FBF1F0BF
:103AC0001C4908600846006828B900201A49087097
:103AD000FF20FFF709FCFCF773FB0446154800685C
:103AE00064214843154908602046FCF76DFB00BF80
:103AF000FCF766FB04461148006811490860002085
:103B00000E4908602046FCF75FFB0D480068094934
:103B10000968B0FBF1F0C0F1640007490870FFF7D5
:103B2000ABFA00F00FF84FF47A70FFF733FCDFE7E1
:103B3000EC170020E4170020E0170020FC170020FD
:103B4000E81700207CB5002514E069462846FFF7F9
:103B500095FA064666B9094850F8254044B1012C4B
:103B600006D0D4E9020100EB810060640198A064F2
:103B7000681CC5B23F2DE8D97CBD0000D0B2002042
:103B800002F0010343B102F002032BB102E0491E2F
:103B9000002308C00029FAD1704700002DE0174823
:103BA0000088012826DB15480088401E134908803C
:103BB0001348007801280ED1FEF71EF9FEF770FBBE
:103BC00010480088401C0F4908800F480088401C9E
:103BD0000D4908800EE00D480088012804D101F04D
:103BE00055FB00200949088047F6FF700849086026
:103BF000084908600120FFF7CDFBD0E73000002026
:103C00009000002034000020360000203200002008
:103C100024040040240C004010B586B0044694ED06
:103C2000000AF7EE000A20EE200A3D4880ED000A67
:103C300094ED010AF7EE000A20EE200A394880EDE3
:103C4000000A3948029008208DF80E0000208DF8F7
:103C50000D0004208DF80C0041208DF80F0050213C
:103C60008DF810102E4890ED000AF2EE040A20EEB6
:103C7000200ABDEEC00A10EE100AC1B28DF8111074
:103C8000274890ED000AF2EE040A20EE200ABDEE6D
:103C9000C00A10EE100A010A8DF81210214890EDAA
:103CA000000AF2EE040A20EE200ABDEEC00A10EE71
:103CB000100AC1B28DF813101A4890ED000AF2EE06
:103CC000040A20EE200ABDEEC00A10EE100A010A16
:103CD0008DF8141094ED020AF2EE040A20EE200A88
:103CE000BDEEC00A10EE100AC1B28DF8151094EDA9
:103CF000020AF2EE040A20EE200ABDEEC00A10EE1F
:103D0000100A010A8DF8161001A90848FDF733FDC5
:103D1000042802D1012006B010BD0020FBE70000FE
:103D20000417002008170020010102000064004071
:103D30001CB50121084600F059F801210A2000F0C5
:103D400065F8022206212648FEF772FE02220721AC
:103D50002348FEF76DFEC020009002208DF804007D
:103D600000208DF8060003208DF8050000208DF856
:103D7000070069461A48FEF713FE02231A4603217C
:103D8000184800F0B5FA0121164800F0A5FA022201
:103D900000211348FEF74CFE022201211048FEF7D5
:103DA00047FE0320009002208DF8040000208DF8CB
:103DB000060003208DF8050000208DF807006946F5
:103DC0000748FEF7EDFD02231A460321064800F0DE
:103DD0008FFA0121044800F07FFAFEF7D5FD1CBDE3
:103DE0000000024000040040000C004029B1064AD7
:103DF00012680243044B1A6004E0034A12688243CB
:103E0000014B1A60704700003038024029B1064A61
:103E100012680243044B1A6004E0034A12688243AA
:103E2000014B1A60704700004038024029B1064A31
:103E300012680243044B1A6004E0034A126882438A
:103E4000014B1A60704700002038024029B1064A31
:103E500012680243044B1A6004E0034A126882436A
:103E6000014B1A607047000044380240F0B5002151
:103E700000220024022500260223324F3F6807F06B
:103E80000C0121B1042905D0082937D105E02E4FB6
:103E9000076036E02D4F076033E02A4F3F1F3F6831
:103EA000C7F38056274F3F1F3F6807F03F036EB1AF
:103EB000264FB7FBF3F7DFF88CC0ACF1040CDCF84D
:103EC00000C0CCF3881C07FB0CF40CE01E4FB7FBC2
:103ED000F3F7DFF870C0ACF1040CDCF800C0CCF3F1
:103EE000881C07FB0CF4174F3F1F3F68C7F30147BF
:103EF0007F1C7D00B4FBF5F7076002E0124F0760FE
:103F000000BF00BF0F4F3F6807F0F0010909104FD5
:103F10007A5C0768D74047600A4F3F6807F4E05172
:103F2000890A0B4F7A5C4768D7408760054F3F6826
:103F300007F46041490B064F7A5C4768D740C76079
:103F4000F0BD0000083802400024F40040787D01F4
:103F5000C417002000B585B01248019004208DF8E8
:103F60000A0000208DF8090004208DF80800412087
:103F70008DF80B0052218DF80C108DF80D10532187
:103F80008DF80E1069460848FDF7F5FB69460648AE
:103F9000FDF7F1FB042802D1012005B000BD00208F
:103FA000FBE70000010102000064004000B585B09D
:103FB0000D48019004208DF80A0000208DF80900BA
:103FC00004208DF8080040208DF80B0052218DF858
:103FD0000C108DF80D1053218DF80E106946034812
:103FE000FDF7C9FB05B000BD0101020000640040FF
:103FF000704700000CB50020019000903448006824
:1040000040F480303249086000BF3148006800F455
:10401000003000900198401C0190009818B9019858
:10402000B0F5A06FF1D12A48006800F4003010B15B
:104030000120009001E0002000900098012846D166
:1040400023484030006840F08050214940310860EA
:104050002048006840F480401E4908601C48083031
:1040600000681B49083108600846006840F40040B9
:1040700008600846006840F4A05008601648091F10
:104080000860081F006840F08070091F086000BFCA
:104090000F48006800F000700028F9D040F2056079
:1040A0000E4908600A480830006820F003000849FB
:1040B000083108600846006840F00200086000BF50
:1040C00003480830006800F00C000828F8D10CBD47
:1040D000003802400070004019544007003C024084
:1040E00010B586B004463548029008208DF80E00C1
:1040F00000208DF80D0004208DF80C0041208DF873
:104100000F0053218DF8101094ED000AF2EE040A0E
:1041100020EE200ABDEEC00A10EE100AC1B28DF8E2
:10412000111094ED000AF2EE040A20EE200ABDEE12
:10413000C00A10EE100A010A8DF8121094ED010A5F
:10414000F2EE040A20EE200ABDEEC00A10EE100ABC
:10415000C1B28DF8131094ED010AF2EE040A20EEBC
:10416000200ABDEEC00A10EE100A010A8DF81410E4
:1041700094ED020AF2EE040A20EE200ABDEEC00A17
:1041800010EE100AC1B28DF8151094ED020AF2EE8D
:10419000040A20EE200ABDEEC00A10EE100A010A41
:1041A0008DF8161001A90648FDF7E5FA042802D19A
:1041B000012006B010BD0020FBE700000101020055
:1041C0000064004010B5FBF7FBFF04460848007888
:1041D000401C0749087007480068401C05490860F2
:1041E0002046FBF7F1FFFFF71FF9FEF7F1FD10BDC9
:1041F000ED1700202018002010B51548006840F485
:104200007000134908601348006840F0010011492C
:10421000086000200F49083108600E4800680E4908
:1042200008400C4908600D48091D0860081F006817
:1042300020F48020091F0860002006490C31086026
:10424000FFF7D8FE4FF0006001498039086010BDCB
:1042500088ED00E000380240FFFFF6FE1030002439
:1042600010B50121880700F064F838B301218807F0
:1042700000F02FF80121880700F028F810480068A6
:10428000052810DA0F4890ED000B51EC100BFCF7ED
:10429000B4F90D490A4A126841F82200084800683A
:1042A000401C0749086006480068052806D1002020
:1042B00003490860022004491C39087610BD00003B
:1042C00020170020A0170020CC180020CA4302822B
:1042D0007047CA430282704721B1028842F001024E
:1042E000028004E002884FF6FE731A400280704795
:1042F000F0B50C4615461E46002100220023018918
:10430000028B038C4FF6F877394021434FF6FC4778
:104310003A4040F201173A434FF6DD773B404FF603
:10432000FF7707EA06172F433B430181028303848B
:10433000F0BD30B50246002000230024158A05EAAE
:104340000103958905EA010413B10CB1012000E0D5
:10435000002030BD1AB183890B43838102E0838939
:104360008B4383817047000000220288184B9842DB
:104370000ED0184B98420BD0B0F1804F08D0164B9E
:10438000984205D0154B984202D0154B984204D163
:104390004FF68F731A404B881A43124B984207D03E
:1043A000114B984204D04FF6FF431A400B891A4331
:1043B00002804B68C3620B880385054B984202D08C
:1043C000044B984201D18B7A038601238382704784
:1043D00000000140000401400004004000080040CB
:1043E000000C0040001000400014004016E00C4893
:1043F000008801280FDB0A480088401E0849088011
:104400000848FFF709FC084908700120FEF7C2FFC1
:104410000648FFF765FE0120FEF7BCFFE7E7000056
:1044200034000020706B002038000020A06B0020BA
:1044300070B5002440F225514D4800F0E2F8002804
:1044400017D020214A4800F0AFF840F225514848E3
:1044500000F0B3F8464800F08DF946490870464828
:10446000007838B908460078DD287FD1012042491C
:1044700008707BE03F4800784049414AB2F900208B
:1044800088543F480088401C00B23D4908800846D7
:10449000B0F90000072869DB002037490870384967
:1044A000088038490880002407E03448005D354919
:1044B0000988084433490880641C032CF5DB2F4825
:1044C00080792E49497940EA01202E49098888429D
:1044D00047D12A4D6D1C95F900002B4908800846EC
:1044E0002A4908602A482B490860681E0078096834
:1044F0000870681E8078274909684870234800685A
:10450000007824490968887020480068407821496B
:104510000968C8701E480068FCF732F81E4A03C2DA
:104520001E480068052810DA1B4890ED000B51EC7E
:10453000100BFCF762F81A49184A126841F8220079
:1045400016480068401C1549086014480068052892
:1045500006D1002011490860022011491C39087653
:1045600004E010480068401C0E49086070BD00005F
:1045700000100140AC1700209C17002048AB002021
:104580009E170020AE170020B4170020B817002097
:10459000B0170020BC170020A0170020A81700208B
:1045A000CC180020C017002001F40072B2F5007F83
:1045B00000D100BFCA430280704710B5002200231B
:1045C00040F66A14A14200D100BF0A1201249440AF
:1045D000A3B2DC43048010BD21B1828942F40052B1
:1045E000828104E082894DF6FF731A408281704710
:1045F0001AB1838A0B43838202E0838A8B438382CE
:10460000704770B50246002400230025002040F6C4
:104610006A16B14200D100BFC1F3421501F01F0379
:10462000012606FA03F3012D02D19689334006E0F4
:10463000022D02D1168A334001E0968A33400C12D3
:10464000012606FA04F41688344013B10CB1012097
:1046500000E0002070BDF0B50346002400260025D0
:10466000002040F66A17B94200D100BF1846C1F3D6
:10467000421401F01F06012707FA06F5012C01D1AB
:104680000C3004E0022C01D1103000E014301AB1DB
:1046900007682F43076002E00768AF430760F0BD7B
:1046A0002DE9FF4705460E460024A14600BFA0465F
:1046B000B08900B100BF2C8A24F44054F088044330
:1046C0002C82AC8941F20C608443B0883189084364
:1046D000718908430443AC81AC8A24F44074B089E6
:1046E0000443AC826846FFF7C1FB2048854202D0F4
:1046F0001F48854202D1DDF80C9001E0DDF80890FA
:10470000A88900F4004040B109EBC90000EB091092
:1047100031684900B0FBF1F707E009EBC90000EB95
:10472000091031688900B0FBF1F76420B7FBF0F0A5
:1047300004012009642101FB1078A88900F40040DD
:1047400040B1322000EBC800B0FBF1F000F00700F0
:10475000044308E0322000EB08106421B0FBF1F0C4
:1047600000F00F0004432C81BDE8FF8700100140DA
:104770000014014001468888C0F30800704700001B
:1047800038B5002500241148FEF7A4F90446142C7E
:1047900001DD142401E004B938BD002509E06946B3
:1047A0000A48FEF779F89DF8000009494855681C49
:1047B000C5B2A542F3DB21460648FEF76BF801219E
:1047C0000448FDF733FF00BFE6E7000074AA0020AD
:1047D00040AA0020B864024000BFFEE703B401987D
:1047E0004100009850EAC12018BF04204A0D18BFAC
:1047F00040F0010040F2FF72B2EB515F08BF40F0A1
:104800000200012808BF052002B070470000000028
:1048100010B52F499FED2C1B2DED020B84B0059890
:1048200020F000408842D8BF9DED040B2DDD2949C2
:10483000884209D1049840B94FF0010000F020FDF2
:1048400000F0EEFC06B010BD05DB9DED040B00F0A2
:10485000DBFC06B010BD68469DED040B00F0ECF8E3
:1048600010F0030004BF9DED021B9DED000B0CD06A
:1048700001280ED09DED021B9DED000B022817D0E4
:10488000012000F029FC06B010BD00F0F1FA06B0DE
:1048900010BD9DED021B9DED000B012000F01CFCE6
:1048A00051EC100B81F0004106B041EC100B10BD33
:1048B00000F0DEFA51EC100B81F0004106B041EC43
:1048C000100B10BD00000000000000000000000000
:1048D000FB21E93F0000F07F2DED020B019820F055
:1048E000004001909DED000B02B0704700000000F9
:1048F00010B52F499FED2C1B2DED020B84B00598B0
:1049000020F000408842DCBF00209DED040B32DD2A
:104910002849884209D1049840B94FF0010000F0BD
:10492000AFFC00F07DFC06B010BD05DB9DED040B77
:1049300000F06AFC06B010BD68469DED040B00F067
:104940007BF810F0030011D0012818D09DED021B58
:104950009DED000B02281AD000F08AFA51EC100BE2
:1049600081F0004106B041EC100B10BD9DED021B23
:104970009DED000B012000F0AFFB06B010BD9DEDDA
:10498000021B9DED000B00F073FA06B010BD012074
:1049900000F0A2FB51EC100B81F0004106B041EC9D
:1049A000100B10BD0000000000000000000000001F
:1049B000FB21E93F0000F07F00B52DED048BB0EE48
:1049C000409AF0EE609A83B051EC190BFBF73BFF75
:1049D00041EC180B18EE100A18EE901A8DED008BB2
:1049E000002818BF0120084320F00040C0F17F607C
:1049F00000F1E040C00F14D019EE101A19EE900A21
:104A00008DED009B002918BF0121084320F00040D4
:104A1000C0F17F6000F1E040C00F04BF012000F052
:104A20002FFCB0EE480A03B0F0EE680ABDEC048B30
:104A300000BD0000000000002DE9F14F04462DEDFF
:104A4000020B2DED088B8AB09FEDE70B80ED020B7A
:104A5000139EE74826F0004585420ADC9DED120BC7
:104A6000002084ED000B0AB0BDEC088B03B0BDE85C
:104A7000F08FE0489FEDE0AB9FEDE1BBA84247DD42
:104A8000E14F9FEDE39B9FEDE48B9DED120B53EC0B
:104A90001A2B51EC100B002E1CDDFBF78AFC41ECAD
:104AA000100BBD4208D053EC1B2B51EC100BFBF745
:104AB00080FCC4E900010BE053EC192B51EC100B06
:104AC000FBF777FC53EC182BFBF773FCC4E90001F0
:104AD0000120C8E7FBF7CCFB41EC100BBD4208D02E
:104AE00053EC1B2B51EC100BFBF7C2FBC4E900018C
:104AF0000BE053EC192B51EC100BFBF7B9FB53EC0B
:104B0000182BFBF7B5FBC4E900014FF0FF30AAE713
:104B1000C348A84279DB9DED120B51EC100B00F05D
:104B2000F3FC41EC180B9FEDC00B53EC102BFBF783
:104B300046FC9FEDBF1B53EC112BFBF799FBFBF7DA
:104B40003DFD0746FBF71CFD41EC190B53EC1A2BFE
:104B5000FBF735FC53EC182BFBF72EFC41EC180B44
:104B600053EC1B2B51EC190BFBF729FCDFF8C8A207
:104B700041EC100B4FEA15580125FA4453EC102B69
:104B800051EC180BFBF715FC032DC4E900013DD0D7
:104B9000C1F30A5005EB4511A8EB00001139814221
:104BA00034DA0AEB051BB0EE48AA9BED000BF0EEE1
:104BB00068AA53EC102B51EC190BFBF700FC41ECED
:104BC0001B0B51EC1A0B53EC1B2BFBF7F2FB41ECCC
:104BD000180B51EC1A0B53EC182BFBF7EAFB53ECB8
:104BE0001B2BFBF7E6FB9BED020B41EC1A0B53EC86
:104BF000102B51EC190BFBF7E2FB53EC1A2BFBF7D4
:104C0000D8FB41EC100B6D1CB8E70EE0002EA8BFDE
:104C10003846BFF628AF94ED000B51EC100B81F035
:104C20000041C4E9000178421DE7C6F3130040F4D7
:104C3000801EC6F30A50A0F2F530471100F01F05A0
:104C4000C5F12000DDF848B00890002006900790DC
:104C50000520EC467949002D07EB0002794408BF96
:104C600051F8221009D051F8223001EB8201AB40FB
:104C70004A68089922FA01F11943A1FB0E26A1FB0B
:104C80000B131A449A4234BF0123002303EB060896
:104C90000CEB8003D3E901A60E448E4234BF012100
:104CA000002192448A4411B1924502D903E0924511
:104CB00001D2012100E00021C3E901A641444CF8E2
:104CC0002010011EA0F10100C4DC029800F1005088
:104CD000850F0298DDE903678000DDF81480FBF79B
:104CE0004FFC41EC1A0B3046FBF75BFC9FED541B6D
:104CF00053EC112BFBF763FB41EC1B0B3846FBF726
:104D000050FC9FED511B53EC112BFBF758FB41EC72
:104D1000180B4046FBF745FC9FED4D1B53EC112B48
:104D2000FBF74DFB41EC190B51EC180B53EC192B15
:104D3000FBF79EFA53EC1B2BFBF79AFA53EC1A2B5A
:104D4000FBF796FACDE90801002008909DED080BCD
:104D500053EC1A2B51EC100BFBF72BFB53EC1B2BDA
:104D6000FBF727FB53EC182BFBF723FB53EC192B1A
:104D7000FBF722FB9FED381B53EC112BFBF71FFBBE
:104D80009FED370B41EC180B53EC102B9DED080BEE
:104D900051EC100BFBF713FB53EC182BFBF768FAE5
:104DA0009FED310B41EC180B53EC102B9DED080BD4
:104DB00051EC100BFBF703FB53EC182BFBF758FAE5
:104DC00041EC100B139810F0004F06D06D4251ECDF
:104DD000100B81F0004141EC100B284684ED000BD4
:104DE00041E600000000000000000000000000009C
:104DF000FB21E93F7CD9024000004054FB21F93FF0
:104E00003163621A61B4D03DFB21F93F000000001C
:104E10000000601A61B4D03D7370032E8A19A33B61
:104E2000FB2139410000000083C8C96D305FE43FB9
:104E3000000000000000E03F3A120000881100006E
:104E4000000000000000103E000000000000103CC8
:104E5000000000000000103A182D4454FB21F93DD9
:104E60003326A611460B113C00000054FB21F93DEE
:104E700010B52DED040B2DED088B82B0B0EE419AEC
:104E8000F0EE619A0B9820F000449FED4BABB4F12B
:104E9000795F11DA9DED0A0B51EC100BFBF78EFBDD
:104EA000002801BFB0EE4A0AF0EE6A0A02B0BDEC7B
:104EB000088B04BF04B010BD9DED0A0B53EC102B02
:104EC00051EC100BFBF77BFA41EC180B3C48062128
:104ED000B0EE480AF0EE680A784400F081F853EC2E
:104EE000182B51EC100BFBF76AFA9DED0A0B41EC05
:104EF0001B0B53EC192B51EC100BFBF760FA41EC38
:104F0000190B53EC1B2B51EC180BFBF758FA53EC15
:104F1000192BFBF74EFA9FED2C0B41EC190B53ECC0
:104F2000102B51EC180BFBF74AFA41EC100B2848F8
:104F3000844210DA53EC192B51EC100BFBF739FAC1
:104F400053EC1A2BFBF738FA41EC100B02B0BDEC16
:104F5000088B04B010BD1F48A042BCBF9FED1E1BB4
:104F60008DED001B06DBA4F50010019000200090E1
:104F70009DED001B51EC100B53EC112BFBF719FAB4
:104F80009DED000B41EC180B53EC102B51EC1A0B60
:104F9000FBF70FFA41EC1A0B53EC192B51EC180BE1
:104FA000FBF707FA53EC1A2BFBF706FA41EC100B50
:104FB000CCE7000000000000000000000000F03F0F
:104FC000AC0E000000000000000000000000E03F08
:104FD0003333D33F0000E93F000000000000D23F20
:104FE00070B504462DED028B4D1E00EBC500B0EEF2
:104FF000408AF0EE608A90ED000B35F0060017D085
:1050000053EC182B51EC100BFBF7D9F941EC100BBA
:105010006D1E04EBC50090ED001B51EC100B53EC22
:10502000112BFBF725F941EC100B35F00600E7D109
:10503000022D36D0042D1CD0062D1CBFBDEC028BDA
:1050400070BD53EC182B51EC100BFBF7B8F994ED35
:105050000A1B53EC112BFBF70BF953EC182BFBF746
:10506000AEF994ED081B53EC112BFBF701F941EC61
:10507000100B53EC182B51EC100BFBF7A0F994ED2F
:10508000061B53EC112BFBF7F3F853EC182BFBF733
:1050900096F994ED040B53EC102BFBF7E9F841EC77
:1050A000100B53EC182B51EC100BFBF788F994ED17
:1050B000021B53EC112BFBF7DBF853EC182BFBF71F
:1050C0007EF994ED001B53EC112BFBF7D1F8BDECEE
:1050D000028B41EC100B70BD31B504462DED040B75
:1050E0002DED0A8BB0EE41BAF0EE61BA0B989DED52
:1050F0000A0B20F00040B0F1795F0DDA51EC100B93
:10510000FFF76CFB042808BF00F09AF89DED0A0B2E
:10511000BDEC0A8B05B030BD53EC102B51EC100BDD
:10512000FBF74DF941EC180B9DED0A0B53EC182BD6
:1051300051EC100BFBF743F941EC190B2C48B0EE86
:10514000480AF0EE680A05217844FFF749FF9FED11
:105150002ACBB0EE40AAF0EE60AA9CB353EC1C2B15
:1051600051EC190BFBF72BF941EC1C0B53EC1A2BF0
:1051700051EC190BFBF723F99FED210B41EC190BB7
:1051800053EC102B51EC1B0BFBF719F953EC192BBB
:10519000FBF70FF953EC182BFBF711F953EC1B2B12
:1051A000FBF707F953EC1C2BFBF703F99DED0A1BEA
:1051B00053EC112BFBF700F9BDEC0A8B05B041EC69
:1051C000100B30BDFFE753EC1A2B51EC180BFBF71B
:1051D000F6F853EC1C2BFBF74BF853EC192BFBF7B1
:1051E000EEF89DED0A1B53EC112BFBF741F8E3E7BA
:1051F000340D000000000000495555555555C5BFF8
:10520000000000000000E03F10B553EC102B51EC03
:10521000100BFBF72DF841EC100B10BD0000000047
:105220009FED050B10B553EC102B51EC100BFBF759
:1052300038F941EC100B10BD000000000000000028
:105240009FED050B10B553EC102B51EC100BFBF739
:10525000B6F841EC100B10BD00000000000000107B
:1052600002E008C8121F08C1002AFAD1704770472F
:10527000002001E001C1121F002AFBD1704700008D
:1052800001490860704700002418002000B58BB069
:1052900001210846FEF7AAFD01214806FEF7B6FDEA
:1052A00001218806FEF7B2FD09220C214748FDF7CF
:1052B000BFFB09220B214548FDF7BAFB4FF4C05054
:1052C000029002208DF80C0000208DF80E008DF861
:1052D0000F008DF80D0002A93C48FDF761FB14207A
:1052E0008DF8040001208DF805008DF806008DF87A
:1052F000070001A8FDF70CFD3548FBF7F1FF08A8F2
:10530000FCF729FA00208DF826008DF827008DF88B
:1053100028008DF829008DF82A0001208DF82B0037
:1053200000208DF822008DF8230008208DF824003D
:1053300003208DF82500ADF8200008A92448FCF7CB
:1053400008F901208DF81A0000208DF81B000120BB
:105350008DF81C000820ADF810000020ADF81200F8
:105360004FF6FF70ADF81400C01FADF81600002016
:10537000ADF8180001208DF81D0004A8FBF7CCFF44
:1053800000208DF81A008DF81B0001208DF81C00FC
:105390000820ADF810004002ADF812004FF6FF7083
:1053A000ADF814004FF68070ADF816000020ADF88F
:1053B000180001208DF81D0004A8FBF7ADFF0122A5
:1053C00002210348FCF7BCF80BB000BD000002400E
:1053D0000064004070B52DED068B044600259FED5E
:1053E0003E0B84ED040BE0692060E06960600125FC
:1053F00018E004F11C0050F825002168814204D215
:1054000004F11C0050F82500206004F11C0050F845
:1054100025006168814204D904F11C0050F8250080
:1054200060606D1C052DE4DB002514E004F11C0117
:1054300051F82500FBF7B5F841EC180B94ED041B6F
:10544000B0EE410AF0EE610A53EC102BFAF710FFB0
:10545000C4E904016D1C052DE8DB6068FBF7A1F8C9
:1054600041EC180B2068FBF79CF841EC1A0B94ED0B
:10547000041BB0EE410AF0EE610A53EC102BFAF770
:105480009BFF41EC190B53EC182BFAF792FFC4E980
:10549000040194ED041BB0EE410AF0EE610A9FEDA9
:1054A000101B53EC112B51EC100BFAF7FAFF41ECE7
:1054B000180BFBF7E7F80646FBF7B8F8C4E902015A
:1054C0009FED050B84ED040B0120207694ED020B7B
:1054D000BDEC068B70BD0000000000000000000065
:1054E000000000000000084010B54AF21042002100
:1054F00007E000BF131EA2F10104A2B2FAD14B1CB7
:1055000099B28142F5DB10BD82B0CDE9000121F0F6
:10551000004001909DED000B02B051EC100B704764
:1055200070B52DED028B04460025012020606060DF
:10553000B7EE000A84ED030A00BF0AE0144890EDBC
:10554000000B51EC100BFBF758F8124941F82500FD
:105550006D1C052DF2DB0F481C38FFF73BFFB0EE4A
:10556000408AF0EE608A51EC180BFBF78BF8E06193
:105570009FED090A84ED050A9FED080A84ED040AEF
:105580009FED070A84ED0A0ABDEC028B70BD000096
:10559000A0170020CC180020CDCCCC3DACC52737BF
:1055A00000000000F0EE400AC0ED0A0A90ED030A88
:1055B00090ED051A30EE010A90ED031AC1EE001AC3
:1055C000C0ED081A90ED0A0A90ED071A30EE411A64
:1055D00090ED070AD0ED081A01EE810A80ED060A67
:1055E00090ED080AB7EE001A31EE400A90ED031A6A
:1055F00020EE010A80ED020A90ED060A80ED070A0E
:1056000090ED020A90ED041A30EE010A80ED030AD3
:1056100090ED060A704700009FED0C0B80ED040B27
:105620009FED0C0B80ED060B9FED0C0B80ED000B3E
:105630009FED0C0B80ED020B9FED040B80ED0A0B30
:105640009FED020B80ED0C0B704700000000000086
:105650000000F03F00000000000014402D431CEB50
:10566000E2361A3F7B14AE47E17A843F1CB5012134
:105670000220FEF7BBFB4FF44070009001208DF834
:10568000040000208DF806008DF807008DF8050055
:1056900069460748FDF784F94FF480710448FDF727
:1056A000ECF94FF400710248FDF7E7F91CBD00006A
:1056B0000004024010B5FEF79FFD4FF48060FDF737
:1056C00063FBFFF7D3FF00F043FA1548FFF728FF0D
:1056D0001448FDF7F7F81448FDF728FA134800F0CE
:1056E00005F9FEF725FBFFF7D1FD00F001FA1048A0
:1056F000FFF792FF0F48FFF78FFF0F48FFF78CFF70
:105700000E48FFF789FFFDF749FB0E230C4A0021E5
:105710000C48FDF7CBFBFDF7A3FB002010BD0000FC
:105720002818002054180020E018002080180020BD
:1057300070190020B0190020F0190020301A002044
:105740006C2B0020815A000870B52DED0E8B04469D
:105750000D46B0EE408AF0EE608A95ED070AD5ED71
:105760000A0A20EE200A10EE101A0846FAF75EFF29
:1057700041EC1A0B95ED060AD5ED090A20EE200A38
:1057800010EE101A0846FAF751FF41EC1C0B95ED8C
:10579000050A10EE101A0846FAF748FF41EC1E0BF6
:1057A00053EC182BFAF70BFE41EC1D0B53EC1C2BA2
:1057B000FAF75EFD41EC1B0B53EC1A2BFAF7F9FDDF
:1057C00041EC190BFAF75EFF286295ED090A85EDA9
:1057D0000A0A95ED080AD5ED090A30EE600A10EEC6
:1057E000101A0846FAF722FF3F4A03C295ED080A4D
:1057F00085ED090A51EC180BFAF744FFA06294ED0D
:10580000030AD4ED050A30EE200AD4ED030A80EE37
:10581000801A84ED081A94ED0A0AD4ED070A30EED6
:10582000600A10EE101A0846FAF700FF41EC1E0B52
:105830002D4890ED000B53EC102B51EC1E0BFAF79A
:10584000B8FD41EC1C0B94ED080A10EE101A084646
:10585000FAF7ECFE41EC1D0B53EC1C2BFAF7AFFDF5
:1058600041EC1A0B94ED070A10EE101A0846FAF7ED
:10587000DDFE41EC1C0B1C4890ED000B53EC102B93
:1058800051EC1C0BFAF7F4FC41EC1B0B53EC1A2BFC
:10589000FAF7EEFC41EC190BFAF7F4FEA06194ED77
:1058A000080AF7EE000A30EEC00AD4ED030A20EE33
:1058B000200A84ED020A94ED060A84ED070A94EDAD
:1058C000020AD4ED040A30EE200A84ED030A94EDB6
:1058D000060A10EE101A0846FAF7A8FE41EC100B63
:1058E000BDEC0E8B70BD00000000002010B52DED4A
:1058F000108B04464FF47A7020603220606060683C
:10590000FAF74FFE41EC1B0B6068FAF74AFE41ECD8
:105910001D0B9FED570B53EC102BFAF750FD41EC8C
:105920001C0B53EC1B2BFAF74AFD41EC190B2068BA
:10593000FAF737FE41EC1D0B6068FAF732FE41ECD6
:105940001F0B9FED4D0B53EC102BFAF738FD41EC7C
:105950001E0B53EC1D2BFAF732FD41EC1B0B21689B
:1059600001FB01F0FAF71DFE41EC1C0B53EC1B2B65
:10597000FAF77EFC41EC1A0B53EC192BFAF778FC82
:1059800041EC180BFAF77EFEA06094ED020A10EECF
:10599000101A0846FAF74AFE41EC190B6068FAF74C
:1059A00000FE41EC1B0B6068FAF7FBFD41EC1D0BA0
:1059B0009FED2F0B53EC102BFAF701FD41EC1C0B64
:1059C00053EC1B2BFAF7FBFC41EC1A0B53EC192B95
:1059D000FAF767FD41EC180BFAF754FE606194ED9D
:1059E000020A10EE101A0846FAF720FE41EC190BD5
:1059F0006068FAF7D6FD41EC1D0B2068FAF7D1FD7F
:105A000041EC1F0B9FED1C0B53EC102BFAF7D7FC4E
:105A100041EC1E0B53EC1D2BFAF7D1FC41EC1B0B98
:105A200021684900226801FB02F0FAF7BAFD41EC57
:105A30001C0B53EC1B2BFAF71BFC41EC1A0B53EC21
:105A4000192BFAF72EFD41EC180BFAF71BFEA0619B
:105A50002068404300EE100AB8EE400AD4ED020A76
:105A600080EE201A84ED071ABDEC108B10BD0000EB
:105A7000BA48BEC93CBD43403023337F7CD9324055
:105A800070B50446002500BFFDF746FDFAF798FB08
:105A9000054609230E4A00210E48FDF707FA0A239E
:105AA0000D4A00210D48FDF701FA0B230C4A002195
:105AB0000C48FDF7FBF90C230B4A00210B48FDF7BE
:105AC000F5F90E20FDF710FC2846FAF77DFB70BDB6
:105AD0006C3B00206B0900086C4B00209D3B0008CC
