:020000040800F2
:1000000040D000209D0100086935000861330008D8
:1000100065350008710E00089552000800000000C8
:10002000000000000000000000000000A9490008D6
:100030001F31000800000000030200087D4B00088B
:10004000B7010008B7010008B7010008B7010008B0
:10005000B7010008B7010008B7010008B7010008A0
:10006000B7010008B7010008B7010008B701000890
:10007000B7010008B7010008B7010008B701000880
:10008000B7010008B7010008B7010008B701000870
:10009000750E0008B7010008B7010008B701000895
:1000A000B7010008B7010008B7010008B701000850
:1000B000194C0008B7010008B7010008B701000893
:1000C000B7010008B7010008B7010008B701000830
:1000D000B7010008E94D0008454F0008B7010008C6
:1000E000B7010008B7010008B7010008B701000810
:1000F000B7010008B7010008B7010008B701000800
:10010000B7010008B7010008B7010008B7010008EF
:10011000B7010008B7010008B7010008B7010008DF
:10012000B7010008B7010008B7010008B7010008CF
:10013000B7010008B7010008B7010008B7010008BF
:10014000B7010008B7010008B7010008B7010008AF
:10015000B7010008B7010008312E0008B7010008F8
:10016000B7010008B7010008B7010008B70100088F
:10017000B7010008B7010008B7010008B70100087F
:10018000B7010008B7010008DFF80CD000F0AAFBA7
:1001900000480047B96B000840D00020064880475F
:1001A00006480047FEE7FEE7FEE7FEE7FEE7FEE75C
:1001B000FEE7FEE7FEE7FEE7B14B00088901000815
:1001C000EFF3108072B6704780F3108870472048B4
:1001D0004FF0FF010170002080F309881D480121C4
:1001E00001701D484FF08051016062B6FEE71A4869
:1001F0004FF080510160704717484FF08051016007
:10020000704772B6EFF3098040B1403880EC108A35
:10021000203880E8F00F11490968086000B51048DF
:1002200080475DF804EB0F480F490A7802700B48CD
:100230000E490A680260106890E8F00F203090ECD8
:10024000108A403080F309884EF0040E62B6704781
:1002500022ED00E09E19002004ED00E0A41900202A
:10026000ED3B00089319002094190020AC190020E0
:100270002DE9FE4F804681EA0300C00F0C46009036
:1002800021F0004123F00045B8EB0200A94105D25E
:100290004046214690461C460B46024623F000404D
:1002A000104347D0270DC7F30A00C3F30A51029049
:1002B000401A019040286BDAC3F3130040F4801B0E
:1002C0000098924620B10023D2EB030A63EB0B0B9C
:1002D00001985946C0F14002504600F0EDF906463B
:1002E0000D4650465946019A00F005FA10EB0800F9
:1002F0006141002487EA115284EAE7731A4340D02F
:10030000009A62B3019A012A4FEA075215DC001BDA
:1003100061EB02014FF0004202EA0752CDE90042D0
:10032000001C41F5801132462B4600F03CFA03B028
:10033000BDE8F08F40462146F9E7001B61EB020162
:10034000001C41F5801300185B412018A2F500172E
:1003500047EB030140EAD570B6196D4111E06D0815
:100360004FEA360645EAC0754FEA0752001B61EBBB
:100370000201001C41F5801149084FEA30000019C4
:10038000514132462B4603B0BDE8F04F00F0FCB9B6
:100390000098012240000023D0EB020263EBE073DF
:1003A000009821464FEAE074B8EB000061EB0401CD
:1003B000E9E783F000435BE781F0004158E72DE96E
:1003C000FE4F81EA030404F0004421F00041009450
:1003D0004FF0000B23F0004350EA01045ED052EAD4
:1003E00003045BD0C3F30A54C1F30A552C44A4F2AE
:1003F000F3340194A0FB0254C1F3130141F48011C2
:10040000C3F3130343F4801301FB024400FB034EC8
:10041000840A970A44EA815447EA8357A4FB076891
:1004200002958D0A05FB07854FEA932C04FB0C54BB
:100430002705029D4FEA065847EA1637B5EB08052F
:100440006EEB070C870E920E47EA811742EA831281
:10045000A7FB0201B6EB0B0164EB00042B0D43EA92
:100460000C335E1844EB1C50DA465146E7FB0201A0
:10047000C5F313044FEA0B3343EA14534FEA043233
:10048000019C43EA0603A4F10C040294009CCDE90C
:1004900000B400F088F903B0BDE8F08F00200146F9
:1004A000F9E72DE9F04D81EA030404F0004B21F057
:1004B000004514464FF0000A23F0004150EA0502BF
:1004C00020D054EA01021DD0C5F30A570246C5F3F5
:1004D0001303C1F31300C1F30A5640F4801543F42B
:1004E0008013A7EB0608101BD64608F2FD3873EB05
:1004F000050002D308F1010801E092185B41B8F150
:10050000000F03DA00200146BDE8F08D00204FF413
:100510008011064684460EE0171B73EB050705D3D2
:10052000121B63EB050306434CEA010C49084FEA32
:10053000300092185B4150EA0107EDD152EA030006
:1005400012D082EA040083EA0501084305D0101B9B
:10055000AB4106D20122002306E000224FF0004307
:1005600002E06FF0010253101AEB06004CEB085149
:1005700010EB0A0041EB0B01BDE8F04D00F004B9AF
:100580000EB5C10F80EAE0700844CA07002140F2AE
:1005900033438DE80E000A460B4600F004F903B021
:1005A00000BD0EB540F2334102910021CDE90011AA
:1005B0000A460B4600F0F7F803B000BD70B5C1F372
:1005C0000A5201F000450024C1F3130140F2FF3349
:1005D00041F480119A4201DA002070BD40F23343A9
:1005E0009A42A2F2334203DC524200F074F800E077
:1005F00090402C43F1D0404270BD00F0004230F0FA
:1006000000400AD0C10D01F56071C0F3160042EA46
:100610000151C2084007114370470020014670474E
:1006200030B5041E71F1000404DB4FF00044404279
:1006300064EB0101141E73F1000405DB1C464FF04E
:100640000043524263EB04038B4208BF824230BD39
:1006500030B5041E71F1000404DB4FF00044404249
:1006600064EB0101141E73F1000405DB1C464FF01E
:100670000043524263EB0403994208BF904230BDED
:1006800001F0004330B421F0004150EA010206D0ED
:100690000A0DA2F56072C1F31301002A02DC30BC1E
:1006A00000207047440F44EAC104C100E01830BC88
:1006B00000EBC25000F031B8202A04DB203A00FAE7
:1006C00002F1002070479140C2F1200320FA03F3A9
:1006D000194390407047202A04DB203A21FA02F0A7
:1006E0000021704721FA02F3D040C2F1200291406C
:1006F000084319467047202A06DBCB17203A41FAF7
:1007000002F043EAE07306E041FA02F3D040C2F19E
:10071000200291400843194670470029A8BF70473E
:10072000401C490008BF20F00100704710B4B0FA27
:1007300080FC00FA0CF050EA010404BF10BC7047C2
:1007400049B1CCF1200421FA04F411FA0CF118BFDC
:10075000012121430843A3EB0C01CB1D4FEA0061AB
:100760004FEA102042BF002010BC704700EBC3507E
:1007700010440029A4BF10BC7047401C490008BFAA
:1007800020F0010010BC704710B5141E73F1000476
:1007900008DA401C41F1000192185B411A4301D173
:1007A00020F0010010BD2DE9F04D92469B4611B19D
:1007B000B1FA81F202E0B0FA80F220329046FFF7FF
:1007C0007BFF04460F4640EA0A0041EA0B0153460C
:1007D0005A46084313D0114653EA010019D0C8F114
:1007E00040025046FFF777FF05460E4650465946F1
:1007F0004246FFF761FF084305D0012004E0204690
:100800003946BDE8F08D0020054346EAE0762C43EA
:1008100037430A986305E40AA0EB08000022FD0AAA
:1008200044EA47540A3002D500200146E9E70105B1
:1008300010196941DDE9084500196941BDE8F04D2D
:10084000A2E72DE9F04D00231A461B1A8A4103DB6B
:1008500000200146BDE8F08DC1F30A52C1F3130137
:1008600041F480154FF0000BD10702D100186D4103
:10087000521E0027044640F2FF11384601EB620A7F
:100880003E468046024600204FF48011FFF723FFCA
:10089000C2197141BB1846EB0100B4EB030C75EBB8
:1008A000000C04D3E41A65EB000517460E46241924
:1008B00008F101006D4180463428E3DDF91946EB6B
:1008C0000600091BA84103D24FF0FF32134601E096
:1008D000002213461BEB070046EB0A51BDE8F04D22
:1008E000FFF752BF064C074D06E0E06840F00103F9
:1008F00094E8070098471034AC42F6D3FFF748FC61
:10090000487500086875000870B58D1810F8014B1F
:1009100014F0030201D110F8012B231106D110F8B5
:10092000013B03E010F8016B01F8016B521EF9D195
:10093000ABB110F8012B04F00C048A1A0C2C03D074
:10094000A2EB84129B1C08E010F8014BA2EB0422DE
:10095000F8E712F8014B01F8014B5B1EF9D5A942EB
:10096000D4D3002070BD000012E00A4890ED000AC8
:10097000B5EEC00AF1EE10FA03D10748806B0549C5
:10098000086001F0B9F900F009F8012003F030F92E
:10099000EBE70000706D0020CCAC002010B52DED11
:1009A000108B03F061F900EE100AB8EE400AB0EEC9
:1009B000408AD24890ED000AD14880ED000A9FEDB0
:1009C000D10AC8EE000ACD48C0ED000A90ED000A39
:1009D000CB48D0ED000A30EE600AF0EE408ACA48FB
:1009E000806B00EE100AC948D0ED000A30EE600AB4
:1009F000C748D0ED000A30EEC00ADFEDC60AB4EEFB
:100A0000E00AF1EE10FA20DDBF48806B00EE100A1C
:100A1000BE48D0ED000A30EE600ABD48D0ED000AB5
:100A200030EEC00ADFEDBC0AB4EEE00AF1EE10FAD7
:100A30000BD2BA480088401C00B2B8490880B848B8
:100A40000088401E00B2B6490880AF48806B00EEB7
:100A5000100AAE48D0ED000A30EE600AAC48D0ED86
:100A6000000A30EEC00ADFEDAF0AB4EEE00AF1EEA4
:100A700010FA20D2A448806B00EE100AA348D0EDF3
:100A8000000A30EE600AA248D0ED000A30EEC00A3B
:100A9000DFEDA50AB4EEE00AF1EE10FA0BDD9F4897
:100AA0000088401E00B29D4908809D480088401C77
:100AB00000B29B4908809948008860B99248806BD1
:100AC00000EE100A9148D0ED000A30EE600A974817
:100AD00080ED000A3AE09148B0F90000002818DDE6
:100AE0008948806B00EE100A8848D0ED000A70EE4D
:100AF000600A8A4800884FF4B47110FB01F000EEE0
:100B0000100AB8EEC00A30EE800A884880ED000A6C
:100B10001CE08348B0F90000002817DD7A48806B9C
:100B200000EE100A7948D0ED000A70EE600A7C48A9
:100B300000884FF4B47110FB01F000EE100AB8EE1B
:100B4000C00A30EEC00A794880ED000A6E48806B1A
:100B500000EE100A6D48D0ED000A30EE600A6C48D5
:100B600080ED000A714890ED000A7148D0ED000A4E
:100B700030EE600A6F4880ED000A6C4890ED000A84
:100B80006B4880ED000A05F0F1FD68480068FFF74A
:100B900034FD41EC1F0B9FED680B53EC102BFFF75E
:100BA0000EFC41EC1E0BB0EE4E0AF0EE6E0A04F0A5
:100BB00063FDB0EE40CAF0EE60CA53484168084693
:100BC000FFF71BFD41EC1D0B53EC1C2BFFF7F7FB54
:100BD00041EC1A0B55480068FFF70FFD41EC1F0B65
:100BE0009FED550B53EC102BFFF7E9FB41EC1E0B6F
:100BF000B0EE4E0AF0EE6E0A04F0AEFDB0EE40CA62
:100C0000F0EE60CA404801680846FFF7F6FC41EC88
:100C10001D0B53EC1C2BFFF7D2FB41EC1B0B53ECD1
:100C20001A2BFFF7C6FB41EC190BFFF729FD4449CE
:100C300008603E480068FFF7E0FC41EC1F0B9FEDA9
:100C40003E0B53EC102BFFF7BAFB41EC1E0BB0EE42
:100C50004E0AF0EE6E0A04F07FFDB0EE40CAF0EEF0
:100C600060CA294841680846FFF7C7FC41EC1D0BE4
:100C700053EC1C2BFFF7A3FB41EC1A0B2B4800682D
:100C8000FFF7BBFC41EC1F0B9FED2B0B53EC102B24
:100C9000FFF795FB41EC1E0BB0EE4E0AF0EE6E0A2C
:100CA00004F0EAFCB0EE40CAF0EE60CA16480168F3
:100CB0000846FFF7A2FC41EC1D0B53EC1C2BFFF781
:100CC0007EFB41EC1B0B53EC1A2BFFF7D1FA41ECE6
:100CD000190BFFF7D5FC1A494860144890ED000A3B
:100CE0001348D0ED000A30EE600AC0EE280A08462C
:100CF000C0ED020ABDEC108B10BD0000A41800204E
:100D0000A818002000401C46CCAC0020706D0020CC
:100D1000580000200000AF430000B9434C00002001
:100D20004E0000200000AFC30000B9C350000020F7
:100D3000540000205C0000204DC9077746DF913F3A
:100D40007C6D002010B586B0044632480290042025
:100D50008DF80E0000208DF80D0004208DF80C0099
:100D600041208DF80F0047218DF8101094ED000AF6
:100D7000F2EE040A20EE200ABDEEC00A10EE100AC0
:100D8000C1B28DF8111094ED000AF2EE040A20EEC3
:100D9000200ABDEEC00A10EE100A010A8DF81210EA
:100DA00094ED010AF2EE040A20EE200ABDEEC00A1C
:100DB00010EE100AC1B28DF8131094ED010AF2EE94
:100DC000040A20EE200ABDEEC00A10EE100A010A45
:100DD0008DF8141094ED020AF2EE040A20EE200AB7
:100DE000BDEEC00A10EE100AC1B28DF8151094EDD8
:100DF000020AF2EE040A20EE200ABDEEC00A10EE4E
:100E0000100A010A8DF8161001A9034800F0D7FE58
:100E100006B010BD01010200006400402DE9F0435E
:100E200085B004460D4616461F46DDE90C890E487E
:100E3000019000208DF8090004208DF80800E0B230
:100E40008DF80A008DF80B508DF80C608DF80D7040
:100E50008DF80E808DF80F906946044800F0AFFEC3
:100E600005B0BDE8F083000001010200006400400D
:100E700000BFFEE700B595B00221FE4800F0F4FC8B
:100E8000002876D00221FB4800F0FAFB0FAA0021CF
:100E9000F84800F00CFE1098B0F5803F6AD19DF83C
:100EA000470000287DD10FA8007B432802D052289C
:100EB0006CD126E09DF84600052818D10FA8407B8C
:100EC00057280AD15520482157234322CDE9001045
:100ED00040210520FFF7A2FF12E00020009003460A
:100EE00004227F2101900220FFF798FF08E00020F4
:100EF0000090034602227F2101901046FFF78EFFEB
:100F00004EE09DF84600042836D10FA8407B5228B9
:100F100025D10FA8807B532821D19FEDD70AD74830
:100F200080ED000A9FEDD40A80ED010A9FEDD20A00
:100F300080ED020A9FEDD00AD14880ED000A9FEDB6
:100F4000CE0A80ED010A9FEDCC0A80ED020A012055
:100F5000CC49088002F0C6F903F098FC15E00020A7
:100F60000090034604227F2101900220FFF756FFE4
:100F70000BE0A1E01EE014E00020009003460222F6
:100F80007F2101901046FFF749FF09E00020009003
:100F9000034601227F2101900220FFF73FFF00BF9F
:100FA00008E000200090034602467F2101900220C5
:100FB000FFF734FF1098B0F5813F7DD19DF84700D1
:100FC00001287AD10FA8007B562877D006DC41286B
:100FD00075D04C2874D0522873D104E0582871D0B1
:100FE0005928F9D19BE19DF8460008286BD10FA83C
:100FF000417C807C41EA002000B20790FFF7C0FAF4
:101000009FEDA10B53EC102BCDE908019DED080BD2
:1010100051EC100BFFF7D3F9CDE90A019DED0A0B56
:1010200051EC100BFFF72CFB94498860084690EDBB
:10103000020ADFED970A20EE200ADFED960A80EE25
:10104000201A954890ED000A31EE000A8DED0E0A47
:101050000E98FFF7D2FACDE908019DED080B04F0D8
:101060000BFB8DED0A0B9DED0A0B51EC100BFFF7FE
:1010700007FB0C900E98FFF7C0FACDE908019DED33
:10108000080B04F069FB8DED0A0B9DED0A0B51EC8A
:10109000100BFFF7F5FA0D908048D0ED000A9DED9A
:1010A0000C0A20EE800A8DED050A0598FFF7A5FAD7
:1010B000CDE908010FA807E0C8E2C8E24DE28BE2E3
:1010C000B4E1B9E288E07DE0417B807B41EA002029
:1010D00000B20190FFF754FA9FED6B0B53EC102B0D
:1010E000CDE902019DED020B51EC100BFFF767F902
:1010F0009FED6B0B53EC102BCDE904019DED040B20
:1011000051EC100BFFF7CDF9CDE906019DED080B71
:1011100053EC102B9DED060B51EC100BFFF7A8F8CC
:10112000CDE90A019DED0A0B51EC100BFFF7A8FA6F
:10113000524908605948D0ED000A9DED0D0A20EE95
:10114000800A8DED050A0598FFF757FACDE90801E9
:101150000FA8C17B007C41EA002000B20190FFF79C
:101160000FFA9FED490B53EC102BCDE902019DEDD9
:10117000020B51EC100BFFF722F99FED490B53ECDA
:10118000102BCDE904019DED040B51EC100BFFF782
:1011900088F9CDE906019DED080B53EC102B9DED70
:1011A000060B51EC100BFFF763F8CDE90A019DED3A
:1011B0000A0B51EC100BFFF763FA3049486003F05B
:1011C000F7FA08E000200090034602227F210190F8
:1011D0001046FFF723FE39E29DF8460004287CD133
:1011E000264890ED020ADFED2A0A20EE200A9FED44
:1011F000291AC0EE010A284890ED000A30EE800A54
:101200008DED0E0A0E98FFF7F8F9CDE908019DED76
:10121000080B04F031FA8DED0A0B9DED0A0B51EC31
:10122000100BFFF72DFA0D901C48D0ED000A9DED34
:101230000D0A20EE800A8DED050A0598FFF7DDF90D
:10124000CDE908010FA8417B807B41EA002000B274
:101250000190FFF795F99FED0C0B53EC102BCDE9A6
:1012600002019DED020B51EC100BFFF7A8F89FED6A
:101270000C0B19E000640040000000007400002026
:10128000946D0020340000209A9999999999B93F5A
:10129000DB0F494000003443D4000020CC00002084
:1012A000000000000000F03F53EC102BCDE90401DA
:1012B0009DED040B51EC100BFFF7F3F8CDE906019F
:1012C0009DED080B53EC102B9DED060B51EC100B14
:1012D000FEF7CEFFCDE90A0100E016E09DED0A0B16
:1012E00051EC100BFFF7CCF9DE49086000210FA884
:1012F000807BCDE900010FA8407B034658224121A5
:101300000C900420FFF78AFD08E0002000900346BF
:1013100002227F2101901046FFF780FD96E19DF8A3
:101320004600042878D1CF4890ED020A5FED280AE4
:1013300020EE200A1FED291AC0EE010ACA4890EDDE
:10134000000A30EE800A8DED0E0A0E98FFF755F96F
:10135000CDE908019DED080B04F0FEF98DED0A0BB7
:101360009DED0A0B51EC100BFFF78AF90D90BF4869
:10137000D0ED000A9DED0D0A20EE800A8DED050AE4
:101380000598FFF73AF9CDE908010FA8417B807B6A
:1013900041EA002000B20190FFF7F2F81FED460B82
:1013A00053EC102BCDE902019DED020B51EC100B1B
:1013B000FFF705F81FED460B53EC102BCDE90401A8
:1013C0009DED040B51EC100BFFF76BF8CDE9060116
:1013D0009DED080B53EC102B9DED060B51EC100B03
:1013E000FEF746FFCDE90A019DED0A0B51EC100B0B
:1013F000FFF746F99B49486000210FA8807BCDE9A3
:1014000000010FA8407B0346592241210C90042083
:10141000FFF704FD09E0FFE70020009003460222E9
:101420007F2101901046FFF7F9FC0FE19DF846007F
:1014300006287DD10FA8C17B007C41EA002000B2C4
:101440000990FFF79DF8CDE90A019DED0A0B51ECDB
:10145000100BFFF715F983498860084690ED020AE2
:101460008348D0ED000A30EE200A5FED770A60EE87
:10147000200A1FED781A80EE810A8DED0E0A0E9873
:10148000FFF7BBF8CDE908019DED080B04F0F4F877
:101490008DED0A0B9DED0A0B51EC100BFFF7F0F8E8
:1014A0000D907248D0ED000A9DED0D0A20EE800AE5
:1014B0008DED050A0598FFF7A0F8CDE908010FA802
:1014C000417B807B41EA002000B20190FFF758F891
:1014D0001FED930B53EC102BCDE902019DED020B98
:1014E00051EC100BFEF76BFF1FED930B53EC102B21
:1014F000CDE904019DED040B51EC100BFEF7D1FF7B
:10150000CDE906019DED080B53EC102B9DED060B6C
:1015100051EC100BFEF7ACFECDE90A019DED0A0B74
:1015200051EC100BFFF7ACF84E490860002000E0CA
:1015300009E053210B465222CDE90010412104203D
:10154000FFF76CFC08E000200090034602227F2198
:1015500001901046FFF762FC78E09DF846000428F1
:1015600030D10FA8417B807B41EA002000B2099076
:10157000FFF706F81FEDBC0B53EC102BCDE90A0169
:101580009DED0A0B51EC100BFEF719FFCDE90C0194
:101590009DED0C0B51EC100BFFF772F800EE100AEA
:1015A000344880ED000A00210FA8807BCDE90001BE
:1015B0000FA8407B0346562241210E900420FFF7DE
:1015C0002DFC08E000200090034602227F210190BC
:1015D0001046FFF723FC39E09DF84600042821D18E
:1015E0000FA8407B432807D10FA8807B472803D151
:1015F0002148FFF7A7FB1EE00FA8407B432807D137
:101600000FA8807B592803D11C4803F045FE12E047
:1016100000200090034604227F2101900220FFF762
:10162000FDFB08E000200090034602227F2101908C
:101630001046FFF7F3FB09E000200090034601226B
:101640007F2101900220FFF7E9FB00BF08E00020A6
:101650000090034602467F2101900220FFF7DEFB47
:1016600015B000BD74000020D4000020CC00002084
:10167000D0000020C8180020E46D00207C6D002000
:10168000B1F5007F3AD00FDC202928D006DC0129F3
:101690001CD004291DD0082940D11DE0402921D0AB
:1016A000B1F5807F3AD126E0B1F5004F31D006DCAC
:1016B000B1F5806F25D0B1F5006F2FD124E0B1F5E1
:1016C000803F12D0B1F5003F28D111E0154A826069
:1016D00025E00822C26022E01022C2601FE008223A
:1016E00002611CE01022026119E00822426016E04B
:1016F0001022426013E00422426010E004224260A3
:101700000DE0042242600AE000228261042242606D
:1017100005E0002282610422426000E000BF00BFB9
:10172000704700000101010010B504460B488442D7
:1017300009D10121480602F0A7FF00214FF00070F7
:1017400002F0A2FF08E00121880602F09DFF0021BF
:101750004FF0806002F098FF10BD00000064004070
:1017600010B50021837A012202FA03F13D4A126882
:1017700042F001023B4B1A603A4A1C3212688A431B
:10178000384B1C331A60027BCAB9364A0C321268D5
:101790008A43344B0C331A604288C38842EA0343BD
:1017A000304A4032847A42F834300288838842EAF0
:1017B00003432C4A4032847A02EBC4025360027B1A
:1017C000012A19D1274A0C3212680A43254B0C33DF
:1017D0001A604288038842EA0343224A4032847AEC
:1017E00042F83430C288838842EA03431D4A4032BB
:1017F000847A02EBC4025360C27A3AB9194A121DC4
:1018000012688A43174B1B1D1A6006E0154A121D09
:1018100012680A43134B1B1D1A60028932B9114A20
:10182000143212688A430F4B14331A600289012A5A
:1018300006D10C4A143212680A430A4B14331A6058
:10184000427B012A06D1074A1C3212680A43054B23
:101850001C331A60034A126822F00102014B1A601D
:1018600010BD00000066004070B504460D4600261D
:1018700060692840002871D0B5F5807F5CD010DC0D
:10188000082D35D006DC012D20D0022D24D0042DCA
:1018900072D127E0102D31D0202D35D0402D6BD1C5
:1018A00038E0B5F5004F60D009DCB5F5007F49D0D0
:1018B000B5F5806F4CD0B5F5006F5DD14FE0B5F553
:1018C000803F2DD0B5F5003F56D12FE0A0682D49BF
:1018D00000F008FA064651E0E068032100F002FA41
:1018E00006464BE0E068082100F0FCF9064645E0BA
:1018F000E068102100F0F6F906463FE02069032178
:1019000000F0F0F9064639E02069082100F0EAF914
:10191000064633E02069102100F0E4F906462DE088
:101920006068082100F0DEF9064627E060681021B3
:1019300000F0D8F9064621E0A069012100F0D2F9B3
:1019400006461BE0A069022100F0CCF9064615E02E
:10195000A069042100F0C6F906460FE00FE0A06977
:10196000702100F0BFF9064608E06068042100F02D
:10197000B9F9064602E0FFE7002600BF00E00026B6
:10198000304670BD010101001AB143690B43436148
:1019900002E043698B434361704730B50246002043
:1019A0000023146824F002041460146844F0010455
:1019B000146000E05B1C546804F001041CB94FF68D
:1019C000FF74A342F6D1546804F001040CB900205E
:1019D0006CE08C79012C04D1146844F0800414600C
:1019E00003E0146824F080041460CC79012C04D145
:1019F000146844F04004146003E0146824F04004C8
:101A000014600C7A012C04D1146844F02004146092
:101A100003E0146824F0200414604C7A012C04D1F3
:101A2000146844F01004146003E0146824F01004F7
:101A300014608C7A012C04D1146844F008041460FA
:101A400003E0146824F008041460CC7A012C04D15B
:101A5000146844F00404146003E0146824F00404DF
:101A600014608C78A407CD7844EA05640D7944EAC3
:101A700005444D7944EA05540D886D1E2C43D4610C
:101A8000146824F001041460002300E05B1C546817
:101A900004F001041CB14FF6FF74A342F6D1546860
:101AA00004F001040CB1002000E0012030BD10B5AD
:101AB00000F5D87303EB01131B6803F004031372E2
:101AC000137A53B900F5D87303EB01131B6840F286
:101AD000FF7404EA5353136009E000F5D87303EB75
:101AE00001131B686FF0604404EAD303536000F5F0
:101AF000D87303EB01131B6803F00203537200F564
:101B0000D87303EB01135B6803F00F03937200F5C6
:101B1000D87303EB01135B681B0AD37400F5D87309
:101B200003EB01139B68D37200F5D87303EB011329
:101B30009B681C0A147300F5D87303EB01139B68B0
:101B40001C0C547300F5D87303EB01139B681B0E38
:101B5000937300F5D87303EB0113DB68D37300F5BF
:101B6000D87303EB0113DB681C0A147400F5D873F7
:101B700003EB0113DB681C0C547400F5D87303EB02
:101B80000113DB681B0E937421B9C36843F0200373
:101B9000C36003E0036943F02003036110BD00212B
:101BA0008171C171017241728172C1728170C170A3
:101BB000032101710221417101210180704710B59B
:101BC00002460020936803F08063B3F1806F00D178
:101BD00010E0936803F00063B3F1006F01D10120BE
:101BE00008E0936803F08053B3F1805F01D10220D5
:101BF00000E00420042874D002F5C07303EB001346
:101C00001B6803F0010402F5C07303EB00131C60B2
:101C10000B7A7BB94B7A0C8843EA445302F5C074C3
:101C200004EB00142468234302F5C07404EB001491
:101C3000236010E00B7A4C6843EAC4034C7A2343D8
:101C400002F5C07404EB00142468234302F5C07449
:101C500004EB001423608B7A03F00F038B7202F500
:101C6000C07303EB00135B6823F00F0402F5C0732D
:101C700003EB00135C6002F5C07303EB00135B68B9
:101C80008C7A234302F5C07404EB001463608B7BF1
:101C90001C064B7B44EA03440B7B44EA0323CC7AC7
:101CA000234302F5C07404EB0014A3608B7C1C0674
:101CB0004B7C44EA03440B7C44EA0323CC7B234360
:101CC00002F5C07404EB0014E36002F5C07303EB8B
:101CD00000131B6843F0010402F5C07303EB00130B
:101CE0001C6010BD0246002002EA01030BB1012076
:101CF00000E000207047000010B52DED088BFE4875
:101D0000007E02287ED1FC4804F078FCB0EE408AC8
:101D1000F0EE608A51EC180BFEF7B2FCF749086050
:101D2000084690ED000AF64804F0BEFEF54880ED46
:101D3000000AF2480068FEF760FC41EC190BB0EEB7
:101D4000490AF0EE690AF049F04804F081FFB0EE6C
:101D5000408AF0EE608A51EC180BFEF791FCEC49DA
:101D60000860EC480078002871D1EB48006840F228
:101D7000CF7188422EDA4FF48071E84801F0AAFA58
:101D80004FF40071E54801F0A7FADE480068FEF75D
:101D900034FCE34AE04B1B6802EBC30203C2DE489B
:101DA00001680068401CDC4A1060DD4800EBC1009F
:101DB00090ED001BB0EE410AF0EE610A53EC102BDF
:101DC000D84890ED001B51EC110BFEF751FAD54AA3
:101DD00003C2EEE14FF48071D04801F07DFA01209A
:101DE000CC490870C7480068FEF707FCCC4ACA4BCC
:101DF0001B6802EBC30203C2C948C749096800EB6C
:101E0000C10000E0DAE190ED001BB0EE410AF0EE17
:101E1000610A53EC102BC34890ED001B51EC110BE1
:101E2000FEF726FABF4A03C29FEDBF0B53EC102BFF
:101E3000BC4890ED000B51EC100BFEF732FB41EC6F
:101E4000180BFEF71DFCAE494862B2E1FFE7AC4853
:101E500090ED090AAB48D0ED000A30EEC00A10EE52
:101E6000101A0846FEF7C9FB41EC190BB0EE490AFF
:101E7000F0EE690A03F064FCB0EE408AF0EE608A8E
:101E800051EC180BFEF7FCFBA9490860084690EDE1
:101E9000000ADFEDA80AB4EEE00AF1EE10FA7DD2F6
:101EA0009D480068B0F5FA6F4CDA9D489A49096878
:101EB00000EBC10090ED001BB0EE410AF0EE610AAC
:101EC00053EC102B974890ED001B51EC110BFEF7D3
:101ED00070FA944A03C28B480068FEF78EFB904A62
:101EE0008D4B1B6802EBC30203C28D488A49096807
:101EF00000EBC10090ED001BB0EE410AF0EE610A6C
:101F000053EC102B874890ED001B51EC110BFEF7A2
:101F1000AFF9844A03C29FED840B53EC102B814828
:101F200090ED000B51EC100BFEF7BBFA41EC180BD7
:101F3000FEF7A6FB7249486277480068401C764964
:101F4000086036E10020744908607548096800EBB4
:101F5000C10090ED001BB0EE410AF0EE610A53ECB7
:101F6000102B704890ED001B51EC110BFEF721FA7D
:101F70006C4A03C263480068FEF73FFB684A664B41
:101F80001B6802EBC30203C265486349096800EBA2
:101F9000C10090ED001BB0EE410A00E023E0F0EE3E
:101FA000610A53EC102B5F4890ED001B51EC110BB4
:101FB000FEF75EF95B4A03C29FED5B0B53EC102BFF
:101FC000584890ED000B51EC100BFEF76AFA41EC0B
:101FD000180BFEF755FB4A4948624F480068401C01
:101FE0004D490860E5E0464890ED090A4848D0EDC3
:101FF000000A30EEC00A10EE101A0846FEF7FDFA8D
:1020000041EC190B81F0004141EC180B9FED4A0B9C
:1020100053EC102BFEF7D3F9494A03C29FED490B4D
:1020200053EC102B464890ED000B51EC100BFEF7D3
:102030000FFB40D2424890ED000B51EC100BFEF725
:10204000BDFA424901EB800090ED000A10EE104A03
:102050002046FEF7D2FA41EC190B9FED3D0B53ECF5
:10206000102BFEF7ACF941EC180BFEF709FB3A49CF
:10207000086008460068FEF7C0FA41EC1B0B53EC01
:102080001B2B2F4890ED000B51EC100BFEF709FABB
:1020900041EC190B31480068FEF7AFFA41EC1A0B1E
:1020A00053EC192BFEF7E4F841EC180BFEF7E8FAB5
:1020B0002A4908607DE0224890ED000B51EC100B9E
:1020C00081F0004141EC1A0BFEF778FA1F4901EB51
:1020D000800090ED000A10EE104A2046FEF78DFABF
:1020E00041EC190B9FED1E0B53EC102BFEF767F91B
:1020F00041EC180B38E00000B01A00200800002066
:10210000281A002010000020801A0020541A0020F5
:1021100018000020A80000208C00002000040240CD
:10212000F86D0020900000200000000000409F405B
:102130001C000020F8B39D43DC114E0B5EF4353FCC
:10214000A00000200000000000000000DC000020D3
:10215000E7919AD1EAFFEF3FAC0000206C0000202D
:102160005402FFE772FBEF3FFEF78AFA1549086059
:1021700008460068FEF741FA41EC1B0B53EC1B2BA1
:10218000114890ED000B51EC100BFEF78AF941EC71
:10219000190B0E480068FEF730FA41EC1A0B53ECAD
:1021A000192BFEF765F841EC180BFEF769FA0749A1
:1021B000086007480068401C05490860BDEC088BB2
:1021C00010BD0000B0000020A00000206C00002026
:1021D0003000002010B52DED108B8EB09FEDFE0A63
:1021E000F0EE408A9FEDFC0AB0EE409A9FEDFB0BAB
:1021F00053EC102BFB4890ED000B51EC100BFEF74D
:102200000FFA5AD0F84890ED020ADFEDF80A60EEB6
:1022100020CAF74890ED000ADFEDF40A20EE208A8C
:1022200018EE100AFEF7E9F9CDE908019DED080B5B
:1022300003F086FA8DED0C0BEE480068FEF7DDF931
:10224000CDE90A019DED0C0B53EC102B9DED0A0B13
:1022500051EC100BFEF7E4F913D218EE100AFEF75A
:10226000CCF9CDE90A019DED0A0B03F069FA8DED79
:102270000C0B9DED0C0B51EC100BFEF701FADD4938
:102280000860D94890ED020AD948D0ED000A30EE36
:10229000200AD54880ED020AD74890ED000AD448BC
:1022A000D0ED000A30EE200AD34880ED000A9FED01
:1022B000CA0ACF4880ED000A1EE0CB4890ED020A22
:1022C000DFEDCA0A60EE20CACC4890ED000AC6488D
:1022D00080ED020ACA4890ED000ADFEDC40A20EE44
:1022E000208AC54890ED000AC548D0ED000A30EEBE
:1022F000200AC14880ED000A00F04CFFC148006888
:10230000002806DDC04890ED000AC04880ED000AB4
:1023100005E0BF4890ED000ABC4880ED000ABD48CA
:102320000068002806DDBC4890ED000ABB4880ED3F
:10233000000A05E0BA4890ED000AB84880ED000AAE
:10234000B248D0ED000AAF4890ED000AB8EEC00ADE
:1023500020EE800AF0EE408AB048D0ED000AAD4889
:1023600090ED000AB8EEC00A20EE800AB0EE409A66
:102370009D4890ED030AA548D0ED000A20EE200A02
:10238000A84880ED000A984890ED040AA348D0EDD3
:10239000000A20EE200AA44880ED000A9248D0ED01
:1023A000030A984890ED000AB8EEC00A30EE800AA1
:1023B0008D4880ED030AD0ED040A964890ED000A9E
:1023C000B8EEC00A30EE800A874880ED040A9748CC
:1023D00090ED000A70EE2CBA1BEE900AFEF70DF994
:1023E000CDE90A019DED0A0B03F046F98DED0C0BCA
:1023F0009DED0C0B51EC100BFEF742F909EE900A23
:102400001BEE900AFEF7F9F8CDE90A019DED0A0BE3
:1024100003F0A2F98DED0C0B9DED0C0B51EC100BA4
:10242000FEF72EF90AEE100A804890ED000A30EE11
:102430002C0A7F48D0ED000A30EE20CA1CEE100AAC
:10244000FEF7DBF8CDE90A019DED0A0B03F084F9F4
:102450008DED0C0B9DED0C0B51EC100BFEF710F9F4
:102460000BEE100A1CEE100AFEF7C7F8CDE90A01C0
:102470009DED0A0B03F000F98DED0C0B9DED0C0B9F
:1024800051EC100BFEF7FCF80AEE900A18EE100A59
:10249000FEF7B3F8CDE90A019DED0A0B03F050F900
:1024A0008DED0C0B9FED630B53EC102B9DED0C0B86
:1024B00051EC100BFEF7B4F82CD228EEA90A09EE65
:1024C0004B0A5E48D0ED000A30EE200A80ED000A8B
:1024D00028EE8A0A09EE2A0A5948D0ED000A30EEA1
:1024E000200A80ED000A28EEA90A09EE4B0A554899
:1024F000D0ED000A30EE200A80ED000A28EE8A0AAC
:1025000009EE2A0A5048D0ED000A30EE200A80ED8C
:10251000000ADAE13BEE88DA7CEE08FA1DEE100ADA
:10252000FEF76BF8CDE90A019DED0A0B03F014F9F3
:102530008DED0C0B9DED0C0B51EC100BFEF7A0F884
:102540000EEE100A1DEE100AFEF757F8CDE90A014B
:102550009DED0A0B03F090F88DED0C0B9DED0C0B2F
:1025600051EC100BFEF78CF80DEE900A1FEE900A5E
:10257000FEF743F8CDE90A019DED0A0B03F0ECF8F4
:102580008DED0C0B9DED0C0B51EC100BFEF778F85C
:102590000FEE100A1FEE900AFEF72FF8CDE90A01A0
:1025A0009DED0A0B03F068F88DED0C0B9DED0C0B07
:1025B00051EC100BFEF764F80EEE900AB0EE000A34
:1025C000C8EE000A10EE904A2046FEF716F8CDE954
:1025D00000019DED000B39E000000000000000004C
:1025E00000000000A00000207400002035FA8E3C9E
:1025F0006C0000209018002068000020500000208F
:102600005C000020AC180020B4000020C4000020B2
:10261000BC000020B0180020B8000020C800002036
:10262000C00000207418002078180020D00000207E
:10263000D8000020F168E388B5F8F43E600000207F
:10264000640000209C180020A018002003F084F8EB
:102650008DED020B9FEDDE0B53EC102B9DED020B6D
:1026600051EC100BFDF7ABFE3EEE4A0A20EE280AB5
:102670007EEEEA0A09EE200ACDE9060110EE101AF4
:102680000846FDF7BAFFCDE904019DED060B53ECBA
:10269000102B9DED040B51EC100BFDF702FFCDE963
:1026A0000A01CD480068FDF7A8FFCDE908019DEDBE
:1026B0000A0B53EC102B9DED080B51EC100BFDF7A2
:1026C000D7FDCDE90C019DED0C0B51EC100BFDF786
:1026D000D7FFC1490860B0EE000AC8EE000A10EE4C
:1026E000904A2046FDF789FFCDE900019DED000BE2
:1026F00003F032F88DED020B9FEDB50B53EC102B70
:102700009DED020B51EC100BFDF759FE3DEEE90A71
:10271000F1EE680A20EE200A7FEE4B0A09EE200A4D
:10272000CDE9060110EE101A0846FDF766FFCDE967
:1027300004019DED060B53EC102B9DED040B51ECA9
:10274000100BFDF7AEFECDE90A01A4480068FDF7C5
:1027500054FFCDE908019DED0A0B53EC102B9DEDC4
:10276000080B51EC100BFDF783FDCDE90C019DED3D
:102770000C0B51EC100BFDF783FF98490860B0EE8D
:10278000000AC8EE000A10EE904A2046FDF735FF19
:10279000CDE900019DED000B02F0DEFF8DED020B97
:1027A0009FED8B0B53EC102B9DED020B51EC100B9E
:1027B000FDF705FE3EEE4A0A20EE280A7EEEEA0A02
:1027C00009EE200ACDE9060110EE101A0846FDF7C1
:1027D00014FFCDE904019DED060B53EC102B9DED8C
:1027E000040B51EC100BFDF75CFECDE90A017C48AF
:1027F0000068FDF702FFCDE908019DED0A0B53ECDF
:10280000102B9DED080B51EC100BFDF731FDCDE9C0
:102810000C019DED0C0B51EC100BFDF731FF7049D5
:102820000860B0EE000AC8EE000A10EE904A20469A
:10283000FDF7E3FECDE900019DED000B02F08CFFFA
:102840008DED020B9FED620B53EC102B9DED020BF7
:1028500051EC100BFDF7B3FD3DEEE90AF1EE680A0D
:1028600020EE200A7FEE4B0A09EE200ACDE9060190
:1028700010EE101A0846FDF7C0FECDE904019DEDEB
:10288000060B53EC102B9DED040B51EC100BFDF7D8
:1028900008FECDE90A0153480068FDF7AEFECDE918
:1028A00008019DED0A0B53EC102B9DED080B51EC2C
:1028B000100BFDF7DDFCCDE90C019DED0C0B51EC8F
:1028C000100BFDF7DDFE4749086045480068FDF73D
:1028D00094FE9FED450B53EC102BCDE90A019DEDC5
:1028E0000A0B51EC100BFDF764FDCDE90C019DEDD9
:1028F0000C0B51EC100BFDF7C3FE3D490860394845
:102900000068FDF77AFE9FED3B0B53EC102BCDE9F1
:102910000A019DED0A0B51EC100BFDF74AFDCDE9C4
:102920000C019DED0C0B51EC100BFDF7A9FE33498A
:102930000860084690ED000A2D48D0ED000A80EEB0
:10294000201A11EE104A2046FDF757FECDE90A0184
:102950009DED0A0B02F024FD8DED0C0B9DED0C0B93
:1029600051EC100BFDF78CFE25490860204890EDD6
:10297000000A20EE000A2148D0ED000A90ED001A6E
:1029800000EE810A10EE101A0846FDF736FECDE97A
:1029900008019DED080B02F043FF8DED0A0B9FED42
:1029A0000C0B53EC102B9DED0A0B51EC100BFDF7AB
:1029B00078FDCDE90C019DED0C0B51EC100BFDF7F2
:1029C0005FFE104908600EB0BDEC108B10BD00001A
:1029D00000000000000000406000002064000020B3
:1029E0009C180020A0180020253FE257ACE1A23F30
:1029F00094180020CEDF844204325AC09818002078
:102A0000641800206818002070B52DED0A8B01F0C5
:102A10002BF900EE100AB8EE400AB0EE40AA9FED86
:102A2000EE0ACAEE000AED48C0ED000A90ED000A79
:102A3000EB48D0ED000A30EE600AEA4880ED000A6B
:102A4000E64890ED000AE64880ED000AE64890ED81
:102A5000000AE648D0ED000A30EE200AE24880ED98
:102A6000000A90ED010AE248D0ED000A30EE200A9B
:102A7000DD4880ED010A90ED020ADFEDDE0A60EE2E
:102A8000200A9FEDDD1A80EE810ADC48D0ED000AB5
:102A900030EE200A10EE104A2046FDF7AEFD41EC64
:102AA0001C0BB0EE4C0AF0EE6C0A02F0E5FDB0EE45
:102AB00040BAF0EE60BA51EC1B0BFDF7E1FD09EEF8
:102AC000900A2046FDF799FD41EC1C0BB0EE4C0A34
:102AD000F0EE6C0A02F040FEB0EE40BAF0EE60BAE2
:102AE00051EC1B0BFDF7CCFD09EE100AC44890ED2C
:102AF000000AC44880ED000AC14890ED010AC148AF
:102B000080ED010AB84890ED000ABF48D0ED000AF8
:102B100000EEE90ABA4880ED000AB34890ED010AD8
:102B2000B948D0ED000A00EEC90AB54880ED010AA7
:102B3000AD4890ED020AB24880ED020A90ED000A1D
:102B4000B048D0ED000A30EE600AB0EE408AAC48E2
:102B500090ED010AAB48D0ED010A30EE600AF0EECC
:102B6000408AAA4890ED000AA94880ED000AA748CB
:102B700090ED010AA64880ED010AA44890ED020AF2
:102B8000A34880ED020AA14890ED030AA04880ED19
:102B9000030A944890ED000AC8EE000A10EE905A1D
:102BA0002846FDF72AFD41EC1C0BB0EE4C0AF0EE76
:102BB0006C0A984800F0F6FBB0EE40BAF0EE60BA4E
:102BC00051EC1B0BFDF75CFD90490860854890EDCA
:102BD000000AC8EE800A10EE905A2846FDF70DFD57
:102BE00041EC1C0BB0EE4C0AF0EE6C0A8A4800F087
:102BF000D9FBB0EE40BAF0EE60BA51EC1B0BFDF71A
:102C00003FFD82494860854890ED000A7548D0ED47
:102C1000000A80EE201A11EE105A2846FDF7EDFC4E
:102C200041EC1C0BB0EE4C0AF0EE6C0A7C4800F054
:102C3000B9FBB0EE40BAF0EE60BA51EC1B0BFDF7F9
:102C40001FFD72498860084690ED000A20EE000AD8
:102C5000D0ED010A90ED011A00EE810A10EE101A73
:102C60000846FDF7CAFC41EC1C0BB0EE4C0AF0EE36
:102C70006C0A02F0D5FDB0EE40BAF0EE60BA51EC4D
:102C80001B0BFDF7FDFC6149C860084690ED000A8A
:102C90005F48D0ED000A30EE600A5248D0ED000ADD
:102CA00080EE201A11EE105A2846FDF7A6FC41ECE2
:102CB0001C0BB0EE4C0AF0EE6C0A5A4800F072FBA6
:102CC000B0EE40BAF0EE60BA51EC1B0BFDF7D8FC49
:102CD000554908604D4890ED010A4D48D0ED010A74
:102CE00030EE600A3F48D0ED000A80EE201A11EE67
:102CF000105A2846FDF781FC41EC1C0BB0EE4C0A43
:102D0000F0EE6C0A474800F04DFBB0EE40BAF0EE32
:102D100060BA51EC1B0BFDF7B3FC434948603B48DC
:102D200090ED020A3A48D0ED020A30EE600A2D48D2
:102D3000D0ED000A80EE201A11EE105A2846FDF759
:102D40005CFC41EC1C0BB0EE4C0AF0EE6C0A354812
:102D500000F028FBB0EE40BAF0EE60BA51EC1B0B6D
:102D6000FDF78EFC30498860284890ED030A28481A
:102D7000D0ED030A30EE600A1A48D0ED000A80EE6A
:102D8000201A11EE105A2846FDF737FC41EC1C0BB7
:102D9000B0EE4C0AF0EE6C0A224800F003FBB0EEF5
:102DA00040BAF0EE60BA51EC1B0BFDF769FC1E490E
:102DB000C8609FED1E0A0D4880ED000A9FED1B0ABA
:102DC0000B4880ED000A9FED190A144880ED000AB7
:102DD000BDEC0A8B70BD000000401C467C18002032
:102DE000801800208418002074000020600000205B
:102DF00064000020DB0F494000003443D400002071
:102E0000946D0020AC6D0020CC000020C46D00202B
:102E1000D46D0020701B0020B01B00206800002033
:102E2000F01B0020301C0020E46D0020000000009A
:102E300010B50649064800F0DFF828B103490448F8
:102E400000F008F802F0FAF910BD00000080002838
:102E5000B86402400246094B9A4201D2084801E098
:102E60000648103801F000531BB1064B0B40C360FD
:102E700002E0044B0B408360704700001064024086
:102E8000006002407D0F7D0F21B1026842F0010217
:102E9000026003E0026822F0010202607047000055
:102EA000016821F001010160002101604160816041
:102EB000C1600161212141614A49884204D13D211B
:102EC000484A103A91608CE046491831884205D151
:102ED0004FF47461434A103A916082E041493031C5
:102EE000884205D14FF474113E4A103A916078E05F
:102EF0003C494831884205D14FF07461394A103A53
:102F000091606EE037496031884204D13649354AD4
:102F1000103AD16065E033497831884204D13349B1
:102F2000304A103AD1605CE02E499031884204D199
:102F30002F492C4A103AD16053E02A49A8318842DF
:102F400005D14FF03D51274A103AD16049E0294957
:102F5000884204D13D21274A083A116041E02549C1
:102F60001831884205D14FF47461224A083A116041
:102F700037E020493031884205D14FF474111D4AA1
:102F8000083A11602DE01B494831884205D14FF0C5
:102F90007461184A083A116023E01649603188428A
:102FA00004D11149134A121F11601AE011497831F6
:102FB000884204D10D490F4A121F116011E00D49DA
:102FC0009031884204D10A490A4A121F116008E070
:102FD0000849A831884204D14FF03D51054A121FDB
:102FE00011607047106002403D000020400F00203B
:102FF00000003D201064024070B50246002000240D
:103000000025124EB24201D2114B01E00F4B103B92
:10301000104E0E4036B11E2606EAD124166806EA86
:10302000040502E0566906F0800501F000560EB175
:103030005C6800E01C68084E344004EA010616B1E2
:103040000DB1012000E0002070BD000010640240BE
:10305000006002403C0F3C0F7D0F7D0F10B501F06A
:1030600080034BB122B1436943F08003436103E025
:10307000436923F08003436180290BD02AB10368A0
:1030800001F01E042343036004E0036801F01E0402
:10309000A343036010BD000010B500220268134B6B
:1030A0001A40CC680B6823434C6923438C69234343
:1030B000CC6923430C6A23434C6A23438C6A234321
:1030C0004C6B23438C6B23431A430260426922F00A
:1030D0000702D1E90B3423431A4342610B69436071
:1030E0004B6883608B68C36010BD00003F801CF09C
:1030F0004160704710B5D0E900239A4200D110BD5D
:1031000000F1080203689A5C0A700268521CC92325
:1031100092FBF3F403FB1422026000BFEFE7704759
:1031200070B52DED028B0446002501202060606003
:10313000B7EE000A84ED030A00BF05E001F064FB6E
:10314000104941F825006D1C052DF7DB0D481C3892
:1031500003F054FAB0EE408AF0EE608A51EC180B9E
:10316000FDF78EFAE0619FED080A84ED050A9FEDF8
:10317000070A84ED040A9FED060A84ED0A0ABDECF5
:10318000028B70BDCC1A00205839343CACC52737AF
:10319000000000000B48006847F6FF71081A0A4952
:1031A000086047F6FF700749086008480068A0F506
:1031B000FE40FF380649086047F6FF700349086083
:1031C00070470000240C0040AC180020240400408C
:1031D000B018002047F6FF700249086002490860F5
:1031E0007047000024040040240C0040F0B50A465B
:1031F00000210023002400BF3DE0012505FA01F372
:10320000156805EA03049C4234D105684F00032683
:10321000BE40B543056015794E00B540066835439C
:1032200005601579012D02D01579022D16D185681A
:103230004F000326BE40B543856055794E00B5402A
:10324000866835438560456801268E40B5434560F4
:10325000456896798E40B6B235434560C5684F00E3
:103260000326BE40B543C560D5794E00B540C6685B
:103270003543C560491C1029BFD3F0BDF0B500230C
:1032800000244D07ED0E02FA05F3CE1000F12005E3
:1032900055F826504E07F70E0F26BE40B543CF1007
:1032A00000F1200646F82750CE1000F1200555F811
:1032B000265045EA0304CE1000F1200545F82640CB
:1032C000F0BD0246002053690B400BB1012000E025
:1032D00000207047418370470183704742694A402C
:1032E00042617047012080F3138800BF00BF00BF18
:1032F00000BF00BF00BFBFF34F8F00BF00BF00BFC4
:103300000948006800F4E06008490843001D0649C8
:10331000086000BF00BF00BFBFF34F8F00BF00BFFA
:1033200000BF00BF00BFFDE70CED00E00000FA05A4
:103330000146D1E90020904204DD08790A78801A1C
:10334000C0B27047D1E90020904206DAD1E900020C
:10335000801AC0F1C900C0B2F3E70020F1E7000015
:103360000FE04FF480710748FFF7B4FFFA2003F035
:10337000D6F94FF480710348FFF7AEFFFA2003F04F
:10338000CEF9EEE7000402409FED040A80ED020A48
:10339000034991ED070A80ED000A704758FF7F3F0F
:1033A000281A002010B52DED088B0446B0EE408A97
:1033B000F0EE608A94ED042BB0EE420AF0EE620A61
:1033C00094ED0A2BB0EE421AF0EE621A53EC102B79
:1033D00051EC110BFCF7F3FFC4E9040194ED002B51
:1033E000B0EE420AF0EE620A94ED062BB0EE421AFD
:1033F000F0EE621A53EC102B51EC110BFCF738FF76
:10340000C4E9060194ED022BB0EE420AF0EE620A26
:1034100094ED062BB0EE421AF0EE621A53EC102B2C
:1034200051EC110BFCF724FF41EC190B94ED061B3A
:10343000B0EE410AF0EE610A53EC192B51EC100B7F
:10344000FDF72FF8C4E9080194ED042BB0EE420A11
:10345000F0EE620A94ED0C2BB0EE421AF0EE621A16
:1034600053EC102B51EC110BFCF7A9FF41EC1B0B9B
:1034700053EC182BFCF7A0FF41EC1A0B94ED081B42
:10348000B0EE410AF0EE610A53EC102BFCF797FF07
:1034900041EC190B94ED041BB0EE410AF0EE610A09
:1034A00053EC102BFCF7E4FEC4E9040194ED081B77
:1034B000B0EE410AF0EE610A53EC102B9FED0E1BAB
:1034C00051EC110BFCF775FF41EC190B94ED061B49
:1034D000B0EE410AF0EE610A53EC102BFCF76FFFDF
:1034E000C4E9060194ED040B84ED0E0B94ED0E0B74
:1034F000BDEC088B10BD0000000000000000F03F94
:1035000027E014480088B0F5FA7F1FDB002011493E
:1035100008801148007850B94FF400710F48FFF748
:10352000DDFE4FF480710D48FFF7D6FE0EE04FF43C
:1035300080710A48FFF7D2FE4FF400710748FFF789
:10354000CBFE0748FEF7F0F802F04AFE012000F03B
:103550004FFBD6E7380000203A000020000402406C
:103560000064004000BFFEE77047000070B5002116
:1035700000230F22C4781CB3174C246804F4E064C1
:10358000C4F5E064C4F30721C1F10404E3B20A41C5
:1035900044789C40E1B28478144021430C07210E0A
:1035A0000E4C05786155047804F01F050124AC40E9
:1035B00005786D11AD0005F1E025C5F8004109E081
:1035C000047804F01F050124AC40054D06787611FF
:1035D00045F8264070BD00000CED00E000E400E07E
:1035E00080E100E002490143024A11607047000097
:1035F0000000FA050CED00E010B500F015F800F041
:103600003FFC00F067FC00F087FC00F00FFC00F0CE
:10361000E1FB00F01BFD00F045FD00F0BDFC00F0FB
:10362000E3FC00F002F810BD7047704710B50024AD
:103630001A480078012830D1FCF7C2FD044618482A
:10364000007820B116480078401E154908701448CB
:103650000078F8B913480078E0B900F085FD124809
:103660001249097850F82100114908600F48007884
:103670001049097888420DD00D480068806B401CC5
:103680000B49096888630C480068401C0A490860B7
:10369000FCF7B2FD2046FCF797FD10BD9E190020F7
:1036A0009119002092190020BCB500209419002027
:1036B000AC190020931900207819002010B50B4890
:1036C000007890B900F050FD094800780949087069
:1036D00009480749097850F8210008490860084658
:1036E000006807490860FCF772FD10BD9E190020B4
:1036F0009419002093190020BCB50020AC190020BB
:10370000A4190020704700002DE9FE4F06460F4621
:1037100090461C464FF00009FCF752FD81461F48B9
:10372000007828B14846FCF74FFD3C20BDE8FE8FED
:103730001B4850F8240060BB0120194941F82400BF
:103740004846FCF741FD002342463946304600F02A
:1037500007F9824600200090019003460246514638
:103760000290204600F016FD054635B90D48007858
:1037700001280CD100F0BEFC09E0FCF721FD8146D8
:103780000020074941F824004846FCF71DFD284663
:10379000CCE74846FCF718FD2820C7E79119002020
:1037A000BCB500209E1900202DE9F04F85B0814660
:1037B0008A4693461C46DDE90F78129D002003904F
:1037C000FCF7FEFC03902348007830B10398FCF727
:1037D000FBFC3C2005B0BDE8F08F1F4850F82400EA
:1037E00088BB01201C4941F824000398FCF7ECFC3D
:1037F0002A464146384600F0F1FD2B465A465146CE
:10380000484600F0ADF804901198CDE9008002958B
:103810003A4620460E9B049900F0BCFC064636B999
:103820000E48007801280CD100F064FC09E0FCF798
:10383000C7FC03900020084941F824000398FCF7D6
:10384000C3FC3046C6E7FFE70398FCF7BDFC282021
:10385000C0E7000091190020BCB500209E1900208F
:10386000704770472DE9F04106460F4614464FF069
:1038700000081548007818B112202070BDE8F081CA
:10388000FCF79EFC8046FF2E03D11048006890F89C
:1038900032600F4850F826502DB94046FCF794FC92
:1038A00043202070EAE7012D05D14046FCF78CFC4F
:1038B00043202070E2E7EF644046FCF785FC0020DF
:1038C000207000BFDAE7000091190020A419002041
:1038D000BCB50020704700002DE9F04707460D46B3
:1038E0004FF0000A002028606860FCF769FC8246FF
:1038F000FF2F03D11848006890F83270174850F82D
:1039000027402CB95046FCF75FFC4320BDE8F08708
:10391000012C04D15046FCF757FC4320F6E7207CED
:1039200000F0010020B95046FCF74EFC4520EDE7C1
:103930000026D4F80C90D4F808805046FCF744FCDC
:1039400000E0761C58F8041B0029FAD02E60A9EB81
:10395000060068600020D9E7A4190020BCB500204B
:1039600070B5044610460026051F28462E60051F28
:1039700028462E604FF01536051F28462E604FF062
:103980001436051F28462E604FF01336051F2846B3
:103990002E604FF01236051F28462E604FF011366C
:1039A000051F28462E604FF01036051F28462E6052
:1039B0004FF00936051F28462E604FF00836051FC8
:1039C00028462E604FF00736051F28462E604FF020
:1039D0000636051F28462E604FF00536051F28467F
:1039E0002E604FF00436051F28462E604FF0033638
:1039F000051F28462E604FF00236051F28462E6010
:103A00007610051F28462E600026051F28462E60CA
:103A10004FF080750560051F28462C60B61E051FF7
:103A200028462E604FF01236051F28462E604FF0B4
:103A30000336051F28462E604FF00236051F284624
:103A40002E607610051F28462E60051F2846296027
:103A50004FF03136051F28462E604FF03036051FD7
:103A600028462E604FF02936051F28462E604FF05D
:103A70002836051F28462E604FF02736051F28469A
:103A80002E604FF02636051F28462E604FF0253653
:103A9000051F28462E604FF02436051F28462E604D
:103AA0004FF02336051F28462E604FF02236051FA3
:103AB00028462E604FF02136051F28462E604FF015
:103AC0002036051F28462E604FF01936051F284660
:103AD0002E604FF01836051F28462E604FF017361F
:103AE000051F28462E604FF01636051F28462E600B
:103AF0004FF01136051F28462E604FF01036051F77
:103B000028462E604FF00936051F28462E604FF0DC
:103B10000836051F28462E604FF00736051F284639
:103B20002E604FF00636051F28462E604FF00536F2
:103B3000051F28462E604FF00436051F28462E60CC
:103B400070BD00002DE9F04105464FF00008FCF77C
:103B500037FB8046FF2D05D12048006890F8325091
:103B6000012608E01D48006890F83200A84201D103
:103B7000012600E000261A4850F825402CB940469E
:103B8000FCF722FB4820BDE8F081012C04D140461F
:103B9000FCF71AFB4320F6E794F834701148C05D37
:103BA00094F8351088430F49C8550846C05D30B9B0
:103BB00094F836100C48007888430B49087094F844
:103BC000300040F0080084F830004046FCF7FCFA72
:103BD000012E01D100F08EFA0020D4E7A4190020B4
:103BE000BCB50020961900209519002070470000F0
:103BF00070B5054600261748007800B170BD16481C
:103C0000007800B1FAE71DB3FCF7DAFA064613486C
:103C1000006890F834401248005D1049096891F836
:103C2000351088430E4908550846005D40B90B48D9
:103C3000006890F836100B480078884309490870EE
:103C400006480068C5623046FCF7BEFA00F052FA3A
:103C500000BFD3E79119002092190020A419002079
:103C6000961900209519002070B50025FCF7A8FAD8
:103C70000546034804682846FCF7A6FA204670BDAE
:103C8000C019002070B5002600F072F8FCF798FA11
:103C9000064631480068401C2F4908603046FCF752
:103CA00093FA2E480078012853D12D48007820B18E
:103CB000012804D0022809D103E001250BE00025EA
:103CC00009E0012501202649087004E001250020B3
:103CD0002349087000BF00BF05B970BD21480468C2
:103CE00033E0FCF76DFA0646E06A50B3E06A401E26
:103CF000E062E06A28BB94F8300000F0370040B181
:103D000014F8300F00F0C800207001206070303CC3
:103D100002E0002084F8310094F8300000F0080040
:103D200078B93434A0781049097808430E490870EE
:103D300020780E49085C6178084314F834190B4A5E
:103D4000505464693046FCF73FFA94F832003F283B
:103D5000C7D100BFC1E70000C01900209E19002094
:103D6000B4190020B01900209519002096190020E0
:103D7000704700007FB5684600F0A6FC42F2107262
:103D80000198B0FBF2F1481EB0F1807F00D31BE038
:103D9000481E4FF0E022506150170F22002807DA2A
:103DA00013071D0E094B00F00F04241F1D5503E0DF
:103DB00013071C0E064B1C5400BF00204FF0E022DE
:103DC00090610720106100BF7FBD000018ED00E08A
:103DD00000E400E02DE9F0415021114800F02CF9F9
:103DE00000250DE0681C86B20D4800EB051400EBC1
:103DF00006170020207067600AA0E060681C85B28A
:103E0000042DEFD3064800EB0514002020706060FD
:103E100004A0E060024804490860BDE8F0810000A9
:103E20006CAF00203F0000008019002070B54FF4F7
:103E30009671114800F000F900230FE0581C85B27C
:103E400003EB83000C4901EB800405EB850001EBDB
:103E50008006002020706660581C83B20E2BEDD3C4
:103E600003EB8300044901EB8004002020706060B4
:103E700008460249086070BD40AE00207C19002051
:103E800000200A4908600A4908700A4908700A496E
:103E900008700A4908700A4908600A4908600A4916
:103EA00008600A4908600A4908707047C019002074
:103EB00091190020921900209F1900209E190020BE
:103EC00078190020A01900208C19002088190020E2
:103ED0009019002000210A4A1170002004E00021FE
:103EE000084A1154411CC8B20828F8D30021064AD8
:103EF0001170064A1170064A1160064A1160704737
:103F0000951900209619002093190020941900207B
:103F1000AC190020A419002070B541F2AC41194839
:103F200000F08AF84FF48071174800F085F80024FB
:103F300013E0601CC5B2C4EBC40000EB40001149A3
:103F400001EB8003C5EBC50000EB400001EB8006F0
:103F50005E610EA0D864601CC4B23E2CE9D3C4EBF1
:103F6000C40000EB4000074901EB800300205861CA
:103F700006A0D86400200649086002480549086088
:103F800070BD0000BCB60020BCB500203F000000A2
:103F9000B0190020A819002000B587B00320002127
:103FA00080220A4BCDE90132CDE903104FF6FF70B4
:103FB0003F23074A00900748FFF7F6FB06AA06A131
:103FC0003F20FFF74FFC07B000BD0000BCB300204E
:103FD000B8B50020D542000875432F4F532D4949ED
:103FE0002049646C6500000000B587B00320002103
:103FF0004FF48072094BCDE90132CDE903104FF641
:10400000FE703E23064A00900648FFF7CDFB06AA45
:1040100005A13E20FFF726FC07B000BDBCAF002085
:10402000B8B30020FD42000875432F4F532D494976
:10403000205374617400000004E0002200F8012B9A
:104040004A1E91B20029F8D17047000070B578215E
:104050001148FFF7F1FF00240EE004EB44000E4985
:1040600001EBC005601C00EB400001EBC000686084
:104070000AA06861601C84B2042CEED304EB4400F7
:10408000054901EBC0050020686004A0686108468E
:104090000349086070BD000068CB00203F000000AD
:1040A000B81900202DE9F04160211048FFF7C4FF46
:1040B00000240DE0601C86B204EB44000B4901EBC8
:1040C000C00506EB460001EBC0072F60601C84B200
:1040D000032CEFD304EB4400044901EBC00500209E
:1040E0002860084602490860BDE8F081E0CB002066
:1040F000BC19002010B50024FCF762F804461348F0
:104100000078F8B912480078E0B900F02DF81148AD
:104110001149097850F82100104908600E480078CC
:104120000F49097888420DD00C480068806B401C0C
:104130000A49096888630B480068401C09490860FF
:10414000FCF755F82046FCF73FF810BD9119002008
:1041500092190020BCB5002094190020AC19002051
:1041600093190020781900200649074A1278885CC4
:104170000649095C034A515C01EBC001044A117015
:1041800070470000907200089519002096190020D1
:10419000941900202DE9F84F05460F4690469946A0
:1041A000DDE90AAB00200090FCF70AF800904248D5
:1041B0000468002C7AD0183454F8040C3E49086086
:1041C0000098FCF701F844F8187CA57600202076CA
:1041D0006076606144F814BC44F80CAC44F8108C70
:1041E0000C9824F8080C24F8069C0020E077E810CE
:1041F000207705F00700E076217F01208840A07736
:10420000E17E01208840607700206060E060A0606F
:104210002062A0626062E062206328A06063183CB4
:10422000002606E0002104F1500040F82610701C22
:10423000C6B2002EF6D02046FFF764FAFBF7C0FFA7
:1042400000901F4840F825400098FBF7BDFF20462E
:10425000FFF706FBFBF7B4FF00901A4800686061A7
:104260000020A0611748006810B1164800688461FA
:10427000144804603434A07813490978084312497B
:10428000087020781149085C6178084314F83419E3
:104290000E4A50540E480078401C0D490870009892
:1042A000FBF792FF0020BDE8F88FFFE70098FBF7CF
:1042B0008BFF4220F7E70000A81900203F00000014
:1042C000BCB50020B01900209519002096190020D7
:1042D0009F190020002400BF00BFFBF771FF0446B8
:1042E00005480068401C044908602046FBF76CFF45
:1042F000FFF7B7FAF1E70000A019002000BF00BFE8
:1043000003E04FF4FA60FFF773FC204800780028C0
:10431000F7D01F4800686421B0FBF1F01C49086029
:104320000846006828B900201A490870FF20FFF7E6
:1043300009FCFBF745FF0446154800686421484323
:10434000154908602046FBF73FFF00BFFBF738FF29
:104350000446114800681149086000200E490860B1
:104360002046FBF731FF0D48006809490968B0FB9A
:10437000F1F0C0F1640007490870FFF7ABFA00F0F4
:104380000FF84FF47A70FFF733FCDFE79019002045
:104390008819002084190020A01900208C19002001
:1043A0007CB5002514E069462846FFF795FA0646D5
:1043B00066B9094850F8254044B1012C06D0D4E92B
:1043C000020100EB810060640198A064681CC5B222
:1043D0003F2DE8D97CBD0000BCB5002002F00103F0
:1043E00043B102F002032BB102E0491E002308C0D2
:1043F0000029FAD1704700002CE01748006830B35C
:1044000015480068401E14490860144800780128C7
:104410000ED1FDF7DFFEFEF7F7FA11480088401CC9
:104420000F4908800F480088401C0E4908800EE0A4
:104430000D480088012804D101F0D2FE00200A496D
:10444000088047F6FF7009490860094908600120A3
:10445000FFF7CEFBD1E7000030000020A8000020CD
:1044600036000020380000203400002024040040E2
:10447000240C004010B586B0044694ED000AF7EE17
:10448000000A20EE200A3D4880ED000A94ED010A62
:10449000F7EE000A20EE200A394880ED000A39487C
:1044A000029008208DF80E0000208DF80D000420E9
:1044B0008DF80C0041208DF80F0050218DF8101060
:1044C0002E4890ED000AF2EE040A20EE200ABDEE1E
:1044D000C00A10EE100AC1B28DF81110274890EDF5
:1044E000000AF2EE040A20EE200ABDEEC00A10EE29
:1044F000100A010A8DF81210214890ED000AF2EE20
:10450000040A20EE200ABDEEC00A10EE100AC1B265
:104510008DF813101A4890ED000AF2EE040A20EE0E
:10452000200ABDEEC00A10EE100A010A8DF8141020
:1045300094ED020AF2EE040A20EE200ABDEEC00A53
:1045400010EE100AC1B28DF8151094ED020AF2EEC9
:10455000040A20EE200ABDEEC00A10EE100A010A7D
:104560008DF8161001A90848FDF729FB042802D18F
:10457000012006B010BD0020FBE70000CC18002091
:10458000D018002001010200006400401CB5012188
:10459000084600F059F801210A2000F065F80222CF
:1045A00006212648FEF76AFE022207212348FEF76D
:1045B00065FEC020009002208DF8040000208DF8D8
:1045C000060003208DF8050000208DF807006946DD
:1045D0001A48FEF70BFE02231A460321184800F082
:1045E00063FB0121164800F053FB0222002113480F
:1045F000FEF744FE022201211048FEF73FFE032091
:10460000009002208DF8040000208DF806000320A1
:104610008DF8050000208DF8070069460748FEF771
:10462000E5FD02231A460321064800F03DFB012167
:10463000044800F02DFBFEF7CDFD1CBD000002403C
:1046400000040040000C004029B1064A12680243F1
:10465000044B1A6004E0034A12688243014B1A605B
:10466000704700003038024029B1064A1268024300
:10467000044B1A6004E0034A12688243014B1A603B
:10468000704700004038024029B1064A12680243D0
:10469000044B1A6004E0034A12688243014B1A601B
:1046A000704700002038024029B1064A12680243D0
:1046B000044B1A6004E0034A12688243014B1A60FB
:1046C0007047000044380240F0B500210022002469
:1046D000022500260223324F3F6807F00C0121B16A
:1046E000042905D0082937D105E02E4F076036E0B0
:1046F0002D4F076033E02A4F3F1F3F68C7F38056B6
:10470000274F3F1F3F6807F03F036EB1264FB7FBAF
:10471000F3F7DFF88CC0ACF1040CDCF800C0CCF38C
:10472000881C07FB0CF40CE01E4FB7FBF3F7DFF817
:1047300070C0ACF1040CDCF800C0CCF3881C07FBA3
:104740000CF4174F3F1F3F68C7F301477F1C7D00E4
:10475000B4FBF5F7076002E0124F076000BF00BF2F
:104760000F4F3F6807F0F0010909104F7A5C0768A6
:10477000D74047600A4F3F6807F4E051890A0B4F62
:104780007A5C4768D7408760054F3F6807F460410F
:10479000490B064F7A5C4768D740C760F0BD000000
:1047A000083802400024F40040787D016819002098
:1047B00000B585B01248019004208DF80A00002051
:1047C0008DF8090004208DF8080041208DF80B00B9
:1047D00052218DF80C108DF80D1053218DF80E100C
:1047E00069460848FDF7EBF969460648FDF7E7F921
:1047F000042802D1012005B000BD0020FBE7000025
:1048000001010200006400402DE9F0410024002570
:104810000026002740211B48FEF75CFD00BF4FF437
:1048200080511948FEF74DFD0128F8D0012000F015
:104830006BF8072001F083FF00BF4FF4805112484E
:10484000FEF73FFD0128F8D0002000F041F80020DD
:1048500000F03EF80546002000F03AF80646002039
:1048600000F036F80746280440EA062040EA07042C
:1048700040210448FEF730FD84F400042046BDE8E2
:10488000F0810000000802400004024000B585B03D
:104890000D48019004208DF80A0000208DF80900D1
:1048A00004208DF8080040208DF80B0052218DF86F
:1048B0000C108DF80D1053218DF80E106946034829
:1048C000FDF77DF905B000BD010102000064004064
:1048D00010B5044600BF02210A4800F039F800284C
:1048E000F9D02146074800F03FF800BF01210548F4
:1048F00000F02EF80028F9D0024800F032F8C0B2DB
:1049000010BD00000038004010B5044600BF022171
:10491000084800F01DF80028F9D02146054800F0AD
:1049200023F800BF0221034800F012F80028F9D054
:1049300010BD00000038004021B1028842F0400262
:10494000028004E002884FF6BF731A40028070476D
:104950000246002013890B400BB1012000E000202B
:1049600070470146888970478181704710B50022E1
:10497000028802F441520B884C8823438C882343DD
:10498000CC8823430C8923434C8923438C892343BC
:10499000CC8923431A430280838B4FF2FF74234058
:1049A00083830B8A038210BD704700000CB5002082
:1049B000019000903448006840F48030324908602B
:1049C00000BF3148006800F4003000900198401C9E
:1049D0000190009818B90198B0F5A06FF1D12A485C
:1049E000006800F4003010B10120009001E00020C8
:1049F00000900098012846D123484030006840F0DC
:104A000080502149403108602048006840F48040CF
:104A10001E4908601C48083000681B4908310860BE
:104A20000846006840F4004008600846006840F40A
:104A3000A05008601648091F0860081F006840F071
:104A40008070091F086000BF0F48006800F0007008
:104A50000028F9D040F205600E4908600A48083085
:104A6000006820F003000849083108600846006823
:104A700040F00200086000BF03480830006800F002
:104A80000C000828F8D10CBD00380240007000402E
:104A900019544007003C024010B586B00446354822
:104AA000029008208DF80E0000208DF80D000420E3
:104AB0008DF80C0041208DF80F0053218DF8101057
:104AC00094ED000AF2EE040A20EE200ABDEEC00AC0
:104AD00010EE100AC1B28DF8111094ED000AF2EE3A
:104AE000040A20EE200ABDEEC00A10EE100A010AE8
:104AF0008DF8121094ED010AF2EE040A20EE200A5D
:104B0000BDEEC00A10EE100AC1B28DF8131094ED7C
:104B1000010AF2EE040A20EE200ABDEEC00A10EEF1
:104B2000100A010A8DF8141094ED020AF2EE040A3C
:104B300020EE200ABDEEC00A10EE100AC1B28DF8B8
:104B4000151094ED020AF2EE040A20EE200ABDEEE2
:104B5000C00A10EE100A010A8DF8161001A90648C5
:104B6000FDF72DF8042802D1012006B010BD002069
:104B7000FBE70000010102000064004010B5FBF7F4
:104B80001FFB044608480078401C07490870074886
:104B90000068401C054908602046FBF715FBFFF73D
:104BA00071F8FEF743FD10BD91190020C4190020D3
:104BB00010B51548006840F47000134908601348A8
:104BC000006840F001001149086000200F490831D9
:104BD00008600E4800680E4908400C4908600D48FE
:104BE000091D0860081F006820F48020091F086064
:104BF000002006490C310860FFF7D8FE4FF0006036
:104C000001498039086010BD88ED00E0003802409D
:104C1000FFFFF6FE1030002410B50121880700F0D8
:104C200064F838B30121880700F02FF801218807C4
:104C300000F028F810480068401C0F4908600F4831
:104C4000007805280BDAFFF7DFFD0D490B4A1278D3
:104C500041F8220009480078401C084908700748BC
:104C60000078052806D10020044908700220044974
:104C70001C39087610BD0000EC180020E818002050
:104C8000CC1A0020CA4302827047CA43028270478E
:104C900021B1028842F00102028004E002884FF64E
:104CA000FE731A4002807047F0B50C4615461E464A
:104CB0000021002200230189028B038C4FF6F87734
:104CC000394021434FF6FC473A4040F201173A433E
:104CD0004FF6DD773B404FF6FF7707EA06172F4385
:104CE0003B43018102830384F0BD30B502460020BE
:104CF00000230024158A05EA0103958905EA0104C9
:104D000013B10CB1012000E0002030BD1AB183893D
:104D10000B43838102E083898B43838170470000CA
:104D200000220288184B98420ED0184B98420BD0A4
:104D3000B0F1804F08D0164B984205D0154B9842E1
:104D400002D0154B984204D14FF68F731A404B880E
:104D50001A43124B984207D0114B984204D04FF699
:104D6000FF431A400B891A4302804B68C3620B88C9
:104D70000385054B984202D0044B984201D18B7AAF
:104D80000386012383827047000001400004014034
:104D90000004004000080040000C004000100040EB
:104DA0000014004016E00C48008801280FDB0A4878
:104DB0000088401E084908800848FFF75BFB084947
:104DC00008700920FEF714FF0648FFF765FE012072
:104DD000FEF70EFFE7E7000036000020946D00208C
:104DE0003A000020C46D002010B540F225514D4816
:104DF00000F060F9002875D040F22551494800F0D4
:104E00001FF940F22551474800F023F9454800F0CA
:104E10000BFAC4B244480078012816D143480088F0
:104E2000401C00B2414908800846B0F90000401E0D
:104E30003F490C543D48B0F90000612805DD0220CF
:104E40003A4908800020384908703A48007801281B
:104E50001ED1532C17D135480088801E00B233492B
:104E600008800846B0F90010314801F043F9324992
:104E7000086002202D49088001202B49087000207D
:104E80002C49087004E0592C02D0002029490870F0
:104E9000592C02D10120274908702848007800F0D9
:104EA0004000A0B32548007800F0800070BB234884
:104EB000007800F0200060B10A2C03D000201F49C8
:104EC00008702DE01D48007840F080001B490870F4
:104ED00026E00D2C07D11948007840F02000174932
:104EE00008701DE01DE01548007800F01F0014490F
:104EF0000C5412480078401C10490870084600788D
:104F000000F01F001F280BDD0020087008E0FFE7FD
:104F1000232C05D10948007840F04000074908706B
:104F200000BF10BD00100140FA180020FC1800203E
:104F3000FE180020F91800206019002064190020D4
:104F400020AE002070B540F22551384800F0B2F88C
:104F5000002869D040F22551344800F071F840F241
:104F60002551324800F075F8304800F05DF9C4B2C0
:104F70002F48007800F0400038B32D48007800F04A
:104F8000800008BB0D2C06D12948007840F0800035
:104F9000274908702AE02648007800F03F0025499C
:104FA0000C5423480078401C21490870224800888E
:104FB000401C214908801E48007800F03F001F284F
:104FC00014DD00201A49087010E0232C0ED1184976
:104FD000097841F04001164A1170002003E00021D9
:104FE000144A1154401C2028F9DB00BF13480078F4
:104FF00000F08000C0B100250CE00E48415D0B4878
:1050000000F017F900BF4021084800F046F80128D9
:10501000F9D16D1C084800888542EEDB0020044968
:1050200008700549088000BF70BD000000440040C2
:105030006519002020AE00206619002064190020A8
:1050400001F40072B2F5007F00D100BFCA430280B4
:10505000704710B50022002340F66A14A14200D127
:1050600000BF0A1201249440A3B2DC43048010BDA7
:1050700021B1828942F40052828104E082894DF696
:10508000FF731A40828170471AB1838A0B4383826F
:1050900002E0838A8B438382704702460020B1F589
:1050A000007F00D100BF13880B400BB1012000E04E
:1050B0000020704770B50246002400230025002020
:1050C00040F66A16B14200D100BFC1F3421501F0AB
:1050D0001F03012606FA03F3012D02D196893340FE
:1050E00006E0022D02D1168A334001E0968A334051
:1050F0000C12012606FA04F41688344013B10CB1E0
:10510000012000E0002070BDF0B503460024002619
:105110000025002040F66A17B94200D100BF1846AA
:10512000C1F3421401F01F06012707FA06F5012C0E
:1051300001D10C3004E0022C01D1103000E0143019
:105140001AB107682F43076002E00768AF430760A2
:10515000F0BD00002DE9FF4705460E460024A1469C
:1051600000BFA046B08900B100BF2C8A24F440548F
:10517000F08804432C82AC8941F20C608443B088EF
:1051800031890843718908430443AC81AC8A24F413
:105190004074B0890443AC826846FFF795FA204812
:1051A000854202D01F48854202D1DDF80C9001E013
:1051B000DDF80890A88900F4004040B109EBC9006F
:1051C00000EB091031684900B0FBF1F707E009EB8B
:1051D000C90000EB091031688900B0FBF1F76420C9
:1051E000B7FBF0F004012009642101FB1078A889C5
:1051F00000F4004040B1322000EBC800B0FBF1F0F9
:1052000000F00700044308E0322000EB081064219E
:10521000B0FBF1F000F00F0004432C81BDE8FF87E4
:10522000001001400014014001468888C0F30800C6
:105230007047C1F3080282807047000038B500252E
:1052400000241148FEF774F80446142C01DD1424E0
:1052500001E004B938BD002509E069460A48FDF7B8
:1052600049FF9DF8000009494855681CC5B2A54290
:10527000F3DB21460648FDF73BFF01210448FDF71B
:1052800003FE00BFE6E700004CAD002018AD002093
:10529000B864024000BFFEE710B586B0044632484D
:1052A000029004208DF80E0000208DF80D000420DF
:1052B0008DF80C0041208DF80F0059218DF8101049
:1052C00094ED000AF2EE040A20EE200ABDEEC00AB8
:1052D00010EE100AC1B28DF8111094ED000AF2EE32
:1052E000040A20EE200ABDEEC00A10EE100A010AE0
:1052F0008DF8121094ED010AF2EE040A20EE200A55
:10530000BDEEC00A10EE100AC1B28DF8131094ED74
:10531000010AF2EE040A20EE200ABDEEC00A10EEE9
:10532000100A010A8DF8141094ED020AF2EE040A34
:1053300020EE200ABDEEC00A10EE100AC1B28DF8B0
:10534000151094ED020AF2EE040A20EE200ABDEEDA
:10535000C00A10EE100A010A8DF8161001A90348C0
:10536000FCF72DFC06B010BD0101020000640040F6
:1053700003B401984100009850EAC12018BF0420EE
:105380004A0D18BF40F0010040F2FF72B2EB515FCE
:1053900008BF40F00200012808BF052002B0704796
:1053A00070B59B482DED020B2DED068B079D25F06A
:1053B0000044A04218DC9748844202DC0AD10698D7
:1053C00040B19DED060BBDEC068B02B0BDE8704010
:1053D00000F04EBE002DCCBF9FED8F0B9FED900BCC
:1053E000BDEC068B02B070BD8F48A04215DD8F4822
:1053F000A042D8BF4FF0FF3458DD9DED060B51ECB5
:10540000100BFFF7B5FF042808BF00F04DFE9DED1F
:10541000060BBDEC068B02B070BD9DED060B51EC8A
:10542000100B01F096F9CDE9060181489FED828BC2
:10543000A0423CDD8248A0421FDD00249FED82ABEC
:105440009DED060B53EC1A2B51EC100BFAF710FFE5
:105450009DED060B41EC190B53EC1A2B51EC100B84
:10546000FAF7ADFF53EC182BFAF7A3FF53EC192B07
:10547000FBF717F8CDE9060149E09DED060B012485
:1054800053EC182B51EC100BFAF7F2FE9DED060BC6
:1054900041EC190B53EC182B51EC100BFAF789FF68
:1054A00053EC192BFAF7FDFFCDE906012FE0684810
:1054B000A0421FDD02249FED689B9DED060B53EC7F
:1054C000192B51EC100BFAF77AFF53EC182BFAF763
:1054D000CFFE9DED060B41EC180B53EC192B51EC54
:1054E000100BFAF766FF53EC182BFAF7DAFFCDE949
:1054F00006010CE09DED060B032453EC102B9FEDF1
:10550000580B51EC100BFAF7CCFFCDE906019DEDDD
:10551000060B53EC102B51EC100BFAF750FF41EC3B
:10552000180B53EC182BFAF74AFF41EC190B4E48B5
:105530000621B0EE490AF0EE690A784400F084FCD6
:1055400053EC182B51EC100BFAF739FF41EC180B08
:105550004648B0EE490AF0EE690A0521784400F0A9
:1055600073FC53EC192B51EC100BFAF728FF41ECAC
:10557000100B51EC180B53EC102B002C0EDAFAF731
:1055800077FE9DED061B53EC112BFAF718FF9DEDEE
:10559000061B53EC112BFAF70FFF35E0FAF768FE04
:1055A0009DED061B53EC112BFAF709FF41EC100B94
:1055B0002F48784400EBC40090ED001B51EC100B19
:1055C00053EC112BFAF7F5FE9DED061B53EC112B56
:1055D000FAF7EFFE41EC100B2648784400EBC400CC
:1055E00090ED001B51EC100B53EC112BFAF7E4FE7D
:1055F00041EC100B002DA2BFBDEC068B02B070BDBC
:1056000051EC100B81F0004141EC100B01E7000060
:10561000000010440000F07F182D4454FB21F93F96
:10562000182D4454FB21F9BF0000DC3F0000203E50
:105630000000F33F00000000000000000000F03F09
:105640000000E63F000000000000000000000040F5
:105650000080034000000000000000000000F83F50
:10566000000000000000F0BFBA1E0000701E000025
:10567000FA1D0000B21D000010B52F499FED2C1B34
:105680002DED020B84B0059820F000408842D8BF71
:105690009DED040B2DDD2949884209D1049840B9BC
:1056A0004FF0010000F020FD00F0EEFC06B010BD50
:1056B00005DB9DED040B00F0DBFC06B010BD684679
:1056C0009DED040B00F0ECF810F0030004BF9DED1D
:1056D000021B9DED000B0CD001280ED09DED021B8E
:1056E0009DED000B022817D0012000F029FC06B028
:1056F00010BD00F0F1FA06B010BD9DED021B9DED4E
:10570000000B012000F01CFC51EC100B81F000415B
:1057100006B041EC100B10BD00F0DEFA51EC100B9E
:1057200081F0004106B041EC100B10BD00000000FC
:105730000000000000000000FB21E93F0000F07FB6
:105740002DED020B019820F0004001909DED000B23
:1057500002B070470000000010B52F499FED2C1BD0
:105760002DED020B84B0059820F000408842DCBF8C
:1057700000209DED040B32DD2849884209D10498B0
:1057800040B94FF0010000F0AFFC00F07DFC06B026
:1057900010BD05DB9DED040B00F06AFC06B010BDEA
:1057A00068469DED040B00F07BF810F0030011D06B
:1057B000012818D09DED021B9DED000B02281AD088
:1057C00000F08AFA51EC100B81F0004106B041EC78
:1057D000100B10BD9DED021B9DED000B012000F094
:1057E000AFFB06B010BD9DED021B9DED000B00F060
:1057F00073FA06B010BD012000F0A2FB51EC100BB3
:1058000081F0004106B041EC100B10BD000000001B
:105810000000000000000000FB21E93F0000F07FD5
:1058200000B52DED048BB0EE409AF0EE609A83B097
:1058300051EC190BFBF705F841EC180B18EE100AA8
:1058400018EE901A8DED008B002818BF0120084338
:1058500020F00040C0F17F6000F1E040C00F14D0A4
:1058600019EE101A19EE900A8DED009B002918BF51
:105870000121084320F00040C0F17F6000F1E040CA
:10588000C00F04BF012000F02FFCB0EE480A03B0A7
:10589000F0EE680ABDEC048B00BD000000000000C3
:1058A0002DE9F14F04462DED020B2DED088B8AB04A
:1058B0009FEDE70B80ED020B139EE74826F00045B5
:1058C00085420ADC9DED120B002084ED000B0AB02E
:1058D000BDEC088B03B0BDE8F08FE0489FEDE0AB76
:1058E0009FEDE1BBA84247DDE14F9FEDE39B9FEDBC
:1058F000E48B9DED120B53EC1A2B51EC100B002E88
:105900001CDDFAF756FD41EC100BBD4208D053ECFC
:105910001B2B51EC100BFAF74CFDC4E900010BE016
:1059200053EC192B51EC100BFAF743FD53EC182BE9
:10593000FAF73FFDC4E900010120C8E7FAF798FC37
:1059400041EC100BBD4208D053EC1B2B51EC100B5B
:10595000FAF78EFCC4E900010BE053EC192B51EC73
:10596000100BFAF785FC53EC182BFAF781FCC4E90D
:1059700000014FF0FF30AAE7C348A84279DB9DED54
:10598000120B51EC100B00F0E4FE41EC180B9FEDF4
:10599000C00B53EC102BFAF712FD9FEDBF1B53EC1D
:1059A000112BFAF765FCFAF709FE0746FAF7E8FD4E
:1059B00041EC190B53EC1A2BFAF701FD53EC182BA1
:1059C000FAF7FAFC41EC180B53EC1B2B51EC190BBA
:1059D000FAF7F5FCDFF8C8A241EC100B4FEA1558B6
:1059E0000125FA4453EC102B51EC180BFAF7E1FCAB
:1059F000032DC4E900013DD0C1F30A5005EB451168
:105A0000A8EB00001139814234DA0AEB051BB0EE35
:105A100048AA9BED000BF0EE68AA53EC102B51EC5A
:105A2000190BFAF7CCFC41EC1B0B51EC1A0B53ECA5
:105A30001B2BFAF7BEFC41EC180B51EC1A0B53EC84
:105A4000182BFAF7B6FC53EC1B2BFAF7B2FC9BEDC4
:105A5000020B41EC1A0B53EC102B51EC190BFAF71B
:105A6000AEFC53EC1A2BFAF7A4FC41EC100B6D1CA6
:105A7000B8E70EE0002EA8BF3846BFF628AF94ED79
:105A8000000B51EC100B81F00041C4E90001784299
:105A90001DE7C6F3130040F4801EC6F30A50A0F2BF
:105AA000F530471100F01F05C5F12000DDF848B0C2
:105AB00008900020069007900520EC467949002DBB
:105AC00007EB0002794408BF51F8221009D051F8C1
:105AD000223001EB8201AB404A68089922FA01F1B9
