:020000040800F2
:1000000030CD00209D010008B1290008A927000873
:10001000AD2900083D0A0008114200080000000058
:10002000000000000000000000000000D13D0008BA
:10003000952500080000000003020008A53F000805
:10004000B7010008B7010008B7010008B7010008B0
:10005000B7010008B7010008B7010008B7010008A0
:10006000B7010008B7010008B7010008B701000890
:10007000B7010008B7010008B7010008B701000880
:10008000B7010008B7010008B7010008B701000870
:10009000410A0008B7010008B7010008B7010008CD
:1000A000B7010008B7010008B7010008B701000850
:1000B00041400008B7010008B7010008B701000877
:1000C000B7010008B7010008B7010008B701000830
:1000D000B7010008B7010008B7010008B701000820
:1000E000B7010008B7010008B7010008B701000810
:1000F000B7010008B7010008B7010008B701000800
:10010000B7010008B7010008B7010008B7010008EF
:10011000B7010008B7010008B7010008B7010008DF
:10012000B7010008B7010008B7010008B7010008CF
:10013000B7010008B7010008B7010008B7010008BF
:10014000B7010008B7010008B7010008B7010008AF
:10015000B7010008B7010008B7010008B70100089F
:10016000B7010008B7010008B7010008B70100088F
:10017000B7010008B7010008B7010008B70100087F
:10018000B7010008B7010008DFF80CD000F0AAFBA7
:10019000004800470151000830CD00200648804744
:1001A00006480047FEE7FEE7FEE7FEE7FEE7FEE75C
:1001B000FEE7FEE7FEE7FEE7D93F000889010008F9
:1001C000EFF3108072B6704780F3108870472048B4
:1001D0004FF0FF010170002080F309881D480121C4
:1001E00001701D484FF08051016062B6FEE71A4869
:1001F0004FF080510160704717484FF08051016007
:10020000704772B6EFF3098040B1403880EC108A35
:10021000203880E8F00F11490968086000B51048DF
:1002200080475DF804EB0F480F490A7802700B48CD
:100230000E490A680260106890E8F00F203090ECD8
:10024000108A403080F309884EF0040E62B6704781
:1002500022ED00E0D618002004ED00E0DC180020BC
:1002600035300008CB180020CC180020E4180020FE
:100270002DE9FE4F804681EA0300C00F0C46009036
:1002800021F0004123F00045B8EB0200A94105D25E
:100290004046214690461C460B46024623F000404D
:1002A000104347D0270DC7F30A00C3F30A51029049
:1002B000401A019040286BDAC3F3130040F4801B0E
:1002C0000098924620B10023D2EB030A63EB0B0B9C
:1002D00001985946C0F14002504600F0EDF906463B
:1002E0000D4650465946019A00F005FA10EB0800F9
:1002F0006141002487EA115284EAE7731A4340D02F
:10030000009A62B3019A012A4FEA075215DC001BDA
:1003100061EB02014FF0004202EA0752CDE90042D0
:10032000001C41F5801132462B4600F03CFA03B028
:10033000BDE8F08F40462146F9E7001B61EB020162
:10034000001C41F5801300185B412018A2F500172E
:1003500047EB030140EAD570B6196D4111E06D0815
:100360004FEA360645EAC0754FEA0752001B61EBBB
:100370000201001C41F5801149084FEA30000019C4
:10038000514132462B4603B0BDE8F04F00F0FCB9B6
:100390000098012240000023D0EB020263EBE073DF
:1003A000009821464FEAE074B8EB000061EB0401CD
:1003B000E9E783F000435BE781F0004158E72DE96E
:1003C000FE4F81EA030404F0004421F00041009450
:1003D0004FF0000B23F0004350EA01045ED052EAD4
:1003E00003045BD0C3F30A54C1F30A552C44A4F2AE
:1003F000F3340194A0FB0254C1F3130141F48011C2
:10040000C3F3130343F4801301FB024400FB034EC8
:10041000840A970A44EA815447EA8357A4FB076891
:1004200002958D0A05FB07854FEA932C04FB0C54BB
:100430002705029D4FEA065847EA1637B5EB08052F
:100440006EEB070C870E920E47EA811742EA831281
:10045000A7FB0201B6EB0B0164EB00042B0D43EA92
:100460000C335E1844EB1C50DA465146E7FB0201A0
:10047000C5F313044FEA0B3343EA14534FEA043233
:10048000019C43EA0603A4F10C040294009CCDE90C
:1004900000B400F088F903B0BDE8F08F00200146F9
:1004A000F9E72DE9F04D81EA030404F0004B21F057
:1004B000004514464FF0000A23F0004150EA0502BF
:1004C00020D054EA01021DD0C5F30A570246C5F3F5
:1004D0001303C1F31300C1F30A5640F4801543F42B
:1004E0008013A7EB0608101BD64608F2FD3873EB05
:1004F000050002D308F1010801E092185B41B8F150
:10050000000F03DA00200146BDE8F08D00204FF413
:100510008011064684460EE0171B73EB050705D3D2
:10052000121B63EB050306434CEA010C49084FEA32
:10053000300092185B4150EA0107EDD152EA030006
:1005400012D082EA040083EA0501084305D0101B9B
:10055000AB4106D20122002306E000224FF0004307
:1005600002E06FF0010253101AEB06004CEB085149
:1005700010EB0A0041EB0B01BDE8F04D00F004B9AF
:100580000EB5C10F80EAE0700844CA07002140F2AE
:1005900033438DE80E000A460B4600F004F903B021
:1005A00000BD0EB540F2334102910021CDE90011AA
:1005B0000A460B4600F0F7F803B000BD70B5C1F372
:1005C0000A5201F000450024C1F3130140F2FF3349
:1005D00041F480119A4201DA002070BD40F23343A9
:1005E0009A42A2F2334203DC524200F074F800E077
:1005F00090402C43F1D0404270BD00F0004230F0FA
:1006000000400AD0C10D01F56071C0F3160042EA46
:100610000151C2084007114370470020014670474E
:1006200030B5041E71F1000404DB4FF00044404279
:1006300064EB0101141E73F1000405DB1C464FF04E
:100640000043524263EB04038B4208BF824230BD39
:1006500030B5041E71F1000404DB4FF00044404249
:1006600064EB0101141E73F1000405DB1C464FF01E
:100670000043524263EB0403994208BF904230BDED
:1006800001F0004330B421F0004150EA010206D0ED
:100690000A0DA2F56072C1F31301002A02DC30BC1E
:1006A00000207047440F44EAC104C100E01830BC88
:1006B00000EBC25000F031B8202A04DB203A00FAE7
:1006C00002F1002070479140C2F1200320FA03F3A9
:1006D000194390407047202A04DB203A21FA02F0A7
:1006E0000021704721FA02F3D040C2F1200291406C
:1006F000084319467047202A06DBCB17203A41FAF7
:1007000002F043EAE07306E041FA02F3D040C2F19E
:10071000200291400843194670470029A8BF70473E
:10072000401C490008BF20F00100704710B4B0FA27
:1007300080FC00FA0CF050EA010404BF10BC7047C2
:1007400049B1CCF1200421FA04F411FA0CF118BFDC
:10075000012121430843A3EB0C01CB1D4FEA0061AB
:100760004FEA102042BF002010BC704700EBC3507E
:1007700010440029A4BF10BC7047401C490008BFAA
:1007800020F0010010BC704710B5141E73F1000476
:1007900008DA401C41F1000192185B411A4301D173
:1007A00020F0010010BD2DE9F04D92469B4611B19D
:1007B000B1FA81F202E0B0FA80F220329046FFF7FF
:1007C0007BFF04460F4640EA0A0041EA0B0153460C
:1007D0005A46084313D0114653EA010019D0C8F114
:1007E00040025046FFF777FF05460E4650465946F1
:1007F0004246FFF761FF084305D0012004E0204690
:100800003946BDE8F08D0020054346EAE0762C43EA
:1008100037430A986305E40AA0EB08000022FD0AAA
:1008200044EA47540A3002D500200146E9E70105B1
:1008300010196941DDE9084500196941BDE8F04D2D
:10084000A2E72DE9F04D00231A461B1A8A4103DB6B
:1008500000200146BDE8F08DC1F30A52C1F3130137
:1008600041F480154FF0000BD10702D100186D4103
:10087000521E0027044640F2FF11384601EB620A7F
:100880003E468046024600204FF48011FFF723FFCA
:10089000C2197141BB1846EB0100B4EB030C75EBB8
:1008A000000C04D3E41A65EB000517460E46241924
:1008B00008F101006D4180463428E3DDF91946EB6B
:1008C0000600091BA84103D24FF0FF32134601E096
:1008D000002213461BEB070046EB0A51BDE8F04D22
:1008E000FFF752BF064C074D06E0E06840F00103F9
:1008F00094E8070098471034AC42F6D3FFF748FC61
:10090000505900087059000870B58D1810F8014B47
:1009100014F0030201D110F8012B231106D110F8B5
:10092000013B03E010F8016B01F8016B521EF9D195
:10093000ABB110F8012B04F00C048A1A0C2C03D074
:10094000A2EB84129B1C08E010F8014BA2EB0422DE
:10095000F8E712F8014B01F8014B5B1EF9D5A942EB
:10096000D4D3002070BD04E000F0A0FF012002F00D
:1009700063FBF9E700B52DED028B85B0B0EE408A40
:100980001748019004208DF80A0000208DF8090016
:1009900004208DF8080041208DF80B0041218DF8CE
:1009A0000C10B2EE040A28EE000ABDEEC00A10EEEA
:1009B000100AC1B28DF80D10B2EE040A28EE000A3A
:1009C000BDEEC00A10EE100A010A8DF80E1069463D
:1009D000044800F0CEFE05B0BDEC028B00BD000067
:1009E00001010200006400402DE9F04385B0044697
:1009F0000D4616461F46DDE90C890E480190002081
:100A00008DF8090004208DF80800E0B28DF80A0086
:100A10008DF80B508DF80C608DF80D708DF80E80F0
:100A20008DF80F906946044800F0A3FE05B0BDE8BC
:100A3000F0830000010102000064004000BFFEE7F7
:100A400000B595B00221FE4800F0E8FC002876D001
:100A50000221FB4800F0EEFB0FAA0021F84800F04D
:100A600000FE1098B0F5803F6AD19DF8470000283D
:100A70007DD10FA8007B432802D052286CD126E0FC
:100A80009DF84600052818D10FA8407B57280AD1A9
:100A90005520482157234322CDE90010402105204D
:100AA000FFF7A2FF12E000200090034604227F21FE
:100AB00001900220FFF798FF08E000200090034615
:100AC00002227F2101901046FFF78EFF4EE09DF835
:100AD0004600042836D10FA8407B522825D10FA804
:100AE000807B532821D19FEDD70AD74880ED000A9B
:100AF0009FEDD40A80ED010A9FEDD20A80ED020A33
:100B00009FEDD00AD14880ED000A9FEDCE0A80ED1E
:100B1000010A9FEDCC0A80ED020A0120CC49088031
:100B200001F01CFE03F0C6F815E00020009003461B
:100B300004227F2101900220FFF756FF0BE0A1E085
:100B40001EE014E000200090034602227F21019065
:100B50001046FFF749FF09E00020009003460122FC
:100B60007F2101900220FFF73FFF00BF08E0002037
:100B70000090034602467F2101900220FFF734FFD8
:100B80001098B0F5813F7DD19DF8470001287AD1BA
:100B90000FA8007B562877D006DC412875D04C285A
:100BA00074D0522873D104E0582871D05928F9D153
:100BB0009BE19DF8460008286BD10FA8417C807C02
:100BC00041EA002000B20790FFF7DAFC9FEDA10B8D
:100BD00053EC102BCDE908019DED080B51EC100BE7
:100BE000FFF7EDFBCDE90A019DED0A0B51EC100B6F
:100BF000FFF746FD94498860084690ED020ADFED54
:100C0000970A20EE200ADFED960A80EE201A95481A
:100C100090ED000A31EE000A8DED0E0A0E98FFF7F6
:100C2000ECFCCDE908019DED080B03F00DFB8DED0B
:100C30000A0B9DED0A0B51EC100BFFF721FD0C90F8
:100C40000E98FFF7DAFCCDE908019DED080B03F0E3
:100C50006BFB8DED0A0B9DED0A0B51EC100BFFF7B2
:100C60000FFD0D908048D0ED000A9DED0C0A20EE9E
:100C7000800A8DED050A0598FFF7BFFCCDE9080154
:100C80000FA807E0BEE2BEE24DE28BE2B4E1AFE2C4
:100C900088E07DE0417B807B41EA002000B201904A
:100CA000FFF76EFC9FED6B0B53EC102BCDE90201AF
:100CB0009DED020B51EC100BFFF781FB9FED6B0BD1
:100CC00053EC102BCDE904019DED040B51EC100BFE
:100CD000FFF7E7FBCDE906019DED080B53EC102B68
:100CE0009DED060B51EC100BFFF7C2FACDE90A019E
:100CF0009DED0A0B51EC100BFFF7C2FC5249086046
:100D00005948D0ED000A9DED0D0A20EE800A8DEDC8
:100D1000050A0598FFF771FCCDE908010FA8C17B12
:100D2000007C41EA002000B20190FFF729FC9FED12
:100D3000490B53EC102BCDE902019DED020B51EC58
:100D4000100BFFF73CFB9FED490B53EC102BCDE94B
:100D500004019DED040B51EC100BFFF7A2FBCDE954
:100D600006019DED080B53EC102B9DED060B51EC8D
:100D7000100BFFF77DFACDE90A019DED0A0B51EC4E
:100D8000100BFFF77DFC3049486002F025FF08E0BA
:100D900000200090034602227F2101901046FFF7B9
:100DA00023FE2FE29DF8460004287CD1264890EDD2
:100DB000020ADFED2A0A20EE200A9FED291AC0EE72
:100DC000010A284890ED000A30EE800A8DED0E0AE7
:100DD0000E98FFF712FCCDE908019DED080B03F01A
:100DE00033FA8DED0A0B9DED0A0B51EC100BFFF75A
:100DF00047FC0D901C48D0ED000A9DED0D0A20EE39
:100E0000800A8DED050A0598FFF7F7FBCDE908018B
:100E10000FA8417B807B41EA002000B20190FFF7E0
:100E2000AFFB9FED0C0B53EC102BCDE902019DEDB8
:100E3000020B51EC100BFFF7C2FA9FED0C0B19E0FF
:100E40000064004000000000506C0020646C002032
:100E5000340000209A9999999999B93FDB0F49403C
:100E600000003443A40000209C000020000000008B
:100E70000000F03F53EC102BCDE904019DED040B75
:100E800051EC100BFFF70DFBCDE906019DED080BB2
:100E900053EC102B9DED060B51EC100BFFF7E8F90E
:100EA000CDE90A0100E016E09DED0A0B51EC100BB4
:100EB000FFF7E6FBD949086000210FA8807BCDE948
:100EC00000010FA8407B0346582241210C900420CA
:100ED000FFF78AFD08E000200090034602227F21F0
:100EE00001901046FFF780FD8CE19DF84600042834
:100EF00078D1CA4890ED020A5FED280A20EE200A58
:100F00001FED291AC0EE010AC54890ED000A30EE27
:100F1000800A8DED0E0A0E98FFF76FFBCDE90801F0
:100F20009DED080B03F000FA8DED0A0B9DED0A0B09
:100F300051EC100BFFF7A4FB0D90BA48D0ED000A5E
:100F40009DED0D0A20EE800A8DED050A0598FFF74C
:100F500054FBCDE908010FA8417B807B41EA0020CA
:100F600000B20190FFF70CFB1FED460B53EC102B6A
:100F7000CDE902019DED020B51EC100BFFF71FFABA
:100F80001FED460B53EC102BCDE904019DED040B36
:100F900051EC100BFFF785FACDE906019DED080B2A
:100FA00053EC102B9DED060B51EC100BFFF760F985
:100FB000CDE90A019DED0A0B51EC100BFFF760FB28
:100FC0009649486000210FA8807BCDE900010FA859
:100FD000407B0346592241210C900420FFF704FD79
:100FE00009E0FFE700200090034602227F210190E4
:100FF0001046FFF7F9FC05E19DF8460006287DD173
:101000000FA8C17B007C41EA002000B20990FFF7E5
:10101000B7FACDE90A019DED0A0B51EC100BFFF771
:101020002FFB7E498860084690ED020A7E48D0ED8D
:10103000000A30EE200A5FED770A60EE200A1FED0D
:10104000781A80EE810A8DED0E0A0E98FFF7D5FA18
:10105000CDE908019DED080B03F0F6F88DED0A0BC4
:101060009DED0A0B51EC100BFFF70AFB0D906D483C
:10107000D0ED000A9DED0D0A20EE800A8DED050AE7
:101080000598FFF7BAFACDE908010FA8417B807BEC
:1010900041EA002000B20190FFF772FA1FED930BB6
:1010A00053EC102BCDE902019DED020B51EC100B1E
:1010B000FFF785F91FED930B53EC102BCDE90401DD
:1010C0009DED040B51EC100BFFF7EBF9CDE9060198
:1010D0009DED080B53EC102B9DED060B51EC100B06
:1010E000FFF7C6F8CDE90A019DED0A0B51EC100B94
:1010F000FFF7C6FA49490860002000E009E05321E3
:101100000B465222CDE9001041210420FFF76CFC70
:1011100008E000200090034602227F210190104643
:10112000FFF762FC6EE09DF84600042830D10FA85E
:10113000417B807B41EA002000B20990FFF720FA52
:101140001FEDBC0B53EC102BCDE90A019DED0A0BF2
:1011500051EC100BFFF733F9CDE90C019DED0C0BB1
:1011600051EC100BFFF78CFA00EE100A2F4880EDBF
:10117000000A00210FA8807BCDE900010FA8407B69
:101180000346562241210E900420FFF72DFC08E073
:1011900000200090034602227F2101901046FFF7B5
:1011A00023FC2FE09DF84600042817D10FA8407BB0
:1011B000432809D10FA8807B432805D11C4890ED16
:1011C000000AFFF7D7FB12E000200090034604223C
:1011D0007F2101900220FFF707FC08E0002000902B
:1011E000034602227F2101901046FFF7FDFB09E034
:1011F00000200090034601227F2101900220FFF78A
:10120000F3FB00BF08E000200090034602467F2168
:1012100001900220FFF7E8FB15B000BD506C0020E4
:10122000A40000209C000020A000002078180020CE
:1012300058180020B1F5007F3AD00FDC202928D0C3
:1012400006DC01291CD004291DD0082940D11DE04D
:10125000402921D0B1F5807F3AD126E0B1F5004F89
:1012600031D006DCB1F5806F25D0B1F5006F2FD1FC
:1012700024E0B1F5803F12D0B1F5003F28D111E054
:10128000154A826025E00822C26022E01022C26076
:101290001FE0082202611CE01022026119E008220E
:1012A000426016E01022426013E00422426010E027
:1012B000042242600DE0042242600AE000228261C2
:1012C0000422426005E0002282610422426000E0C4
:1012D00000BF00BF704700000101010010B50446C7
:1012E0000B48844209D10121480602F0F1FB00219C
:1012F0004FF0007002F0ECFB08E00121880602F0DC
:10130000E7FB00214FF0806002F0E2FB10BD00001F
:101310000064004010B50021837A012202FA03F133
:101320003D4A126842F001023B4B1A603A4A1C32B5
:1013300012688A43384B1C331A60027BCAB9364A9A
:101340000C3212688A43344B0C331A604288C388CB
:1013500042EA0343304A4032847A42F83430028809
:10136000838842EA03432C4A4032847A02EBC40267
:101370005360027B012A19D1274A0C3212680A43B2
:10138000254B0C331A604288038842EA0343224A01
:101390004032847A42F83430C288838842EA034378
:1013A0001D4A4032847A02EBC4025360C27A3AB9D1
:1013B000194A121D12688A43174B1B1D1A6006E05A
:1013C000154A121D12680A43134B1B1D1A6002892D
:1013D00032B9114A143212688A430F4B14331A601F
:1013E0000289012A06D10C4A143212680A430A4BB8
:1013F00014331A60427B012A06D1074A1C32126854
:101400000A43054B1C331A60034A126822F001029A
:10141000014B1A6010BD00000066004070B5044624
:101420000D46002660692840002871D0B5F5807F00
:101430005CD010DC082D35D006DC012D20D0022D2B
:1014400024D0042D72D127E0102D31D0202D35D09D
:10145000402D6BD138E0B5F5004F60D009DCB5F513
:10146000007F49D0B5F5806F4CD0B5F5006F5DD1E8
:101470004FE0B5F5803F2DD0B5F5003F56D12FE0B8
:10148000A0682D4900F008FA064651E0E068032103
:1014900000F002FA06464BE0E068082100F0FCF993
:1014A000064645E0E068102100F0F6F906463FE008
:1014B0002069032100F0F0F9064639E0206908218F
:1014C00000F0EAF9064633E02069102100F0E4F963
:1014D00006462DE06068082100F0DEF9064627E0A8
:1014E0006068102100F0D8F9064621E0A0690121CA
:1014F00000F0D2F906461BE0A069022100F0CCF909
:10150000064615E0A069042100F0C6F906460FE082
:101510000FE0A069702100F0BFF9064608E060689E
:10152000042100F0B9F9064602E0FFE7002600BFFB
:1015300000E00026304670BD010101001AB1436988
:101540000B43436102E043698B434361704730B50D
:10155000024600200023146824F00204146014687A
:1015600044F00104146000E05B1C546804F00104C2
:101570001CB94FF6FF74A342F6D1546804F001047D
:101580000CB900206CE08C79012C04D1146844F073
:101590008004146003E0146824F080041460CC79A3
:1015A000012C04D1146844F04004146003E0146872
:1015B00024F0400414600C7A012C04D1146844F027
:1015C0002004146003E0146824F0200414604C7AB2
:1015D000012C04D1146844F01004146003E0146872
:1015E00024F0100414608C7A012C04D1146844F0A7
:1015F0000804146003E0146824F008041460CC7A32
:10160000012C04D1146844F00404146003E014684D
:1016100024F0040414608C78A407CD7844EA0564AF
:101620000D7944EA05444D7944EA05540D886D1E50
:101630002C43D461146824F001041460002300E0FA
:101640005B1C546804F001041CB14FF6FF74A34204
:10165000F6D1546804F001040CB1002000E0012030
:1016600030BD10B500F5D87303EB01131B6803F010
:1016700004031372137A53B900F5D87303EB011303
:101680001B6840F2FF7404EA5353136009E000F54D
:10169000D87303EB01131B686FF0604404EAD303B3
:1016A000536000F5D87303EB01131B6803F00203CA
:1016B000537200F5D87303EB01135B6803F00F035B
:1016C000937200F5D87303EB01135B681B0AD374A4
:1016D00000F5D87303EB01139B68D37200F5D87340
:1016E00003EB01139B681C0A147300F5D87303EB1A
:1016F00001139B681C0C547300F5D87303EB0113A2
:101700009B681B0E937300F5D87303EB0113DB6822
:10171000D37300F5D87303EB0113DB681C0A147450
:1017200000F5D87303EB0113DB681C0C547400F54F
:10173000D87303EB0113DB681B0E937421B9C368E4
:1017400043F02003C36003E0036943F02003036117
:1017500010BD00218171C171017241728172C1722B
:101760008170C17003210171022141710121018049
:10177000704710B502460020936803F08063B3F110
:10178000806F00D110E0936803F00063B3F1006F45
:1017900001D1012008E0936803F08053B3F1805F2A
:1017A00001D1022000E00420042874D002F5C073A7
:1017B00003EB00131B6803F0010402F5C07303EB95
:1017C00000131C600B7A7BB94B7A0C8843EA4453B4
:1017D00002F5C07404EB00142468234302F5C074BE
:1017E00004EB0014236010E00B7A4C6843EAC40356
:1017F0004C7A234302F5C07404EB0014246823439D
:1018000002F5C07404EB001423608B7A03F00F031D
:101810008B7202F5C07303EB00135B6823F00F04B7
:1018200002F5C07303EB00135C6002F5C07303EBB9
:1018300000135B688C7A234302F5C07404EB001438
:1018400063608B7B1C064B7B44EA03440B7B44EABE
:101850000323CC7A234302F5C07404EB0014A36085
:101860008B7C1C064B7C44EA03440B7C44EA032338
:10187000CC7B234302F5C07404EB0014E36002F553
:10188000C07303EB00131B6843F0010402F5C0733F
:1018900003EB00131C6010BD0246002002EA0103A6
:1018A0000BB1012000E000207047000010B52DEDC5
:1018B000088BFE48007E02287ED1FC4803F0A6FA81
:1018C000B0EE408AF0EE608A51EC180BFEF7D8FEBD
:1018D000F7490860084690ED000AF64803F088FBD7
:1018E000F54880ED000AF2480068FEF786FE41ECFC
:1018F000190BB0EE490AF0EE690AF049F04803F01E
:1019000093FCB0EE408AF0EE608A51EC180BFEF7C3
:10191000B7FEEC490860EC480078002871D1EB482C
:10192000006840F2CF7188422EDA4FF48071E848A7
:1019300000F00CFF4FF40071E54800F009FFDE48AD
:101940000068FEF75AFEE34AE04B1B6802EBC30255
:1019500003C2DE4801680068401CDC4A1060DD48B4
:1019600000EBC10090ED001BB0EE410AF0EE610A01
:1019700053EC102BD84890ED001B51EC110BFEF7E7
:1019800077FCD54A03C2EEE14FF48071D04800F0F5
:10199000DFFE0120CC490870C7480068FEF72DFE25
:1019A000CC4ACA4B1B6802EBC30203C2C948C749F1
:1019B000096800EBC10000E0DAE190ED001BB0EE39
:1019C000410AF0EE610A53EC102BC34890ED001B66
:1019D00051EC110BFEF74CFCBF4A03C29FEDBF0B4D
:1019E00053EC102BBC4890ED000B51EC100BFEF7A4
:1019F00058FD41EC180BFEF743FEAE494862B2E1D8
:101A0000FFE7AC4890ED090AAB48D0ED000A30EE94
:101A1000C00A10EE101A0846FEF7EFFD41EC190B54
:101A2000B0EE490AF0EE690A02F072FCB0EE408AAC
:101A3000F0EE608A51EC180BFEF722FEA94908600F
:101A4000084690ED000ADFEDA80AB4EEE00AF1EED8
:101A500010FA7DD29D480068B0F5FA6F4CDA9D48C7
:101A60009A49096800EBC10090ED001BB0EE410AF5
:101A7000F0EE610A53EC102B974890ED001B51ECEF
:101A8000110BFEF796FC944A03C28B480068FEF7E0
:101A9000B4FD904A8D4B1B6802EBC30203C28D4814
:101AA0008A49096800EBC10090ED001BB0EE410AC5
:101AB000F0EE610A53EC102B874890ED001B51ECBF
:101AC000110BFEF7D5FB844A03C29FED840B53EC48
:101AD000102B814890ED000B51EC100BFEF7E1FC50
:101AE00041EC180BFEF7CCFD72494862774800685C
:101AF000401C7649086036E100207449086075484A
:101B0000096800EBC10090ED001BB0EE410AF0EE59
:101B1000610A53EC102B704890ED001B51EC110B37
:101B2000FEF747FC6C4A03C263480068FEF765FD98
:101B3000684A664B1B6802EBC30203C265486349EF
:101B4000096800EBC10090ED001BB0EE410A00E017
:101B500023E0F0EE610A53EC102B5F4890ED001B80
:101B600051EC110BFEF784FB5B4A03C29FED5B0B4C
:101B700053EC102B584890ED000B51EC100BFEF776
:101B800090FC41EC180BFEF77BFD4A4948624F4838
:101B90000068401C4D490860E5E0464890ED090AA0
:101BA0004848D0ED000A30EEC00A10EE101A084680
:101BB000FEF723FD41EC190B81F0004141EC180BBD
:101BC0009FED4A0B53EC102BFEF7F9FB494A03C279
:101BD0009FED490B53EC102B464890ED000B51EC58
:101BE000100BFEF735FD40D2424890ED000B51EC52
:101BF000100BFEF7E3FC424901EB800090ED000A78
:101C000010EE104A2046FEF7F8FC41EC190B9FED50
:101C10003D0B53EC102BFEF7D2FB41EC180BFEF7FB
:101C20002FFD3A49086008460068FEF7E6FC41ECE3
:101C30001B0B53EC1B2B2F4890ED000B51EC100BA2
:101C4000FEF72FFC41EC190B31480068FEF7D5FC7C
:101C500041EC1A0B53EC192BFEF70AFB41EC180B65
:101C6000FEF70EFD2A4908607DE0224890ED000B4A
:101C700051EC100B81F0004141EC1A0BFEF79EFC79
:101C80001F4901EB800090ED000A10EE104A20463B
:101C9000FEF7B3FC41EC190B9FED1E0B53EC102B20
:101CA000FEF78DFB41EC180B38E000009019002086
:101CB00008000020081900201000002060190020F2
:101CC000341900201800002078000020580000205F
:101CD00000040240B06C0020600000200000000002
:101CE00000409F401C000020F8B39D43DC114E0BC8
:101CF0005EF4353F7000002000000000000000008E
:101D0000AC000020E7919AD1EAFFEF3F7C00002071
:101D1000540000205402FFE772FBEF3FFEF7B0FCD7
:101D20001549086008460068FEF767FC41EC1B0B8C
:101D300053EC1B2B114890ED000B51EC100BFEF7F0
:101D4000B0FB41EC190B0E480068FEF756FC41EC65
:101D50001A0B53EC192BFEF78BFA41EC180BFEF71C
:101D60008FFC0749086007480068401C0549086067
:101D7000BDEC088B10BD000080000020700000202A
:101D8000540000203000002010B52DED108B8EB0D7
:101D90009FEDFE0AF0EE409A9FEDFC0AB0EE40AADD
:101DA000FB4890ED020ADFEDFB0A20EE200ADFED92
:101DB000FA0A80EE201AB0EE41FAF84890ED000AD7
:101DC000DFEDF40A20EE200ADFEDF30A80EE201AA0
:101DD000B0EE418AEE4890ED020AF048D0ED000ADC
:101DE00030EE200AEA4880ED020AED4890ED000A44
:101DF000EA48D0ED000A30EE200AE94880ED000AFA
:101E00009FEDE20AE54880ED000A00F0FFFBE5489F
:101E10000068002806DDE44890ED000AE34880ED04
:101E2000000A05E0E24890ED000AE04880ED000A73
:101E3000E0480068002806DDDF4890ED000ADF4832
:101E400080ED000A05E0DE4890ED000ADB4880EDF9
:101E5000000AD648D0ED000AD24890ED000AB8EE4C
:101E6000C00A20EE800AF0EE409AD448D0ED000A75
:101E7000D04890ED000AB8EEC00A20EE800AB0EE1D
:101E800040AAC34890ED030AC848D0ED000A20EEEE
:101E9000200ACC4880ED000ABD4890ED040AC748EE
:101EA000D0ED000A20EE200AC74880ED000AB848AD
:101EB000D0ED030ABB4890ED000AB8EEC00A30EE40
:101EC000800AB34880ED030AD0ED040AB94890EDCA
:101ED000000AB8EEC00A30EE800AAD4880ED040A70
:101EE000BA4890ED000A70EE0F8A18EE900AFEF7DD
:101EF00084FBCDE90A019DED0A0B02F0A5F98DEDF9
:101F00000C0B9DED0C0B51EC100BFEF7B9FB0BEE1F
:101F1000900A18EE900AFEF770FBCDE90A019DEDDC
:101F20000A0B02F001FA8DED0C0B9DED0C0B51EC40
:101F3000100BFEF7A5FB0CEE100AA44890ED000A6A
:101F400030EE0F0AA248D0ED000A30EE209A19EECA
:101F5000100AFEF752FBCDE90A019DED0A0B02F0D3
:101F6000E3F98DED0C0B9DED0C0B51EC100BFEF716
:101F700087FB0DEE100A19EE100AFEF73EFBCDE9C5
:101F80000A019DED0A0B02F05FF98DED0C0B9DED42
:101F90000C0B51EC100BFEF773FB0CEE900A18EED5
:101FA000100AFEF72AFBCDE90A019DED0A0B02F0AB
:101FB000AFF98DED0C0B9FED870B53EC102B9DEDC6
:101FC0000C0B51EC100BFEF72BFB16D229EEAB0AD3
:101FD0000AEE4D0A8148D0ED000A30EE200A80ED6D
:101FE000000A29EE8C0A0AEE2C0A7D48D0ED000A80
:101FF00030EE200A80ED000A2BE178EE88AA39EE57
:1020000008BA1AEE900AFEF7F8FACDE90A019DED3A
:102010000A0B02F089F98DED0C0B9DED0C0B51ECC8
:10202000100BFEF72DFB0EEE100A1AEE900AFEF7CB
:10203000E4FACDE90A019DED0A0B02F005F98DEDF8
:102040000C0B9DED0C0B51EC100BFEF719FB0DEE7C
:10205000900A1BEE100AFEF7D0FACDE90A019DEDB9
:102060000A0B02F061F98DED0C0B9DED0C0B51ECA0
:10207000100BFEF705FB0FEE900A1BEE100AFEF7A1
:10208000BCFACDE90A019DED0A0B02F0DDF88DEDF9
:102090000C0B9DED0C0B51EC100BFEF7F1FA0EEE54
:1020A000900AB0EE000AC8EE000A10EE904A2046F0
:1020B000FEF7A3FACDE900019DED000B02F034F923
:1020C0008DED020B9FED470B53EC102B9DED020B9A
:1020D00051EC100BFEF773F93EEE4C0A20EE290A84
:1020E0007EEEEC0A0AEE200ACDE9060110EE101A87
:1020F0000846FEF782FACDE904019DED060B53EC8C
:10210000102B9DED040B51EC100BFEF7CAF9CDE935
:102110000A0132480068FEF770FACDE908019DED2A
:102120000A0B53EC102B9DED080B51EC100BFEF736
:102130009FF8CDE90C019DED0C0B51EC100BFEF757
:102140009FFA26490860B0EE000AC8EE000A10EEB9
:10215000904A2046FEF751FACDE900019DED000BB3
:1021600002F0E2F88DED020B9FED1E0B53EC102BED
:102170009DED020B51EC100BFEF721F97DEEEB0A01
:10218000B1EE690A20EE800A30E000000000000095
:10219000506C0020DB0F4940000034435400002005
:1021A000500000205C1800208400002094000020D3
:1021B0008C0000206018002088000020980000207B
:1021C000900000203C18002040180020A0000020B3
:1021D000A80000202D431CEBE2364A3F48000020B7
:1021E0004C00002000000000000000407FEECD0AFF
:1021F0000AEE200ACDE9060110EE101A0846FEF795
:10220000FCF9CDE904019DED060B53EC102B9DED7F
:10221000040B51EC100BFEF744F9CDE90A010F480D
:102220000068FEF7EAF9CDE908019DED0A0B53ECD1
:10223000102B9DED080B51EC100BFEF719F8CDE9B2
:102240000C019DED0C0B51EC100BFEF719FA034934
:1022500008600EB0BDEC108B10BD00004C000020DB
:1022600070B52DED0A8B00F023FF00EE100AB8EEDA
:10227000400AB0EE40AA9FEDB00ACAEE000AAF488D
:10228000C0ED000A90ED000AAD48D0ED000A30EE36
:10229000600AAC4880ED000AA84890ED000AA84802
:1022A00080ED000AA84890ED000AA848D0ED000A89
:1022B00030EE200AA44880ED000A90ED010AA448FF
:1022C000D0ED000A30EE200A9F4880ED010A90ED23
:1022D000020ADFEDA00A60EE200A9FED9F1A80EE51
:1022E000810A9E48D0ED000A30EE200A10EE104A16
:1022F0002046FEF782F941EC1C0BB0EE4C0AF0EEE2
:102300006C0A01F0A1FFB0EE40BAF0EE60BA51ECF9
:102310001B0BFEF7B5F909EE900A2046FEF76DF9A2
:1023200041EC1C0BB0EE4C0AF0EE6C0A01F0FCFF25
:10233000B0EE40BAF0EE60BA51EC1B0BFEF7A0F91C
:1023400009EE100A864890ED000A864880ED000AE2
:10235000834890ED010A834880ED010A7A4890EDA8
:10236000000A8148D0ED000A00EEE90A7C4880EDC1
:10237000000A754890ED010A7B48D0ED000A00EE96
:10238000C90A774880ED010A6F4890ED020A744847
:1023900080ED020A90ED000A7248D0ED000A30EE9E
:1023A000600AB0EE408A6E4890ED010A6D48D0EDAB
:1023B000010A30EE600AF0EE408A624890ED000AB1
:1023C000C8EE000A10EE905A2846FEF716F941ECC6
:1023D0001C0BB0EE4C0AF0EE6C0A644800F006FAF2
:1023E000B0EE40BAF0EE60BA51EC1B0BFEF748F9C4
:1023F0005F490860534890ED000AC8EE800A10EE6D
:10240000905A2846FEF7F9F841EC1C0BB0EE4C0A46
:10241000F0EE6C0A574800F0E9F9B0EE40BAF0EE81
:1024200060BA51EC1B0BFEF72BF95149486052483A
:1024300090ED000A4348D0ED000A80EE201A11EE1C
:10244000105A2846FEF7D9F841EC1C0BB0EE4C0AA6
:10245000F0EE6C0A494800F0C9F9B0EE40BAF0EE6F
:1024600060BA51EC1B0BFEF70BF941498860084636
:1024700090ED000A20EE000AD0ED010A90ED011A5D
:1024800000EE810A10EE101A0846FEF7B6F841EC8D
:102490001C0BB0EE4C0AF0EE6C0A01F0A9FFB0EE96
:1024A00040BAF0EE60BA51EC1B0BFEF7E9F8304988
:1024B000C860334890ED000A3248D0ED000A30EE93
:1024C000600A2048D0ED000A80EE201A11EE105A62
:1024D0002846FEF792F841EC1C0BB0EE4C0AF0EEE9
:1024E0006C0A294800F082F9B0EE40BAF0EE60BA0A
:1024F00051EC1B0BFEF7C4F824490860204890ED0E
:10250000000A204880ED000A194890ED030A1C4893
:1025100080ED000A9FED1E0A0C4880ED000A9FED39
:102520001C0A0B4880ED000A9FED190A124880ED45
:10253000000ABDEC0A8B70BD00401C464418002008
:10254000481800204C180020506C00204800002043
:102550004C000020DB0F494000003443A400002061
:10256000646C0020786C00209C000020501A002031
:102570008C6C0020901A002050000020D01A0020FF
:102580005018002054180020101B0020581800205C
:10259000000000007047000070B52DED028B04466E
:1025A0000025012020606060B7EE000A84ED030A78
:1025B00000BF05E001F03CFB104941F825006D1C0F
:1025C000052DF7DB0D481C3802F020FCB0EE408AE8
:1025D000F0EE608A51EC180BFEF752F8E0619FEDC7
:1025E000080A84ED050A9FED070A84ED040A9FEDB1
:1025F000060A84ED0A0ABDEC028B70BDAC190020FE
:102600005839343CACC52737000000000B4800683F
:1026100047F6FF71081A0A49086047F6FF70074934
:10262000086008480068A0F5FE40FF3806490860C9
:1026300047F6FF700349086070470000240C004013
:102640005C180020240400406018002047F6FF704A
:1026500002490860024908607047000024040040F5
:10266000240C0040F0B50A4600210023002400BFDE
:102670003DE0012505FA01F3156805EA03049C42D3
:1026800034D105684F000326BE40B5430560157977
:102690004E00B5400668354305601579012D02D01E
:1026A0001579022D16D185684F000326BE40B5432B
:1026B000856055794E00B54086683543856045682C
:1026C00001268E40B5434560456896798E40B6B286
:1026D00035434560C5684F000326BE40B543C5601D
:1026E000D5794E00B540C6683543C560491C1029F0
:1026F000BFD3F0BDF0B5002300244D07ED0E02FA64
:1027000005F3CE1000F1200555F826504E07F70EC0
:102710000F26BE40B543CF1000F1200646F82750E3
:10272000CE1000F1200555F8265045EA0304CE10DE
:1027300000F1200545F82640F0BD0246002053690F
:102740000B400BB1012000E000207047418370472F
:102750000183704742694A4042617047012080F31B
:10276000138800BF00BF00BF00BF00BF00BFBFF3A2
:102770004F8F00BF00BF00BF0948006800F4E06051
:1027800008490843001D0649086000BF00BF00BF9C
:10279000BFF34F8F00BF00BF00BF00BF00BFFDE70A
:1027A0000CED00E00000FA050FE04FF480710748DF
:1027B000FFF7CCFFFA2002F0BAFB4FF48071034818
:1027C000FFF7C6FFFA2002F0B2FBEEE7000402407A
:1027D0009FED040A80ED020A034991ED070A80ED9E
:1027E000000A704758FF7F3F0819002010B52DEDF3
:1027F000088B0446B0EE408AF0EE608A94ED042B1C
:10280000B0EE420AF0EE620A94ED0A2BB0EE421AE4
:10281000F0EE621A53EC102B51EC110BFDF7CFFDCB
:10282000C4E9040194ED002BB0EE420AF0EE620A16
:1028300094ED062BB0EE421AF0EE621A53EC102B18
:1028400051EC110BFDF714FDC4E9060194ED022BC8
:10285000B0EE420AF0EE620A94ED062BB0EE421A98
:10286000F0EE621A53EC102B51EC110BFDF700FD4A
:1028700041EC190B94ED061BB0EE410AF0EE610A33
:1028800053EC192B51EC100BFDF70BFEC4E90801BA
:1028900094ED042BB0EE420AF0EE620A94ED0C2B9C
:1028A000B0EE421AF0EE621A53EC102B51EC110B01
:1028B000FDF785FD41EC1B0B53EC182BFDF77CFD60
:1028C00041EC1A0B94ED081BB0EE410AF0EE610AE0
:1028D00053EC102BFDF773FD41EC190B94ED041B29
:1028E000B0EE410AF0EE610A53EC102BFDF7C0FC8C
:1028F000C4E9040194ED081BB0EE410AF0EE610A50
:1029000053EC102B9FED0E1B51EC110BFDF751FDFD
:1029100041EC190B94ED061BB0EE410AF0EE610A92
:1029200053EC102BFDF74BFDC4E9060194ED040BAD
:1029300084ED0E0B94ED0E0BBDEC088B10BD00006A
:10294000000000000000F03F27E014480088B0F5C8
:10295000FA7F1FDB0020114908801148007850B928
:102960004FF400710F48FFF7F5FE4FF480710D48EA
:10297000FFF7EEFE0EE04FF480710A48FFF7EAFE23
:102980004FF400710748FFF7E3FE0748FEF7A6FC87
:1029900002F098F9012000F04FFBD6E73800002044
:1029A0003A000020000402400064004000BFFEE73F
:1029B0007047000070B5002100230F22C4781CB3BB
:1029C000174C246804F4E064C4F5E064C4F3072100
:1029D000C1F10404E3B20A4144789C40E1B2847836
:1029E000144021430C07210E0E4C057861550478E4
:1029F00004F01F050124AC4005786D11AD0005F110
:102A0000E025C5F8004109E0047804F01F05012421
:102A1000AC40054D0678761145F8264070BD0000A3
:102A20000CED00E000E400E080E100E00249014339
:102A3000024A1160704700000000FA050CED00E04A
:102A400010B500F015F800F03FFC00F067FC00F056
:102A500087FC00F00FFC00F0E1FB00F01BFD00F034
:102A600045FD00F0BDFC00F0E3FC00F002F810BDF5
:102A70007047704710B500241A480078012830D1FB
:102A8000FDF79EFB04461848007820B116480078F0
:102A9000401E1549087014480078F8B913480078AA
:102AA000E0B900F085FD12481249097850F821007C
:102AB000114908600F4800781049097888420DD004
:102AC0000D480068806B401C0B49096888630C48FE
:102AD0000068401C0A490860FDF78EFB2046FDF7A0
:102AE00073FB10BDD6180020C9180020CA1800209A
:102AF000ACB20020CC180020E4180020CB18002035
:102B0000B018002010B50B48007890B900F050FDC7
:102B1000094800780949087009480749097850F8B8
:102B20002100084908600846006807490860FDF769
:102B30004EFB10BDD6180020CC180020CB1800206A
:102B4000ACB20020E4180020DC1800207047000020
:102B50002DE9FE4F06460F4690461C464FF00009F1
:102B6000FDF72EFB81461F48007828B14846FDF747
:102B70002BFB3C20BDE8FE8F1B4850F8240060BBB7
:102B80000120194941F824004846FDF71DFB0023A8
:102B900042463946304600F007F982460020009050
:102BA00001900346024651460290204600F016FD71
:102BB000054635B90D48007801280CD100F0BEFC5F
:102BC00009E0FDF7FDFA81460020074941F824009D
:102BD0004846FDF7F9FA2846CCE74846FDF7F4FAEF
:102BE0002820C7E7C9180020ACB20020D618002062
:102BF0002DE9F04F85B081468A4693461C46DDE9B3
:102C00000F78129D00200390FDF7DAFA0390234815
:102C1000007830B10398FDF7D7FA3C2005B0BDE845
:102C2000F08F1F4850F8240088BB01201C4941F850
:102C300024000398FDF7C8FA2A464146384600F0BA
:102C4000F1FD2B465A465146484600F0ADF8049037
:102C50001198CDE9008002953A4620460E9B0499D2
:102C600000F0BCFC064636B90E48007801280CD1AD
:102C700000F064FC09E0FDF7A3FA03900020084986
:102C800041F824000398FDF79FFA3046C6E7FFE7B6
:102C90000398FDF799FA2820C0E70000C918002022
:102CA000ACB20020D6180020704770472DE9F041E3
:102CB00006460F4614464FF000081548007818B134
:102CC00012202070BDE8F081FDF77AFA8046FF2ED1
:102CD00003D11048006890F832600F4850F8265031
:102CE0002DB94046FDF770FA43202070EAE7012D28
:102CF00005D14046FDF768FA43202070E2E7EF6413
:102D00004046FDF761FA0020207000BFDAE70000BE
:102D1000C9180020DC180020ACB200207047000069
:102D20002DE9F04707460D464FF0000A00202860C5
:102D30006860FDF745FA8246FF2F03D11848006806
:102D400090F83270174850F827402CB95046FDF7DC
:102D50003BFA4320BDE8F087012C04D15046FDF733
:102D600033FA4320F6E7207C00F0010020B95046FA
:102D7000FDF72AFA4520EDE70026D4F80C90D4F8A8
:102D800008805046FDF720FA00E0761C58F8041B36
:102D90000029FAD02E60A9EB060068600020D9E770
:102DA000DC180020ACB2002070B5044610460026A6
:102DB000051F28462E60051F28462E604FF0153649
:102DC000051F28462E604FF01436051F28462E603A
:102DD0004FF01336051F28462E604FF01236051FA0
:102DE00028462E604FF01136051F28462E604FF002
:102DF0001036051F28462E604FF00936051F28465D
:102E00002E604FF00836051F28462E604FF007361B
:102E1000051F28462E604FF00636051F28462E60F7
:102E20004FF00536051F28462E604FF00436051F6B
:102E300028462E604FF00336051F28462E604FF0BF
:102E40000236051F28462E607610051F28462E6084
:102E50000026051F28462E604FF080750560051F6F
:102E600028462C60B61E051F28462E604FF01236ED
:102E7000051F28462E604FF00336051F28462E609A
:102E80004FF00236051F28462E607610051F284693
:102E90002E60051F284629604FF03136051F284651
:102EA0002E604FF03036051F28462E604FF0293631
:102EB000051F28462E604FF02836051F28462E6035
:102EC0004FF02736051F28462E604FF02636051F87
:102ED00028462E604FF02536051F28462E604FF0FD
:102EE0002436051F28462E604FF02336051F28463E
:102EF0002E604FF02236051F28462E604FF02136F7
:102F0000051F28462E604FF02036051F28462E60EC
:102F10004FF01936051F28462E604FF01836051F52
:102F200028462E604FF01736051F28462E604FF0BA
:102F30001636051F28462E604FF01136051F28460D
:102F40002E604FF01036051F28462E604FF00936D0
:102F5000051F28462E604FF00836051F28462E60B4
:102F60004FF00736051F28462E604FF00636051F26
:102F700028462E604FF00536051F28462E604FF07C
:102F80000436051F28462E6070BD00002DE9F04173
:102F900005464FF00008FDF713F98046FF2D05D1D7
:102FA0002048006890F83250012608E01D4800686B
:102FB00090F83200A84201D1012600E000261A480C
:102FC00050F825402CB94046FDF7FEF84820BDE8F2
:102FD000F081012C04D14046FDF7F6F84320F6E7D6
:102FE00094F834701148C05D94F8351088430F4947
:102FF000C8550846C05D30B994F836100C480078C2
:1030000088430B49087094F8300040F0080084F8B9
:1030100030004046FDF7D8F8012E01D100F08EFABD
:103020000020D4E7DC180020ACB20020CE1800202D
:10303000CD1800207047000070B5054600261748DF
:10304000007800B170BD1648007800B1FAE71DB3F2
:10305000FDF7B6F806461348006890F83440124869
:10306000005D1049096891F8351088430E490855EC
:103070000846005D40B90B48006890F836100B48D0
:10308000007888430949087006480068C5623046E0
:10309000FDF79AF800F052FA00BFD3E7C9180020F4
:1030A000CA180020DC180020CE180020CD180020FF
:1030B00070B50025FDF784F80546034804682846E6
:1030C000FDF782F8204670BDF818002070B5002684
:1030D00000F072F8FDF774F8064631480068401CAD
:1030E0002F4908603046FDF76FF82E480078012818
:1030F00053D12D48007820B1012804D0022809D1ED
:1031000003E001250BE0002509E001250120264907
:10311000087004E0012500202349087000BF00BFAB
:1031200005B970BD2148046833E0FDF749F806464B
:10313000E06A50B3E06A401EE062E06A28BB94F89F
:10314000300000F0370040B114F8300F00F0C80034
:10315000207001206070303C02E0002084F83100D3
:1031600094F8300000F0080078B93434A0781049A1
:10317000097808430E49087020780E49085C617888
:10318000084314F834190B4A505464693046FDF76B
:103190001BF894F832003F28C7D100BFC1E70000F8
:1031A000F8180020D6180020EC180020E81800209D
:1031B000CD180020CE180020704700007FB568466B
:1031C00000F096FC42F210720198B0FBF2F1481E3A
:1031D000B0F1807F00D31BE0481E4FF0E022506129
:1031E00050170F22002807DA13071D0E094B00F0B5
:1031F0000F04241F1D5503E013071C0E064B1C541F
:1032000000BF00204FF0E02290610720106100BF56
:103210007FBD000018ED00E000E400E02DE9F04182
:103220005021114800F02CF900250DE0681C86B2F1
:103230000D4800EB051400EB0617002020706760B6
:103240000AA0E060681C85B2042DEFD3064800EBAD
:10325000051400202070606004A0E060024804496A
:103260000860BDE8F08100005CAC00203F00000079
:10327000B818002070B54FF49671114800F000F9AD
:1032800000230FE0581C85B203EB83000C4901EBCF
:10329000800405EB850001EB80060020207066604D
:1032A000581C83B20E2BEDD303EB8300044901EBD2
:1032B000800400202070606008460249086070BDEC
:1032C00030AB0020B418002000200A4908600A49E9
:1032D00008700A4908700A4908700A4908700A49C2
:1032E00008600A4908600A4908600A4908600A49F2
:1032F00008707047F8180020C9180020CA1800206C
:10330000D7180020D6180020B0180020D8180020A8
:10331000C4180020C0180020C818002000210A4A44
:103320001170002004E00021084A1154411CC8B269
:103330000828F8D30021064A1170064A1170064A7F
:103340001160064A11607047CD180020CE18002089
:10335000CB180020CC180020E4180020DC18002036
:1033600070B541F2AC41194800F08AF84FF4807111
:10337000174800F085F8002413E0601CC5B2C4EBC8
:10338000C40000EB4000114901EB8003C5EBC50010
:1033900000EB400001EB80065E610EA0D864601C6B
:1033A000C4B23E2CE9D3C4EBC40000EB4000074993
:1033B00001EB80030020586106A0D8640020064974
:1033C000086002480549086070BD0000ACB30020E9
:1033D000ACB200203F000000E8180020E0180020F8
:1033E00000B587B00320002180220A4BCDE90132CD
:1033F000CDE903104FF6FF703F23074A00900748BE
:10340000FFF7F6FB06AA06A13F20FFF74FFC07B027
:1034100000BD0000ACB00020A8B200201D3700089D
:1034200075432F4F532D49492049646C65000000B6
:1034300000B587B0032000214FF48072094BCDE91D
:103440000132CDE903104FF6FE703E23064A00908C
:103450000648FFF7CDFB06AA05A13E20FFF726FC94
:1034600007B000BDACAC0020A8B000204537000874
:1034700075432F4F532D4949205374617400000048
:1034800004E0002200F8012B4A1E91B20029F8D175
:103490007047000070B578211148FFF7F1FF002454
:1034A0000EE004EB44000E4901EBC005601C00EB8C
:1034B000400001EBC00068600AA06861601C84B233
:1034C000042CEED304EB4400054901EBC0050020B9
:1034D000686004A0686108460349086070BD000088
:1034E00058C800203F000000F01800202DE9F041EE
:1034F00060211048FFF7C4FF00240DE0601C86B275
:1035000004EB44000B4901EBC00506EB460001EB60
:10351000C0072F60601C84B2032CEFD304EB44007F
:10352000044901EBC00500202860084602490860F4
:10353000BDE8F081D0C80020F418002010B50024A8
:10354000FCF73EFE044613480078F8B912480078AC
:10355000E0B900F02DF811481149097850F8210020
:10356000104908600E4800780F49097888420DD04C
:103570000C480068806B401C0A49096888630B4846
:103580000068401C09490860FCF731FE2046FCF742
:103590001BFE10BDC9180020CA180020ACB20020C4
:1035A000CC180020E4180020CB180020B018002010
:1035B0000649074A1278885C0649095C034A515C4F
:1035C00001EBC001044A1170704700002E5700083B
:1035D000CD180020CE180020CC1800202DE9F84F7F
:1035E00005460F4690469946DDE90AAB002000905B
:1035F000FCF7E6FD009042480468002C7AD01834AD
:1036000054F8040C3E4908600098FCF7DDFD44F8CE
:10361000187CA576002020766076606144F814BCA2
:1036200044F80CAC44F8108C0C9824F8080C24F8DE
:10363000069C0020E077E810207705F00700E07690
:10364000217F01208840A077E17E012088406077BB
:1036500000206060E060A0602062A0626062E062C2
:10366000206328A06063183C002606E0002104F1D6
:10367000500040F82610701CC6B2002EF6D020462E
:10368000FFF764FAFCF79CFD00901F4840F82540C6
:103690000098FCF799FD2046FFF706FBFCF790FD2C
:1036A00000901A48006860610020A0611748006817
:1036B00010B1164800688461144804603434A0785E
:1036C0001349097808431249087020781149085CA9
:1036D0006178084314F834190E4A50540E480078A3
:1036E000401C0D4908700098FCF76EFD0020BDE8F5
:1036F000F88FFFE70098FCF767FD4220F7E700002E
:10370000E01800203F000000ACB20020E8180020C4
:10371000CD180020CE180020D7180020002400BFAC
:1037200000BFFCF74DFD044605480068401C0449F5
:1037300008602046FCF748FDFFF7B7FAF1E7000004
:10374000D818002000BF00BF03E04FF4FA60FFF775
:1037500073FC204800780028F7D01F4800686421D7
:10376000B0FBF1F01C4908600846006828B9002049
:103770001A490870FF20FFF709FCFCF721FD0446F9
:103780001548006864214843154908602046FCF745
:103790001BFD00BFFCF714FD0446114800681149E9
:1037A000086000200E4908602046FCF70DFD0D481A
:1037B000006809490968B0FBF1F0C0F164000749ED
:1037C0000870FFF7ABFA00F00FF84FF47A70FFF7CC
:1037D00033FCDFE7C8180020C0180020BC18002008
:1037E000D8180020C41800207CB5002514E06946D4
:1037F0002846FFF795FA064666B9094850F825406D
:1038000044B1012C06D0D4E9020100EB81006064D0
:103810000198A064681CC5B23F2DE8D97CBD0000AA
:10382000ACB2002002F0010343B102F002032BB15D
:1038300002E0491E002308C00029FAD170470000A9
:103840002CE01748006830B315480068401E144942
:1038500008601448007801280ED1FEF795FAFEF7AB
:10386000FFFC11480088401C0F4908800F48008861
:10387000401C0E4908800EE00D480088012804D144
:1038800001F020FA00200A49088047F6FF70094934
:103890000860094908600120FFF7CEFBD1E700006E
:1038A0003000002078000020360000203800002082
:1038B0003400002024040040240C004010B586B0E1
:1038C000044694ED000AF7EE000A20EE200A3D4877
:1038D00080ED000A94ED010AF7EE000A20EE200ABE
:1038E000394880ED000A3948029008208DF80E0012
:1038F00000208DF80D0004208DF80C0041208DF87B
:103900000F0050218DF810102E4890ED000AF2EEB5
:10391000040A20EE200ABDEEC00A10EE100AC1B261
:103920008DF81110274890ED000AF2EE040A20EEFF
:10393000200ABDEEC00A10EE100A010A8DF812101E
:10394000214890ED000AF2EE040A20EE200ABDEEB6
:10395000C00A10EE100AC1B28DF813101A4890ED8B
:10396000000AF2EE040A20EE200ABDEEC00A10EEB4
:10397000100A010A8DF8141094ED020AF2EE040AFE
:1039800020EE200ABDEEC00A10EE100AC1B28DF87A
:10399000151094ED020AF2EE040A20EE200ABDEEA4
:1039A000C00A10EE100A010A8DF8161001A9084885
:1039B000FDF7DFFE042802D1012006B010BD002073
:1039C000FBE700007C1800208018002001010200A5
:1039D000006400401CB50121084600F059F801219F
:1039E0000A2000F065F8022206212648FEF782FE32
:1039F000022207212348FEF77DFEC020009002200E
:103A00008DF8040000208DF8060003208DF80500D5
:103A100000208DF8070069461A48FEF723FE0223AE
:103A20001A460321184800F053FB0121164800F004
:103A300043FB022200211348FEF75CFE0222012113
:103A40001048FEF757FE0320009002208DF8040076
:103A500000208DF8060003208DF8050000208DF869
:103A6000070069460748FEF7FDFD02231A460321B9
:103A7000064800F02DFB0121044800F01DFBFEF775
:103A8000E5FD1CBD0000024000040040000C0040A9
:103A900029B1064A12680243044B1A6004E0034A43
:103AA00012688243014B1A607047000030380240B0
:103AB00029B1064A12680243044B1A6004E0034A23
:103AC00012688243014B1A60704700004038024080
:103AD00029B1064A12680243044B1A6004E0034A03
:103AE00012688243014B1A60704700002038024080
:103AF000F0B5002100220024022500260223324FC7
:103B00003F6807F00C0121B1042905D0082937D1FD
:103B100005E02E4F076036E02D4F076033E02A4F57
:103B20003F1F3F68C7F38056274F3F1F3F6807F08E
:103B30003F036EB1264FB7FBF3F7DFF88CC0ACF153
:103B4000040CDCF800C0CCF3881C07FB0CF40CE080
:103B50001E4FB7FBF3F7DFF870C0ACF1040CDCF8D4
:103B600000C0CCF3881C07FB0CF4174F3F1F3F68C5
:103B7000C7F301477F1C7D00B4FBF5F7076002E047
:103B8000124F076000BF00BF0F4F3F6807F0F00102
:103B90000909104F7A5C0768D74047600A4F3F68B1
:103BA00007F4E051890A0B4F7A5C4768D740876079
:103BB000054F3F6807F46041490B064F7A5C476840
:103BC000D740C760F0BD0000083802400024F40070
:103BD00040787D01A018002000B585B01248019002
:103BE00004208DF80A0000208DF8090004208DF8CB
:103BF000080041208DF80B0052218DF80C108DF833
:103C00000D1053218DF80E1069460848FDF7B1FDDF
:103C100069460648FDF7ADFD042802D1012005B034
:103C200000BD0020FBE7000001010200006400402D
:103C30002DE9F041002400250026002740211B48E3
:103C4000FEF784FD00BF4FF480511948FEF775FD63
:103C50000128F8D0012000F06BF8072001F077F977
:103C600000BF4FF480511248FEF767FD0128F8D0DD
:103C7000002000F041F8002000F03EF8054600204A
:103C800000F03AF80646002000F036F8074628040F
:103C900040EA062040EA070440210448FEF758FDA8
:103CA00084F400042046BDE8F081000000080240D2
:103CB0000004024000B585B00D48019004208DF845
:103CC0000A0000208DF8090004208DF8080040202B
:103CD0008DF80B0052218DF80C108DF80D1053212A
:103CE0008DF80E1069460348FDF743FD05B000BD91
:103CF000010102000064004010B5044600BF02212B
:103D00000A4800F039F80028F9D02146074800F0A9
:103D10003FF800BF0121054800F02EF80028F9D037
:103D2000024800F032F8C0B210BD00000038004078
:103D300010B5044600BF0221084800F01DF8002815
:103D4000F9D02146054800F023F800BF02210348BE
:103D500000F012F80028F9D010BD00000038004033
:103D600021B1028842F04002028004E002884FF64E
:103D7000BF731A40028070470246002013890B402F
:103D80000BB1012000E00020704701468889704790
:103D90008181704710B50022028802F441520B88DD
:103DA0004C8823438C882343CC8823430C892343AA
:103DB0004C8923438C892343CC8923431A430280B3
:103DC000838B4FF2FF74234083830B8A038210BDE1
:103DD000704700000CB50020019000903448006846
:103DE00040F480303249086000BF3148006800F478
:103DF000003000900198401C0190009818B901987B
:103E0000B0F5A06FF1D12A48006800F4003010B17D
:103E10000120009001E0002000900098012846D188
:103E200023484030006840F080502149403108600C
:103E30002048006840F480401E4908601C48083053
:103E400000681B49083108600846006840F40040DB
:103E500008600846006840F4A05008601648091F32
:103E60000860081F006840F08070091F086000BFEC
:103E70000F48006800F000700028F9D040F205609B
:103E80000E4908600A480830006820F0030008491D
:103E9000083108600846006840F00200086000BF72
:103EA00003480830006800F00C000828F8D10CBD69
:103EB000003802400070004019544007003C0240A6
:103EC00010B586B004463548029008208DF80E00E3
:103ED00000208DF80D0004208DF80C0041208DF895
:103EE0000F0053218DF8101094ED000AF2EE040A31
:103EF00020EE200ABDEEC00A10EE100AC1B28DF805
:103F0000111094ED000AF2EE040A20EE200ABDEE34
:103F1000C00A10EE100A010A8DF8121094ED010A81
:103F2000F2EE040A20EE200ABDEEC00A10EE100ADE
:103F3000C1B28DF8131094ED010AF2EE040A20EEDE
:103F4000200ABDEEC00A10EE100A010A8DF8141006
:103F500094ED020AF2EE040A20EE200ABDEEC00A39
:103F600010EE100AC1B28DF8151094ED020AF2EEAF
:103F7000040A20EE200ABDEEC00A10EE100A010A63
:103F80008DF8161001A90648FDF7F3FB042802D1AD
:103F9000012006B010BD0020FBE700000101020077
:103FA0000064004010B5FCF70BF90446084800789F
:103FB000401C0749087007480068401C0549086014
:103FC0002046FCF701F9FFF781F8FEF753FD10BD1D
:103FD000C9180020FC18002010B51548006840F4EE
:103FE0007000134908601348006840F0010011494F
:103FF000086000200F49083108600E4800680E492B
:1040000008400C4908600D48091D0860081F006839
:1040100020F48020091F0860002006490C31086048
:10402000FFF7D8FE4FF0006001498039086010BDED
:1040300088ED00E000380240FFFFF6FE103000245B
:1040400010B50121880700F064F838B30121880712
:1040500000F02FF80121880700F028F810480068C8
:10406000401C0F4908600F48007805280BDAFFF75D
:10407000DFFD0D490B4A127841F82200094800780B
:10408000401C0849087007480078052806D1002020
:1040900004490870022004491C39087610BD00004C
:1040A0009C18002098180020AC190020CA430282F6
:1040B0007047CA430282704721B1028842F0010270
:1040C000028004E002884FF6FE731A4002807047B7
:1040D000F0B50C4615461E4600210022002301893A
:1040E000028B038C4FF6F877394021434FF6FC479B
:1040F0003A4040F201173A434FF6DD773B404FF626
:10410000FF7707EA06172F433B43018102830384AD
:10411000F0BD30B50246002000230024158A05EAD0
:104120000103958905EA010413B10CB1012000E0F7
:10413000002030BD1AB183890B43838102E083895B
:104140008B4383817047000000220288184B9842FD
:104150000ED0184B98420BD0B0F1804F08D0164BC0
:10416000984205D0154B984202D0154B984204D185
:104170004FF68F731A404B881A43124B984207D060
:10418000114B984204D04FF6FF431A400B891A4353
:1041900002804B68C3620B880385054B984202D0AE
:1041A000044B984201D18B7A0386012383827047A6
:1041B00000000140000401400004004000080040ED
:1041C000000C0040001000400014004016E00C48B5
:1041D000008801280FDB0A480088401E0849088033
:1041E0000848FFF76BFB084908700920FEF724FF19
:1041F0000648FFF765FE0120FEF71EFFE7E7000017
:1042000036000020646C00203A0000208C6C0020F6
:1042100000BFFEE703B401984100009850EAC120B6
:1042200018BF04204A0D18BF40F0010040F2FF7291
:10423000B2EB515F08BF40F00200012808BF052023
:1042400002B070470000000010B52F499FED2C1BF5
:104250002DED020B84B0059820F000408842D8BFB5
:104260009DED040B2DDD2949884209D1049840B900
:104270004FF0010000F020FD00F0EEFC06B010BD94
:1042800005DB9DED040B00F0DBFC06B010BD6846BD
:104290009DED040B00F0ECF810F0030004BF9DED61
:1042A000021B9DED000B0CD001280ED09DED021BD2
:1042B0009DED000B022817D0012000F029FC06B06C
:1042C00010BD00F0F1FA06B010BD9DED021B9DED92
:1042D000000B012000F01CFC51EC100B81F00041A0
:1042E00006B041EC100B10BD00F0DEFA51EC100BE3
:1042F00081F0004106B041EC100B10BD0000000041
:104300000000000000000000FB21E93F0000F07FFA
:104310002DED020B019820F0004001909DED000B67
:1043200002B070470000000010B52F499FED2C1B14
:104330002DED020B84B0059820F000408842DCBFD0
:1043400000209DED040B32DD2849884209D10498F4
:1043500040B94FF0010000F0AFFC00F07DFC06B06A
:1043600010BD05DB9DED040B00F06AFC06B010BD2E
:1043700068469DED040B00F07BF810F0030011D0AF
:10438000012818D09DED021B9DED000B02281AD0CC
:1043900000F08AFA51EC100B81F0004106B041ECBC
:1043A000100B10BD9DED021B9DED000B012000F0D8
:1043B000AFFB06B010BD9DED021B9DED000B00F0A4
:1043C00073FA06B010BD012000F0A2FB51EC100BF7
:1043D00081F0004106B041EC100B10BD0000000060
:1043E0000000000000000000FB21E93F0000F07F1A
:1043F00000B52DED048BB0EE409AF0EE609A83B0DC
:1044000051EC190BFCF71DFA41EC180B18EE100AD1
:1044100018EE901A8DED008B002818BF012008437C
:1044200020F00040C0F17F6000F1E040C00F14D0E8
:1044300019EE101A19EE900A8DED009B002918BF95
:104440000121084320F00040C0F17F6000F1E0400E
:10445000C00F04BF012000F02FFCB0EE480A03B0EB
:10446000F0EE680ABDEC048B00BD00000000000007
:104470002DE9F14F04462DED020B2DED088B8AB08E
:104480009FEDE70B80ED020B139EE74826F00045F9
:1044900085420ADC9DED120B002084ED000B0AB072
:1044A000BDEC088B03B0BDE8F08FE0489FEDE0ABBA
:1044B0009FEDE1BBA84247DDE14F9FEDE39B9FED00
:1044C000E48B9DED120B53EC1A2B51EC100B002ECC
:1044D0001CDDFBF76EFF41EC100BBD4208D053EC26
:1044E0001B2B51EC100BFBF764FFC4E900010BE040
:1044F00053EC192B51EC100BFBF75BFF53EC182B13
:10450000FBF757FFC4E900010120C8E7FBF7B0FE45
:1045100041EC100BBD4208D053EC1B2B51EC100B9F
:10452000FBF7A6FEC4E900010BE053EC192B51EC9C
:10453000100BFBF79DFE53EC182BFBF799FEC4E91B
:1045400000014FF0FF30AAE7C348A84279DB9DED98
:10455000120B51EC100B00F004FD41EC180B9FED19
:10456000C00B53EC102BFBF72AFF9FEDBF1B53EC46
:10457000112BFBF77DFEFCF721F80746FCF700F84E
:1045800041EC190B53EC1A2BFBF719FF53EC182BCA
:10459000FBF712FF41EC180B53EC1B2B51EC190BE2
:1045A000FBF70DFFDFF8C8A241EC100B4FEA1558DE
:1045B0000125FA4453EC102B51EC180BFBF7F9FED4
:1045C000032DC4E900013DD0C1F30A5005EB4511AC
:1045D000A8EB00001139814234DA0AEB051BB0EE7A
:1045E00048AA9BED000BF0EE68AA53EC102B51EC9F
:1045F000190BFBF7E4FE41EC1B0B51EC1A0B53ECCF
:104600001B2BFBF7D6FE41EC180B51EC1A0B53ECAD
:10461000182BFBF7CEFE53EC1B2BFBF7CAFE9BEDD2
:10462000020B41EC1A0B53EC102B51EC190BFBF75E
:10463000C6FE53EC1A2BFBF7BCFE41EC100B6D1CB5
:10464000B8E70EE0002EA8BF3846BFF628AF94EDBD
:10465000000B51EC100B81F00041C4E900017842DD
:104660001DE7C6F3130040F4801EC6F30A50A0F203
:10467000F530471100F01F05C5F12000DDF848B006
:1046800008900020069007900520EC467949002DFF
:1046900007EB0002794408BF51F8221009D051F805
:1046A000223001EB8201AB404A68089922FA01F1FD
:1046B0001943A1FB0E26A1FB0B131A449A4234BFE7
:1046C0000123002303EB06080CEB8003D3E901A6CA
:1046D0000E448E4234BF0121002192448A4411B11C
:1046E000924502D903E0924501D2012100E0002168
:1046F000C3E901A641444CF82010011EA0F10100BD
:10470000C4DC029800F10050850F0298DDE90367D0
:104710008000DDF81480FBF733FF41EC1A0B3046C4
:10472000FBF73FFF9FED541B53EC112BFBF747FEAC
:1047300041EC1B0B3846FBF734FF9FED511B53EC4C
:10474000112BFBF73CFE41EC180B4046FBF729FF11
:104750009FED4D1B53EC112BFBF731FE41EC190B78
:1047600051EC180B53EC192BFBF782FD53EC1B2B70
:10477000FBF77EFD53EC1A2BFBF77AFDCDE9080120
:10478000002008909DED080B53EC1A2B51EC100BF8
:10479000FBF70FFE53EC1B2BFBF70BFE53EC182B18
:1047A000FBF707FE53EC192BFBF706FE9FED381BBA
:1047B00053EC112BFBF703FE9FED370B41EC180B6D
:1047C00053EC102B9DED080B51EC100BFBF7F7FD94
:1047D00053EC182BFBF74CFD9FED310B41EC180B04
:1047E00053EC102B9DED080B51EC100BFBF7E7FD84
:1047F00053EC182BFBF73CFD41EC100B139810F019
:10480000004F06D06D4251EC100B81F0004141EC9D
:10481000100B284684ED000B41E60000000000006C
:104820000000000000000000FB21E93F7CD90240AD
:1048300000004054FB21F93F3163621A61B4D03D5E
:10484000FB21F93F000000000000601A61B4D03D78
:104850007370032E8A19A33BFB213941000000002D
:1048600083C8C96D305FE43F000000000000E03FF6
:10487000AA120000F8110000000000000000103E25
:10488000000000000000103C000000000000103A92
:10489000182D4454FB21F93D3326A611460B113C3B
:1048A00000000054FB21F93D10B52DED040B2DED5A
:1048B000088B82B0B0EE419AF0EE619A0B9820F02E
:1048C00000449FED4BABB4F1795F11DA9DED0A0B1B
:1048D00051EC100BFBF772FE002801BFB0EE4A0A44
:1048E000F0EE6A0A02B0BDEC088B04BF04B010BD44
:1048F0009DED0A0B53EC102B51EC100BFBF75FFDF9
:1049000041EC180B3C480621B0EE480AF0EE680A6C
:10491000784400F081F853EC182B51EC100BFBF7A6
:104920004EFD9DED0A0B41EC1B0B53EC192B51EC8A
:10493000100BFBF744FD41EC190B53EC1B2B51EC16
:10494000180BFBF73CFD53EC192BFBF732FD9FEDE9
:104950002C0B41EC190B53EC102B51EC180BFBF703
:104960002EFD41EC100B2848844210DA53EC192B31
:1049700051EC100BFBF71DFD53EC1A2BFBF71CFD44
:1049800041EC100B02B0BDEC088B04B010BD1F4809
:10499000A042BCBF9FED1E1B8DED001B06DBA4F5E6
:1049A00000100190002000909DED001B51EC100BB9
:1049B00053EC112BFBF7FDFC9DED000B41EC180BAC
:1049C00053EC102B51EC1A0BFBF7F3FC41EC1A0BD8
:1049D00053EC192B51EC180BFBF7EBFC53EC1A2B97
:1049E000FBF7EAFC41EC100BCCE7000000000000F4
:1049F000000000000000F03F1C0F0000000000005D
:104A0000000000000000E03F3333D33F0000E93FE7
:104A1000000000000000D23F70B504462DED028B6F
:104A20004D1E00EBC500B0EE408AF0EE608A90EDBE
:104A3000000B35F0060017D053EC182B51EC100B7F
:104A4000FBF7BDFC41EC100B6D1E04EBC50090EDB7
:104A5000001B51EC100B53EC112BFBF709FC41EC44
:104A6000100B35F00600E7D1022D36D0042D1CD0F6
:104A7000062D1CBFBDEC028B70BD53EC182B51EC06
:104A8000100BFBF79CFC94ED0A1B53EC112BFBF76E
:104A9000EFFB53EC182BFBF792FC94ED081B53EC47
:104AA000112BFBF7E5FB41EC100B53EC182B51ECF1
:104AB000100BFBF784FC94ED061B53EC112BFBF75A
:104AC000D7FB53EC182BFBF77AFC94ED040B53EC5B
:104AD000102BFBF7CDFB41EC100B53EC182B51ECDA
:104AE000100BFBF76CFC94ED021B53EC112BFBF746
:104AF000BFFB53EC182BFBF762FC94ED001B53EC4F
:104B0000112BFBF7B5FBBDEC028B41EC100B70BD1C
:104B100031B504462DED040B2DED0A8BB0EE41BAF4
:104B2000F0EE61BA0B989DED0A0B20F00040B0F159
:104B3000795F0DDA51EC100BFFF76CFB042808BF0E
:104B400000F09AF89DED0A0BBDEC0A8B05B030BD64
:104B500053EC102B51EC100BFBF731FC41EC180B14
:104B60009DED0A0B53EC182B51EC100BFBF727FCB7
:104B700041EC190B2C48B0EE480AF0EE680A05210A
:104B80007844FFF749FF9FED2ACBB0EE40AAF0EE44
:104B900060AA9CB353EC1C2B51EC190BFBF70FFCD8
:104BA00041EC1C0B53EC1A2B51EC190BFBF707FCD7
:104BB0009FED210B41EC190B53EC102B51EC1B0B0F
:104BC000FBF7FDFB53EC192BFBF7F3FB53EC182B16
:104BD000FBF7F5FB53EC1B2BFBF7EBFB53EC1C2B10
:104BE000FBF7E7FB9DED0A1B53EC112BFBF7E4FBF6
:104BF000BDEC0A8B05B041EC100B30BDFFE753EC68
:104C00001A2B51EC180BFBF7DAFB53EC1C2BFBF7C0
:104C10002FFB53EC192BFBF7D2FB9DED0A1B53EC3A
:104C2000112BFBF725FBE3E7A40D000000000000BB
:104C3000495555555555C5BF000000000000E03FDF
:104C400010B553EC102B51EC100BFBF711FB41ECA2
:104C5000100B10BD000000009FED050B10B553ECCC
:104C6000102B51EC100BFBF71CFC41EC100B10BD92
:104C700000000000000000009FED050B10B553EC94
:104C8000102B51EC100BFBF79AFB41EC100B10BDF5
:104C9000000000000000001002E008C8121F08C158
:104CA000002AFAD170477047002001E001C1121FAD
:104CB000002AFBD1704700000149086070470000DE
:104CC0000019002000B58BB001210846FEF7E0FE78
:104CD00001214806FEF7ECFE01218806FEF7E8FEFA
:104CE00009220C214748FDF705FD09220B21454803
:104CF000FDF700FD4FF4C050029002208DF80C002B
:104D000000208DF80E008DF80F008DF80D0002A91F
:104D10003C48FDF7A7FC14208DF8040001208DF815
:104D200005008DF806008DF8070001A8FDF742FE8A
:104D30003548FCF7D3FA08A8FCF70BFD00208DF8E6
:104D400026008DF827008DF828008DF829008DF8B1
:104D50002A0001208DF82B0000208DF822008DF80C
:104D6000230008208DF8240003208DF82500ADF8DD
:104D7000200008A92448FCF7EAFB01208DF81A005E
:104D800000208DF81B0001208DF81C000820ADF8D4
:104D900010000020ADF812004FF6FF70ADF81400BF
:104DA000C01FADF816000020ADF8180001208DF8E6
:104DB0001D0004A8FCF7AEFA00208DF81A008DF84B
:104DC0001B0001208DF81C000820ADF810004002E7
:104DD000ADF812004FF6FF70ADF814004FF680707A
:104DE000ADF816000020ADF8180001208DF81D0068
:104DF00004A8FCF78FFA012202210348FCF79EFB6E
:104E00000BB000BD000002400064004070B52DED05
:104E1000068B044600259FED3E0B84ED040BE069F4
:104E20002060E0696060012518E004F11C0050F882
:104E300025002168814204D204F11C0050F82500AD
:104E4000206004F11C0050F825006168814204D9FB
:104E500004F11C0050F8250060606D1C052DE4DB9A
:104E6000002514E004F11C0151F82500FBF799FB23
:104E700041EC180B94ED041BB0EE410AF0EE610A10
:104E800053EC102BFBF7F4F9C4E904016D1C052D5C
:104E9000E8DB6068FBF785FB41EC180B2068FBF74B
:104EA00080FB41EC1A0B94ED041BB0EE410AF0EECE
:104EB000610A53EC102BFBF77FFA41EC190B53EC12
:104EC000182BFBF776FAC4E9040194ED041BB0EE4D
:104ED000410AF0EE610A9FED101B53EC112B51ECCF
:104EE000100BFBF7DEFA41EC180BFBF7C9FB06468B
:104EF000FBF783FBC4E902019FED050B84ED040B76
:104F00000120207694ED020BBDEC068B70BD0000F5
:104F10000000000000000000000000000000084049
:104F2000282000BF011EA0F10100FBD1704710B581
:104F30004AF21042002107E000BF131EA2F1010453
:104F4000A2B2FAD14B1C99B28142F5DB10BD00B57B
:104F5000034601E0FFF7E4FF181EA3F10103F9D1B6
:104F600000BD82B0CDE9000121F0004001909DED2F
:104F7000000B02B051EC100B7047000070B52DED26
:104F8000028B04460025012020606060B7EE000A15
:104F900084ED030A00BF05E0FEF74AFE104941F820
:104FA00025006D1C052DF7DB0D481C38FFF72EFF83
:104FB000B0EE408AF0EE608A51EC180BFBF760FB14
:104FC000E0619FED080A84ED050A9FED070A84ED74
:104FD000040A9FED060A84ED0A0ABDEC028B70BD3F
:104FE000AC190020CDCCCC3DACC52737000000006B
:104FF000F0EE400AC0ED0A0A90ED030A90ED051AA2
:1050000030EE010A90ED031AC1EE001AC0ED081A45
:1050100090ED0A0A90ED071A30EE411A90ED070A5A
:10502000D0ED081A01EE810A80ED060A90ED080A1B
:10503000B7EE001A31EE400A90ED031A20EE010A95
:1050400080ED020A90ED060A80ED070A90ED020A53
:1050500090ED041A30EE010A80ED030A90ED060A85
:10506000704700009FED0C0B80ED040B9FED0C0BC7
:1050700080ED060B9FED0C0B80ED000B9FED0C0BF4
:1050800080ED020B9FED040B80ED0A0B9FED020BF0
:1050900080ED0C0B70470000000000000000F03FA6
:1050A00000000000000014402D431CEBE2361A3FC4
:1050B0007B14AE47E17A843F1CB501210220FEF744
:1050C000E7FC4FF44070009001208DF804000020B0
:1050D0008DF806008DF807008DF805006946074831
:1050E000FDF7C0FA4FF480710448FDF731FB4FF42F
:1050F00000710248FDF72CFB1CBD000000040240BB
:1051000010B52DED088BFEF767FF4FF48060FDF7BB
:105110008DFCFFF7D1FF00F023FA3648FFF72EFF92
:105120003548FDF739FA3548FDF752FB344800F0B1
:105130004DF9FEF74FFCFFF7C5FD00F0C9FA314805
:10514000FFF790FF3048FFF78DFF3048FFF78AFFE9
:105150002F48FFF787FF2F480068FBF74EFA41EC16
:105160001B0BB0EE4B0AF0EE6B0AFFF76DF8B0EEDA
:10517000409AF0EE609A28480068FBF73EFA41EC4E
:105180001A0B53EC192BFBF71AF941EC180BFBF730
:1051900077FA224908601F480068FBF72EFA41ECB5
:1051A0001B0BB0EE4B0AF0EE6B0AFFF7BDF8B0EE4A
:1051B000409AF0EE609A18480068FBF71EFA41EC3E
:1051C0001A0B53EC192BFBF7FAF841EC180BFBF711
:1051D00057FA12494860FDF733FC0E23104A0021AC
:1051E0001048FDF7B5FCFDF78DFC0020BDEC088BE9
:1051F00010BD00000819002034190020C01900203B
:1052000060190020501A0020901A0020D01A0020A7
:10521000101B0020A40000209C000020506C0020E7
:105220004C2C00206156000870B52DED0E8B044605
:105230000D46B0EE408AF0EE608A95ED070AD5ED96
:105240000A0A20EE200A10EE101A0846FBF7D5F9DC
:1052500041EC1A0B95ED060AD5ED090A20EE200A5D
:1052600010EE101A0846FBF7C8F941EC1C0B95ED3F
:10527000050A10EE101A0846FBF7BFF941EC1E0BA9
:1052800053EC182BFBF79BF841EC1D0B53EC1C2B3C
:10529000FAF7EEFF41EC1B0B53EC1A2BFBF789F8E6
:1052A00041EC190BFBF7ECF9286295ED090A85ED45
:1052B0000A0A95ED080AD5ED090A30EE600A10EEEB
:1052C000101A0846FBF799F93F4A03C295ED080A00
:1052D00085ED090A51EC180BFBF7D2F9A06294EDA9
:1052E000030AD4ED050A30EE200AD4ED030A80EE5D
:1052F000801A84ED081A94ED0A0AD4ED070A30EEFC
:10530000600A10EE101A0846FBF777F941EC1E0B05
:105310002D4890ED000B53EC102B51EC1E0BFBF7BE
:1053200048F841EC1C0B94ED080A10EE101A0846E0
:10533000FBF763F941EC1D0B53EC1C2BFBF73FF81B
:1053400041EC1A0B94ED070A10EE101A0846FBF711
:1053500054F941EC1C0B1C4890ED000B53EC102B46
:1053600051EC1C0BFAF784FF41EC1B0B53EC1A2B8E
:10537000FAF77EFF41EC190BFBF782F9A06194ED7F
:10538000080AF7EE000A30EEC00AD4ED030A20EE58
:10539000200A84ED020A94ED060A84ED070A94EDD2
:1053A000020AD4ED040A30EE200A84ED030A94EDDB
:1053B000060A10EE101A0846FBF71FF941EC100B15
:1053C000BDEC0E8B70BD00000000002010B52DED6F
:1053D000108B04464FF47A70206032206060606861
:1053E000FBF7DFF841EC1B0B6068FBF7DAF841ECE8
:1053F0001D0B9FED570B53EC102BFAF7E0FF41EC20
:105400001C0B53EC1B2BFAF7DAFF41EC190B20684D
:10541000FBF7C7F841EC1D0B6068FBF7C2F841ECE5
:105420001F0B9FED4D0B53EC102BFAF7C8FF41EC0F
:105430001E0B53EC1D2BFAF7C2FF41EC1B0B21682E
:1054400001FB01F0FBF7ADF841EC1C0B53EC1B2BFF
:10545000FAF70EFF41EC1A0B53EC192BFAF708FF81
:1054600041EC180BFBF70CF9A06094ED020A10EE6A
:10547000101A0846FBF7C1F841EC190B6068FBF7FE
:1054800090F841EC1B0B6068FBF78BF841EC1D0BAF
:105490009FED2F0B53EC102BFAF791FF41EC1C0BF7
:1054A00053EC1B2BFAF78BFF41EC1A0B53EC192B27
:1054B000FAF7F7FF41EC180BFBF7E2F8606194EDA7
:1054C000020A10EE101A0846FBF797F841EC190B88
:1054D0006068FBF766F841EC1D0B2068FBF761F88C
:1054E00041EC1F0B9FED1C0B53EC102BFAF767FFE1
:1054F00041EC1E0B53EC1D2BFAF761FF41EC1B0B2B
:1055000021684900226801FB02F0FBF74AF841ECF0
:105510001C0B53EC1B2BFAF7ABFE41EC1A0B53ECB4
:10552000192BFAF7BEFF41EC180BFBF7A9F8A061A5
:105530002068404300EE100AB8EE400AD4ED020A9B
:1055400080EE201A84ED071ABDEC108B10BD000010
:10555000BA48BEC93CBD43403023337F7CD932407A
:1055600000B587B001218803FEF7A2FA01210620C9
:10557000FEF78EFA05220C213648FDF7BBF805220E
:105580000D213448FDF7B6F805220E213148FDF70C
:10559000B1F805220F212F48FDF7ACF84FF48050E9
:1055A000009000208DF8040002208DF805000120F5
:1055B0008DF8070069462748FDF754F84020009011
:1055C00002208DF8050001208DF8040000208DF8E0
:1055D00006008DF8070069461F48FDF743F8402193
:1055E0001D48FDF7B5F84FF46040009002208DF89B
:1055F00004008DF8050000208DF806008DF80700E6
:1056000069461448FDF72EF80020ADF808004FF465
:105610008270ADF80A000020ADF80C00ADF80E0065
:105620000120ADF810004002ADF812001820ADF8CE
:1056300014000020ADF816000720ADF8180002A9EC
:105640000648FEF7A7FB01210448FEF789FB07B0D7
:1056500000BD000000040240000802400038004085
:1056600070B50446002500BFFDF7A8FDFAF7A8FDB8
:10567000054609230E4A00210E48FDF769FA0A2360
:105680000D4A00210D48FDF763FA0B230C4A002157
:105690000C48FDF75DFA0C230B4A00210B48FDF77F
:1056A00057FA0E20FDF772FC2846FAF78DFD70BD03
:1056B0004C3C0020670900084C4C00204138000891
:1056C0004C5C0020CD4100084C6C002049290008AA
:1056D0001FB501210846FEF7EBF91C208DF80000EC
:1056E00000208DF801008DF8020001208DF80300E4
:1056F0006846FDF75FF95320ADF804000020ADF8CF
:105700000600ADF80C004220029001A94007FEF708
:105710001BFD012211469007FEF70CFD01218807B1
:10572000FEF7C4FC01218807FEF7C6FC1FBD000080
:10573000010002000100030001000200010004005A
:105740000100020001000300010002000100050049
:10575000010002000100030001000200010004003A
:105760000100020001000300010002000100060028
:10577000010002000100030001000200010004001A
:105780000100020001000300010002000100050009
:1057900001000200010003000100020001000400FA
:1057A00001000200010003000100020001000700E7
:1057B00001000200010003000100020001000400DA
:1057C00001000200010003000100020001000500C9
:1057D00001000200010003000100020001000400BA
:1057E00001000200010003000100020001000600A8
:1057F000010002000100030001000200010004009A
:105800000100020001000300010002000100050088
:105810000100020001000300010002000100040079
:10582000010002000100030001000200010000006D
:105830004C5555555555A53F7751C1166CC156BFAE
:105840009015CB19A001FA3EAD529C804F7E92BEBE
:10585000C4B1B4BD9EEE213ED43888BEE9FAA8BDDD
:1058600000004054FB21F93F3163621A61B4D03D1E
:105870000000601A61B4D03D7370032E8A19A33BF7
:105880000000002E8A19A33BC14920259A837B3949
:1058900000000000000000006E83F9A22915444EAC
:1058A000D15727FCC0DD34F5999562DB4190433C2C
:1058B000AB6351FE61C5BBDE3A6E24B7E0D24D4208
:1058C000EA2E49061C92D1091CEB1DFE3EA729B108
:1058D000F53582E88444BB2E26709CE9417E5FB496
:1058E00039D69139F43953838B5F849C3B28F9BDB9
:1058F000FF97F81F0F9805DE8B112FEF1F6D0A5AC7
:10590000CF7E366DB709CB27663F464F2DEA5F9EA7
:10591000C7BA27757BF1E5EBF739073DEA92528A62
:10592000B15FFB6B085D8D1FA6F810111111813F4F
:10593000D561C119A0012ABF7DFEB157E31DC73E45
:10594000EB9C2B8AE6E55ABE7CD5CF5A3AD9E53D89
:105950007059000800000020041900000809000820
:10596000D0700008041900202CB40000A84C0008D6
:10597000027900012005FB4B74460460113F7783D8
:105980003B7069833B009B833B1C7E833B10201153
:10599000F1DFBD40170A48BF9E336A3FEF1C033B4F
:1059A0003012F40412EC0412E20412D60412C804F9
:1059B00012B80412A704129404127F041274041281
:1059C000680412505C12350422196810054A7446A6
:1059D000DC0412BA04129704127204124B0412234C
:1059E000181006F8497446CC04129E04126F041273
:1059F0003D04120A1413D548141104126504122B25
:105A000004120D101006EE477446B0041271041211
:105A10002F0C13EC467C110412600412170C1006B4
:105A2000CC45744680041232081006E24474469055
:105A300004123D081006E843744691041238081019
:105A400006DD42744681041223081006C3417446E1
:105A500092041261081006FE407446980412310840
:105A60001006C83F74465E041006F13E7446830477
:105A70001213081006A13D74462E041006B83C749B
:105A80004641041006C83B74464D041006D13A74D2
:105A90004653041006D339744651041006CD3874A9
:105AA0004648041006C03774467C041237081006B6
:105AB000AC36744620041006923574460104176F04
:105AC0003410100533744646041006AF327446167F
:105AD00004100A7B317446DE307446400413A02F54
